{
  "abi": [
    {
      "inputs": [
        {
          "internalType": "contract IERC20",
          "name": "aToken0",
          "type": "address"
        },
        {
          "internalType": "contract IERC20",
          "name": "aToken1",
          "type": "address"
        }
      ],
      "stateMutability": "nonpayable",
      "type": "constructor"
    },
    {
      "anonymous": false,
      "inputs": [
        {
          "indexed": true,
          "internalType": "address",
          "name": "owner",
          "type": "address"
        },
        {
          "indexed": true,
          "internalType": "address",
          "name": "spender",
          "type": "address"
        },
        {
          "indexed": false,
          "internalType": "uint256",
          "name": "amount",
          "type": "uint256"
        }
      ],
      "name": "Approval",
      "type": "event"
    },
    {
      "anonymous": false,
      "inputs": [
        {
          "indexed": false,
          "internalType": "contract IAssetManager",
          "name": "manager",
          "type": "address"
        }
      ],
      "name": "AssetManager",
      "type": "event"
    },
    {
      "anonymous": false,
      "inputs": [
        {
          "indexed": true,
          "internalType": "address",
          "name": "sender",
          "type": "address"
        },
        {
          "indexed": false,
          "internalType": "uint256",
          "name": "amount0",
          "type": "uint256"
        },
        {
          "indexed": false,
          "internalType": "uint256",
          "name": "amount1",
          "type": "uint256"
        }
      ],
      "name": "Burn",
      "type": "event"
    },
    {
      "anonymous": false,
      "inputs": [
        {
          "indexed": false,
          "internalType": "uint256",
          "name": "newCustomPlatformFee",
          "type": "uint256"
        }
      ],
      "name": "CustomPlatformFee",
      "type": "event"
    },
    {
      "anonymous": false,
      "inputs": [
        {
          "indexed": false,
          "internalType": "uint256",
          "name": "newCustomSwapFee",
          "type": "uint256"
        }
      ],
      "name": "CustomSwapFee",
      "type": "event"
    },
    {
      "anonymous": false,
      "inputs": [
        {
          "indexed": false,
          "internalType": "contract IERC20",
          "name": "token",
          "type": "address"
        },
        {
          "indexed": false,
          "internalType": "uint256",
          "name": "amount",
          "type": "uint256"
        }
      ],
      "name": "Loss",
      "type": "event"
    },
    {
      "anonymous": false,
      "inputs": [
        {
          "indexed": false,
          "internalType": "uint256",
          "name": "oldMaxChangePerSecond",
          "type": "uint256"
        },
        {
          "indexed": false,
          "internalType": "uint256",
          "name": "newMaxChangePerSecond",
          "type": "uint256"
        }
      ],
      "name": "MaxChangeRateUpdated",
      "type": "event"
    },
    {
      "anonymous": false,
      "inputs": [
        {
          "indexed": true,
          "internalType": "address",
          "name": "sender",
          "type": "address"
        },
        {
          "indexed": false,
          "internalType": "uint256",
          "name": "amount0",
          "type": "uint256"
        },
        {
          "indexed": false,
          "internalType": "uint256",
          "name": "amount1",
          "type": "uint256"
        }
      ],
      "name": "Mint",
      "type": "event"
    },
    {
      "anonymous": false,
      "inputs": [
        {
          "indexed": false,
          "internalType": "address",
          "name": "oldCaller",
          "type": "address"
        },
        {
          "indexed": false,
          "internalType": "address",
          "name": "newCaller",
          "type": "address"
        }
      ],
      "name": "OracleCallerUpdated",
      "type": "event"
    },
    {
      "anonymous": false,
      "inputs": [
        {
          "indexed": false,
          "internalType": "uint256",
          "name": "newPlatformFee",
          "type": "uint256"
        }
      ],
      "name": "PlatformFee",
      "type": "event"
    },
    {
      "anonymous": false,
      "inputs": [
        {
          "indexed": false,
          "internalType": "contract IERC20",
          "name": "token",
          "type": "address"
        },
        {
          "indexed": false,
          "internalType": "uint256",
          "name": "amount",
          "type": "uint256"
        }
      ],
      "name": "Profit",
      "type": "event"
    },
    {
      "anonymous": false,
      "inputs": [
        {
          "indexed": true,
          "internalType": "address",
          "name": "sender",
          "type": "address"
        },
        {
          "indexed": false,
          "internalType": "bool",
          "name": "zeroForOne",
          "type": "bool"
        },
        {
          "indexed": false,
          "internalType": "uint256",
          "name": "amountIn",
          "type": "uint256"
        },
        {
          "indexed": false,
          "internalType": "uint256",
          "name": "amountOut",
          "type": "uint256"
        },
        {
          "indexed": true,
          "internalType": "address",
          "name": "to",
          "type": "address"
        }
      ],
      "name": "Swap",
      "type": "event"
    },
    {
      "anonymous": false,
      "inputs": [
        {
          "indexed": false,
          "internalType": "uint256",
          "name": "newSwapFee",
          "type": "uint256"
        }
      ],
      "name": "SwapFee",
      "type": "event"
    },
    {
      "anonymous": false,
      "inputs": [
        {
          "indexed": false,
          "internalType": "uint104",
          "name": "reserve0",
          "type": "uint104"
        },
        {
          "indexed": false,
          "internalType": "uint104",
          "name": "reserve1",
          "type": "uint104"
        }
      ],
      "name": "Sync",
      "type": "event"
    },
    {
      "anonymous": false,
      "inputs": [
        {
          "indexed": true,
          "internalType": "address",
          "name": "from",
          "type": "address"
        },
        {
          "indexed": true,
          "internalType": "address",
          "name": "to",
          "type": "address"
        },
        {
          "indexed": false,
          "internalType": "uint256",
          "name": "amount",
          "type": "uint256"
        }
      ],
      "name": "Transfer",
      "type": "event"
    },
    {
      "inputs": [],
      "name": "ACCURACY",
      "outputs": [
        {
          "internalType": "uint256",
          "name": "",
          "type": "uint256"
        }
      ],
      "stateMutability": "view",
      "type": "function"
    },
    {
      "inputs": [],
      "name": "DOMAIN_SEPARATOR",
      "outputs": [
        {
          "internalType": "bytes32",
          "name": "",
          "type": "bytes32"
        }
      ],
      "stateMutability": "view",
      "type": "function"
    },
    {
      "inputs": [],
      "name": "FEE_ACCURACY",
      "outputs": [
        {
          "internalType": "uint256",
          "name": "",
          "type": "uint256"
        }
      ],
      "stateMutability": "view",
      "type": "function"
    },
    {
      "inputs": [],
      "name": "MAX_PLATFORM_FEE",
      "outputs": [
        {
          "internalType": "uint256",
          "name": "",
          "type": "uint256"
        }
      ],
      "stateMutability": "view",
      "type": "function"
    },
    {
      "inputs": [],
      "name": "MAX_SWAP_FEE",
      "outputs": [
        {
          "internalType": "uint256",
          "name": "",
          "type": "uint256"
        }
      ],
      "stateMutability": "view",
      "type": "function"
    },
    {
      "inputs": [],
      "name": "MINIMUM_LIQUIDITY",
      "outputs": [
        {
          "internalType": "uint256",
          "name": "",
          "type": "uint256"
        }
      ],
      "stateMutability": "view",
      "type": "function"
    },
    {
      "inputs": [],
      "name": "SQUARED_ACCURACY",
      "outputs": [
        {
          "internalType": "uint256",
          "name": "",
          "type": "uint256"
        }
      ],
      "stateMutability": "view",
      "type": "function"
    },
    {
      "inputs": [
        {
          "internalType": "int256",
          "name": "aToken0Change",
          "type": "int256"
        },
        {
          "internalType": "int256",
          "name": "aToken1Change",
          "type": "int256"
        }
      ],
      "name": "adjustManagement",
      "outputs": [],
      "stateMutability": "nonpayable",
      "type": "function"
    },
    {
      "inputs": [
        {
          "internalType": "address",
          "name": "",
          "type": "address"
        },
        {
          "internalType": "address",
          "name": "",
          "type": "address"
        }
      ],
      "name": "allowance",
      "outputs": [
        {
          "internalType": "uint256",
          "name": "",
          "type": "uint256"
        }
      ],
      "stateMutability": "view",
      "type": "function"
    },
    {
      "inputs": [
        {
          "internalType": "address",
          "name": "spender",
          "type": "address"
        },
        {
          "internalType": "uint256",
          "name": "amount",
          "type": "uint256"
        }
      ],
      "name": "approve",
      "outputs": [
        {
          "internalType": "bool",
          "name": "",
          "type": "bool"
        }
      ],
      "stateMutability": "nonpayable",
      "type": "function"
    },
    {
      "inputs": [],
      "name": "assetManager",
      "outputs": [
        {
          "internalType": "contract IAssetManager",
          "name": "",
          "type": "address"
        }
      ],
      "stateMutability": "view",
      "type": "function"
    },
    {
      "inputs": [
        {
          "internalType": "address",
          "name": "",
          "type": "address"
        }
      ],
      "name": "balanceOf",
      "outputs": [
        {
          "internalType": "uint256",
          "name": "",
          "type": "uint256"
        }
      ],
      "stateMutability": "view",
      "type": "function"
    },
    {
      "inputs": [
        {
          "internalType": "address",
          "name": "aTo",
          "type": "address"
        }
      ],
      "name": "burn",
      "outputs": [
        {
          "internalType": "uint256",
          "name": "rAmount0",
          "type": "uint256"
        },
        {
          "internalType": "uint256",
          "name": "rAmount1",
          "type": "uint256"
        }
      ],
      "stateMutability": "nonpayable",
      "type": "function"
    },
    {
      "inputs": [],
      "name": "customPlatformFee",
      "outputs": [
        {
          "internalType": "uint256",
          "name": "",
          "type": "uint256"
        }
      ],
      "stateMutability": "view",
      "type": "function"
    },
    {
      "inputs": [],
      "name": "customSwapFee",
      "outputs": [
        {
          "internalType": "uint256",
          "name": "",
          "type": "uint256"
        }
      ],
      "stateMutability": "view",
      "type": "function"
    },
    {
      "inputs": [],
      "name": "decimals",
      "outputs": [
        {
          "internalType": "uint8",
          "name": "",
          "type": "uint8"
        }
      ],
      "stateMutability": "view",
      "type": "function"
    },
    {
      "inputs": [],
      "name": "factory",
      "outputs": [
        {
          "internalType": "contract IGenericFactory",
          "name": "",
          "type": "address"
        }
      ],
      "stateMutability": "view",
      "type": "function"
    },
    {
      "inputs": [],
      "name": "getReserves",
      "outputs": [
        {
          "internalType": "uint104",
          "name": "rReserve0",
          "type": "uint104"
        },
        {
          "internalType": "uint104",
          "name": "rReserve1",
          "type": "uint104"
        },
        {
          "internalType": "uint32",
          "name": "rBlockTimestampLast",
          "type": "uint32"
        },
        {
          "internalType": "uint16",
          "name": "rIndex",
          "type": "uint16"
        }
      ],
      "stateMutability": "view",
      "type": "function"
    },
    {
      "inputs": [],
      "name": "kLast",
      "outputs": [
        {
          "internalType": "uint256",
          "name": "",
          "type": "uint256"
        }
      ],
      "stateMutability": "view",
      "type": "function"
    },
    {
      "inputs": [],
      "name": "maxChangeRate",
      "outputs": [
        {
          "internalType": "uint256",
          "name": "",
          "type": "uint256"
        }
      ],
      "stateMutability": "view",
      "type": "function"
    },
    {
      "inputs": [
        {
          "internalType": "address",
          "name": "aTo",
          "type": "address"
        }
      ],
      "name": "mint",
      "outputs": [
        {
          "internalType": "uint256",
          "name": "rLiquidity",
          "type": "uint256"
        }
      ],
      "stateMutability": "nonpayable",
      "type": "function"
    },
    {
      "inputs": [],
      "name": "name",
      "outputs": [
        {
          "internalType": "string",
          "name": "",
          "type": "string"
        }
      ],
      "stateMutability": "view",
      "type": "function"
    },
    {
      "inputs": [
        {
          "internalType": "address",
          "name": "",
          "type": "address"
        }
      ],
      "name": "nonces",
      "outputs": [
        {
          "internalType": "uint256",
          "name": "",
          "type": "uint256"
        }
      ],
      "stateMutability": "view",
      "type": "function"
    },
    {
      "inputs": [
        {
          "internalType": "uint256",
          "name": "aIndex",
          "type": "uint256"
        }
      ],
      "name": "observation",
      "outputs": [
        {
          "components": [
            {
              "internalType": "int112",
              "name": "logAccRawPrice",
              "type": "int112"
            },
            {
              "internalType": "int56",
              "name": "logAccClampedPrice",
              "type": "int56"
            },
            {
              "internalType": "int56",
              "name": "logAccLiquidity",
              "type": "int56"
            },
            {
              "internalType": "uint32",
              "name": "timestamp",
              "type": "uint32"
            }
          ],
          "internalType": "struct Observation",
          "name": "rObservation",
          "type": "tuple"
        }
      ],
      "stateMutability": "view",
      "type": "function"
    },
    {
      "inputs": [],
      "name": "oracleCaller",
      "outputs": [
        {
          "internalType": "address",
          "name": "",
          "type": "address"
        }
      ],
      "stateMutability": "view",
      "type": "function"
    },
    {
      "inputs": [
        {
          "internalType": "address",
          "name": "owner",
          "type": "address"
        },
        {
          "internalType": "address",
          "name": "spender",
          "type": "address"
        },
        {
          "internalType": "uint256",
          "name": "value",
          "type": "uint256"
        },
        {
          "internalType": "uint256",
          "name": "deadline",
          "type": "uint256"
        },
        {
          "internalType": "uint8",
          "name": "v",
          "type": "uint8"
        },
        {
          "internalType": "bytes32",
          "name": "r",
          "type": "bytes32"
        },
        {
          "internalType": "bytes32",
          "name": "s",
          "type": "bytes32"
        }
      ],
      "name": "permit",
      "outputs": [],
      "stateMutability": "nonpayable",
      "type": "function"
    },
    {
      "inputs": [],
      "name": "platformFee",
      "outputs": [
        {
          "internalType": "uint256",
          "name": "",
          "type": "uint256"
        }
      ],
      "stateMutability": "view",
      "type": "function"
    },
    {
      "inputs": [],
      "name": "prevClampedPrice",
      "outputs": [
        {
          "internalType": "uint256",
          "name": "",
          "type": "uint256"
        }
      ],
      "stateMutability": "view",
      "type": "function"
    },
    {
      "inputs": [
        {
          "internalType": "contract IERC20",
          "name": "aToken",
          "type": "address"
        }
      ],
      "name": "recoverToken",
      "outputs": [],
      "stateMutability": "nonpayable",
      "type": "function"
    },
    {
      "inputs": [
        {
          "internalType": "uint256",
          "name": "aCustomPlatformFee",
          "type": "uint256"
        }
      ],
      "name": "setCustomPlatformFee",
      "outputs": [],
      "stateMutability": "nonpayable",
      "type": "function"
    },
    {
      "inputs": [
        {
          "internalType": "uint256",
          "name": "aCustomSwapFee",
          "type": "uint256"
        }
      ],
      "name": "setCustomSwapFee",
      "outputs": [],
      "stateMutability": "nonpayable",
      "type": "function"
    },
    {
      "inputs": [
        {
          "internalType": "contract IAssetManager",
          "name": "manager",
          "type": "address"
        }
      ],
      "name": "setManager",
      "outputs": [],
      "stateMutability": "nonpayable",
      "type": "function"
    },
    {
      "inputs": [
        {
          "internalType": "uint256",
          "name": "aMaxChangeRate",
          "type": "uint256"
        }
      ],
      "name": "setMaxChangeRate",
      "outputs": [],
      "stateMutability": "nonpayable",
      "type": "function"
    },
    {
      "inputs": [
        {
          "internalType": "address",
          "name": "aTo",
          "type": "address"
        }
      ],
      "name": "skim",
      "outputs": [],
      "stateMutability": "nonpayable",
      "type": "function"
    },
    {
      "inputs": [
        {
          "internalType": "contract IERC20",
          "name": "aToken",
          "type": "address"
        }
      ],
      "name": "skimExcessManaged",
      "outputs": [
        {
          "internalType": "uint256",
          "name": "rAmtSkimmed",
          "type": "uint256"
        }
      ],
      "stateMutability": "nonpayable",
      "type": "function"
    },
    {
      "inputs": [
        {
          "internalType": "int256",
          "name": "aAmount",
          "type": "int256"
        },
        {
          "internalType": "bool",
          "name": "aExactIn",
          "type": "bool"
        },
        {
          "internalType": "address",
          "name": "aTo",
          "type": "address"
        },
        {
          "internalType": "bytes",
          "name": "aData",
          "type": "bytes"
        }
      ],
      "name": "swap",
      "outputs": [
        {
          "internalType": "uint256",
          "name": "rAmountOut",
          "type": "uint256"
        }
      ],
      "stateMutability": "nonpayable",
      "type": "function"
    },
    {
      "inputs": [],
      "name": "swapFee",
      "outputs": [
        {
          "internalType": "uint256",
          "name": "",
          "type": "uint256"
        }
      ],
      "stateMutability": "view",
      "type": "function"
    },
    {
      "inputs": [],
      "name": "symbol",
      "outputs": [
        {
          "internalType": "string",
          "name": "",
          "type": "string"
        }
      ],
      "stateMutability": "view",
      "type": "function"
    },
    {
      "inputs": [],
      "name": "sync",
      "outputs": [],
      "stateMutability": "nonpayable",
      "type": "function"
    },
    {
      "inputs": [],
      "name": "token0",
      "outputs": [
        {
          "internalType": "contract IERC20",
          "name": "",
          "type": "address"
        }
      ],
      "stateMutability": "view",
      "type": "function"
    },
    {
      "inputs": [],
      "name": "token0Managed",
      "outputs": [
        {
          "internalType": "uint104",
          "name": "",
          "type": "uint104"
        }
      ],
      "stateMutability": "view",
      "type": "function"
    },
    {
      "inputs": [],
      "name": "token0PrecisionMultiplier",
      "outputs": [
        {
          "internalType": "uint128",
          "name": "",
          "type": "uint128"
        }
      ],
      "stateMutability": "view",
      "type": "function"
    },
    {
      "inputs": [],
      "name": "token1",
      "outputs": [
        {
          "internalType": "contract IERC20",
          "name": "",
          "type": "address"
        }
      ],
      "stateMutability": "view",
      "type": "function"
    },
    {
      "inputs": [],
      "name": "token1Managed",
      "outputs": [
        {
          "internalType": "uint104",
          "name": "",
          "type": "uint104"
        }
      ],
      "stateMutability": "view",
      "type": "function"
    },
    {
      "inputs": [],
      "name": "token1PrecisionMultiplier",
      "outputs": [
        {
          "internalType": "uint128",
          "name": "",
          "type": "uint128"
        }
      ],
      "stateMutability": "view",
      "type": "function"
    },
    {
      "inputs": [],
      "name": "totalSupply",
      "outputs": [
        {
          "internalType": "uint256",
          "name": "",
          "type": "uint256"
        }
      ],
      "stateMutability": "view",
      "type": "function"
    },
    {
      "inputs": [
        {
          "internalType": "address",
          "name": "to",
          "type": "address"
        },
        {
          "internalType": "uint256",
          "name": "amount",
          "type": "uint256"
        }
      ],
      "name": "transfer",
      "outputs": [
        {
          "internalType": "bool",
          "name": "",
          "type": "bool"
        }
      ],
      "stateMutability": "nonpayable",
      "type": "function"
    },
    {
      "inputs": [
        {
          "internalType": "address",
          "name": "from",
          "type": "address"
        },
        {
          "internalType": "address",
          "name": "to",
          "type": "address"
        },
        {
          "internalType": "uint256",
          "name": "amount",
          "type": "uint256"
        }
      ],
      "name": "transferFrom",
      "outputs": [
        {
          "internalType": "bool",
          "name": "",
          "type": "bool"
        }
      ],
      "stateMutability": "nonpayable",
      "type": "function"
    },
    {
      "inputs": [],
      "name": "updateOracleCaller",
      "outputs": [],
      "stateMutability": "nonpayable",
      "type": "function"
    },
    {
      "inputs": [],
      "name": "updatePlatformFee",
      "outputs": [],
      "stateMutability": "nonpayable",
      "type": "function"
    },
    {
      "inputs": [],
      "name": "updateSwapFee",
      "outputs": [],
      "stateMutability": "nonpayable",
      "type": "function"
    }
  ],
  "bytecode": {
    "object": "0x61022060405260006101a08190526101c08190526101e05261ffff610200526001600160f01b03196006556000196008819055600a553480156200004257600080fd5b506040516200621a3803806200621a833981016040819052620000659162000877565b81816040518060400160405280600b81526020016a43503a3a7377617046656560a81b8152506001604051806040016040528060128152602001712932b9b2b93b37b4b9102628102a37b5b2b760711b8152506040518060400160405280600681526020016505245532d4c560d41b81525060128260009081620000ea919062000954565b506001620000f9838262000954565b5060ff81166080524660a0526200010f62000304565b60c05250503360e052506001600160a01b0384811661010052831661012052806200013c576000620001bb565b836001600160a01b031663313ce5676040518163ffffffff1660e01b8152600401602060405180830381865afa1580156200017b573d6000803e3d6000fd5b505050506040513d601f19601f82011682018060405250810190620001a1919062000a20565b620001ae90601262000a62565b620001bb90600a62000bbc565b6001600160801b03166101405280620001d657600062000255565b826001600160a01b031663313ce5676040518163ffffffff1660e01b8152600401602060405180830381865afa15801562000215573d6000803e3d6000fd5b505050506040513d601f19601f820116820180604052508101906200023b919062000a20565b6200024890601262000a62565b6200025590600a62000bbc565b6001600160801b03166101605281516020830120610180528015620002f8576200027e620003a0565b62000288620004cf565b62000292620005d4565b620002f8620002f2620002ef6040518060400160405280601581526020017f5368617265643a3a6d61784368616e676552617465000000000000000000000081525060e0516001600160a01b0316620006b460201b90919060201c565b90565b6200075a565b50505050505062000c9f565b60007f8b73c3c69bb8fe3d512ecc4cf759cc79239f7b179b0ffacaa9a75d522b39400f600060405162000338919062000bd6565b6040805191829003822060208301939093528101919091527fc89efdaa54c0f20c7adf612882df0950f5a951637e0307cdcb4c672f298b8bc660608201524660808201523060a082015260c00160405160208183030381529060405280519060200120905090565b6000600019600854036200042c5760e0516101805160405163023aa9ab60e61b8152600481019190915262000426916001600160a01b031690638eaa6ac090602401602060405180830381865afa15801562000400573d6000803e3d6000fd5b505050506040513d601f19601f82011682018060405250810190620002ef919062000c54565b62000430565b6008545b905060075481036200043f5750565b614e20811115620004975760405162461bcd60e51b815260206004820152601460248201527f52503a20494e56414c49445f535741505f46454500000000000000000000000060448201526064015b60405180910390fd5b6040518181527f829472a12eb635e89660a3fd5efc2b638147cce371274f7185a2cc915bd0dafc9060200160405180910390a1600755565b6000600019600a5403620005345760408051808201909152601381527f5368617265643a3a706c6174666f726d46656500000000000000000000000000602082015260e0516200052e91620002ef916001600160a01b031690620006b4565b62000538565b600a545b90506009548103620005475750565b620f42408111156200059c5760405162461bcd60e51b815260206004820152601860248201527f52503a20494e56414c49445f504c4154464f524d5f464545000000000000000060448201526064016200048e565b6040518181527f6f9983488bd1500c372d1f10befe9e7790d764b18c848cfa10872f4e248ded929060200160405180910390a1600955565b60006200062f620002ef6040518060400160405280601481526020017f5368617265643a3a6f7261636c6543616c6c657200000000000000000000000081525060e0516001600160a01b0316620006b460201b90919060201c565b6201000f549091506001600160a01b03808316911614620006b1576201000f54604080516001600160a01b03928316815291831660208301527f262681b3b01b61ff6d02569759105771205cdd274fb3c45535b50632e0a3523f910160405180910390a16201000f80546001600160a01b0319166001600160a01b0383161790555b50565b6000826001600160a01b0316638eaa6ac083604051602001620006d8919062000c6e565b604051602081830303815290604052805190602001206040518263ffffffff1660e01b81526004016200070d91815260200190565b602060405180830381865afa1580156200072b573d6000803e3d6000fd5b505050506040513d601f19601f8201168201806040525081019062000751919062000c54565b90505b92915050565b60e0516001600160a01b0316336001600160a01b031614620007af5760405162461bcd60e51b815260206004820152600d60248201526c29281d102327a92124a22222a760991b60448201526064016200048e565b806000108015620007c75750662386f26fc100008111155b620008155760405162461bcd60e51b815260206004820152601d60248201527f52503a20494e56414c49445f4348414e47455f5045525f5345434f4e4400000060448201526064016200048e565b6201000d5460408051918252602082018390527f807b9f5907da3f00bf587e77bc07247e1c7ff5ae46c93a584b3a075be0b1bac2910160405180910390a16201000d55565b80516001600160a01b03811681146200087257600080fd5b919050565b600080604083850312156200088b57600080fd5b62000896836200085a565b9150620008a6602084016200085a565b90509250929050565b634e487b7160e01b600052604160045260246000fd5b600181811c90821680620008da57607f821691505b602082108103620008fb57634e487b7160e01b600052602260045260246000fd5b50919050565b601f8211156200094f57600081815260208120601f850160051c810160208610156200092a5750805b601f850160051c820191505b818110156200094b5782815560010162000936565b5050505b505050565b81516001600160401b03811115620009705762000970620008af565b6200098881620009818454620008c5565b8462000901565b602080601f831160018114620009c05760008415620009a75750858301515b600019600386901b1c1916600185901b1785556200094b565b600085815260208120601f198616915b82811015620009f157888601518255948401946001909101908401620009d0565b508582101562000a105787850151600019600388901b60f8161c191681555b5050505050600190811b01905550565b60006020828403121562000a3357600080fd5b815160ff8116811462000a4557600080fd5b9392505050565b634e487b7160e01b600052601160045260246000fd5b60ff828116828216039081111562000754576200075462000a4c565b600181815b8085111562000ac5576001600160801b0382900482111562000aa95762000aa962000a4c565b8085161562000ab757918102915b93841c939080029062000a83565b509250929050565b60008262000ade5750600162000754565b8162000aed5750600062000754565b816001811462000b06576002811462000b115762000b4c565b600191505062000754565b60ff84111562000b255762000b2562000a4c565b6001841b91506001600160801b0382111562000b455762000b4562000a4c565b5062000754565b5060208310610133831016604e8410600b841016171562000b8b575081810a6001600160801b0381111562000b855762000b8562000a4c565b62000754565b62000b97838362000a7e565b6001600160801b0381900482111562000bb45762000bb462000a4c565b029392505050565b60006200075160ff84166001600160801b03841662000acd565b600080835462000be681620008c5565b6001828116801562000c01576001811462000c175762000c48565b60ff198416875282151583028701945062000c48565b8760005260208060002060005b8581101562000c3f5781548a82015290840190820162000c24565b50505082870194505b50929695505050505050565b60006020828403121562000c6757600080fd5b5051919050565b6000825160005b8181101562000c91576020818601810151858301520162000c75565b506000920191825250919050565b60805160a05160c05160e051610100516101205161014051610160516101805161540062000e1a6000396000610a4501526000818161056301526141320152600081816107b901526140f6015260008181610835015281816112a90152818161167701528181611ab001528181611b6401528181611be3015281816120f70152818161282a015281816129b801528181612a7f01528181612c7001528181612fd9015261331c01526000818161045101528181611254015281816114d00152818161164a01528181611914015281816119e501528181611b8c015281816120b5015281816128650152818161291101528181612a1c01528181612b5101528181612fb40152818161323a01526138cc0152600081816107f501528181610a6f01528181610d3801528181610eb1015281816114510152818161173c01528181611cd801528181611fb10152818161214901528181612676015261345601526000610e7701526000610e42015260006104ce01526154006000f3fe608060405234801561001057600080fd5b50600436106103415760003560e01c806394217ad1116101bd578063bc25cf77116100f9578063db6488dc116100a2578063e12bd9d81161007c578063e12bd9d81461089f578063e9bdf7b8146108b2578063fbcd9b05146108cb578063fff6cae9146108e257600080fd5b8063db6488dc14610512578063dbc781bc1461086c578063dd62ed3e1461087457600080fd5b8063d0ebdbe7116100d3578063d0ebdbe714610820578063d21220a714610833578063d505accf1461085957600080fd5b8063bc25cf77146107dd578063c45a0155146107f0578063c58771ef1461081757600080fd5b8063a9059cbb11610166578063afb4a43b11610140578063afb4a43b14610779578063b62221e01461078c578063ba9a7a56146107ae578063baa8c7cb146107b757600080fd5b8063a9059cbb14610715578063ab3d854414610728578063ad7853e91461073157600080fd5b806397e377641161019757806397e37764146106955780639be65a60146106a85780639d62a694146106bb57600080fd5b806394217ad11461065a5780639568e73b1461067a57806395d89b411461068d57600080fd5b806348ee43321161028c57806370a08231116102355780637c3cbc7c1161020f5780637c3cbc7c146105fe5780637ecebe001461060757806385faf6241461062757806389afcb441461063257600080fd5b806370a08231146105c05780637464fc3d146105e05780637aec721b146105eb57600080fd5b80634e25dc47116102665780634e25dc471461056157806354cf2aeb146105a45780636a627842146105ad57600080fd5b806348ee43321461051c578063495bc0fb146105435780634dfa1ff91461054e57600080fd5b806323b872dd116102ee57806331c49074116102c857806331c49074146105025780633644e5151461050a5780633998a6811461051257600080fd5b806323b872dd146104ad57806326232a2e146104c0578063313ce567146104c957600080fd5b80630c472afd1161031f5780630c472afd146104455780630dfe16811461044f57806318160ddd1461049657600080fd5b806306fdde03146103465780630902f1ac14610364578063095ea7b314610422575b600080fd5b61034e6108ea565b60405161035b9190614d89565b60405180910390f35b60408051608080820183526006546cffffffffffffffffffffffffff8082168085526d0100000000000000000000000000830490911660208086018290527a010000000000000000000000000000000000000000000000000000840463ffffffff8116878901527e0100000000000000000000000000000000000000000000000000000000000090940461ffff166060968701819052875193845290830191909152637fffffff90921694810194909452918301919091520161035b565b610435610430366004614dfc565b610978565b604051901515815260200161035b565b61044d6109f2565b005b7f00000000000000000000000000000000000000000000000000000000000000005b60405173ffffffffffffffffffffffffffffffffffffffff909116815260200161035b565b61049f60025481565b60405190815260200161035b565b6104356104bb366004614e28565b610bb2565b61049f60095481565b6104f07f000000000000000000000000000000000000000000000000000000000000000081565b60405160ff909116815260200161035b565b61044d610cf8565b61049f610e3e565b61049f620f424081565b61049f7f161bcca7119915b50764b4abe86529797775a5f171951000000000000000000081565b61049f6201000e5481565b61044d61055c366004614e69565b610e99565b7f00000000000000000000000000000000000000000000000000000000000000005b6040516fffffffffffffffffffffffffffffffff909116815260200161035b565b61049f60075481565b61049f6105bb366004614e82565b610ffa565b61049f6105ce366004614e82565b60036020526000908152604090205481565b61049f620100105481565b61049f6105f9366004614e82565b611250565b61049f600a5481565b61049f610615366004614e82565b60056020526000908152604090205481565b61049f6201000d5481565b610645610640366004614e82565b6115a4565b6040805192835260208301919091520161035b565b600b546104719073ffffffffffffffffffffffffffffffffffffffff1681565b61044d610688366004614e69565b611724565b61034e611803565b61044d6106a3366004614e9f565b611810565b61044d6106b6366004614e82565b611b8a565b6106ce6106c9366004614e69565b611dd2565b60405161035b919060006080820190508251600d0b8252602083015160060b6020830152604083015160060b604083015263ffffffff606084015116606083015292915050565b610435610723366004614dfc565b611f14565b61049f614e2081565b600c5461075b906d010000000000000000000000000090046cffffffffffffffffffffffffff1681565b6040516cffffffffffffffffffffffffff909116815260200161035b565b61044d610787366004614e69565b611f99565b6201000f546104719073ffffffffffffffffffffffffffffffffffffffff1681565b61049f6103e881565b7f0000000000000000000000000000000000000000000000000000000000000000610583565b61044d6107eb366004614e82565b612078565b6104717f000000000000000000000000000000000000000000000000000000000000000081565b61049f60085481565b61044d61082e366004614e82565b612131565b7f0000000000000000000000000000000000000000000000000000000000000000610471565b61044d610867366004614ec1565b6122ee565b61044d61260d565b61049f610882366004614f38565b600460209081526000928352604080842090915290825290205481565b61049f6108ad366004614f7f565b612775565b600c5461075b906cffffffffffffffffffffffffff1681565b61049f6f4b3b4ca85a86c47a098a22400000000081565b61044d612cdc565b600080546108f79061501e565b80601f01602080910402602001604051908101604052809291908181526020018280546109239061501e565b80156109705780601f1061094557610100808354040283529160200191610970565b820191906000526020600020905b81548152906001019060200180831161095357829003601f168201915b505050505081565b33600081815260046020908152604080832073ffffffffffffffffffffffffffffffffffffffff8716808552925280832085905551919290917f8c5be1e5ebec7d5bd14f71427d1e84f3dd0314c0f7b2291e5b200ac8c7c3b925906109e09086815260200190565b60405180910390a35060015b92915050565b60007fffffffffffffffffffffffffffffffffffffffffffffffffffffffffffffffff60085403610af7576040517f8eaa6ac00000000000000000000000000000000000000000000000000000000081527f00000000000000000000000000000000000000000000000000000000000000006004820152610af2907f000000000000000000000000000000000000000000000000000000000000000073ffffffffffffffffffffffffffffffffffffffff1690638eaa6ac090602401602060405180830381865afa158015610acb573d6000803e3d6000fd5b505050506040513d601f19601f82011682018060405250810190610aef919061506b565b90565b610afb565b6008545b90506007548103610b095750565b614e20811115610b7a576040517f08c379a000000000000000000000000000000000000000000000000000000000815260206004820152601460248201527f52503a20494e56414c49445f535741505f46454500000000000000000000000060448201526064015b60405180910390fd5b6040518181527f829472a12eb635e89660a3fd5efc2b638147cce371274f7185a2cc915bd0dafc9060200160405180910390a1600755565b73ffffffffffffffffffffffffffffffffffffffff831660009081526004602090815260408083203384529091528120547fffffffffffffffffffffffffffffffffffffffffffffffffffffffffffffffff8114610c4657610c1483826150b3565b73ffffffffffffffffffffffffffffffffffffffff861660009081526004602090815260408083203384529091529020555b73ffffffffffffffffffffffffffffffffffffffff851660009081526003602052604081208054859290610c7b9084906150b3565b909155505073ffffffffffffffffffffffffffffffffffffffff808516600081815260036020526040908190208054870190555190918716907fddf252ad1be2c89b69c2b068fc378daa952ba7f163c4a11628f55a4df523b3ef90610ce39087815260200190565b60405180910390a360019150505b9392505050565b6000610d7b610aef6040518060400160405280601481526020017f5368617265643a3a6f7261636c6543616c6c65720000000000000000000000008152507f000000000000000000000000000000000000000000000000000000000000000073ffffffffffffffffffffffffffffffffffffffff16612d4290919063ffffffff16565b6201000f5490915073ffffffffffffffffffffffffffffffffffffffff808316911614610e3b576201000f546040805173ffffffffffffffffffffffffffffffffffffffff928316815291831660208301527f262681b3b01b61ff6d02569759105771205cdd274fb3c45535b50632e0a3523f910160405180910390a16201000f80547fffffffffffffffffffffffff00000000000000000000000000000000000000001673ffffffffffffffffffffffffffffffffffffffff83161790555b50565b60007f00000000000000000000000000000000000000000000000000000000000000004614610e7457610e6f612de6565b905090565b507f000000000000000000000000000000000000000000000000000000000000000090565b3373ffffffffffffffffffffffffffffffffffffffff7f00000000000000000000000000000000000000000000000000000000000000001614610f38576040517f08c379a000000000000000000000000000000000000000000000000000000000815260206004820152600d60248201527f52503a20464f5242494444454e000000000000000000000000000000000000006044820152606401610b71565b806000108015610f4f5750662386f26fc100008111155b610fb5576040517f08c379a000000000000000000000000000000000000000000000000000000000815260206004820152601d60248201527f52503a20494e56414c49445f4348414e47455f5045525f5345434f4e440000006044820152606401610b71565b6201000d5460408051918252602082018390527f807b9f5907da3f00bf587e77bc07247e1c7ff5ae46c93a584b3a075be0b1bac2910160405180910390a16201000d55565b600080600080600061100a612e80565b509296506cffffffffffffffffffffffffff918216955016925090506110308383612f84565b9093509150600061103f613223565b9050600061104b6132f4565b9050600061105986846150b3565b9050600061106786846150b3565b90506110738787613340565b6002546000819003611139576103e861111b61108f84866150c6565b70ffffffffffffffffffffffffffffffffff811160071b81811c68ffffffffffffffffff1060061b1781811c64ffffffffff1060051b1781811c62ffffff1060041b1781811c620100000160b5600192831c1b0260121c80830401811c80830401811c80830401811c80830401811c80830401811c80830401811c80830401901c908190048111900390565b61112591906150b3565b995061113460006103e86134af565b61116e565b61116b8861114783866150c6565b611151919061510c565b8861115c84866150c6565b611166919061510c565b613528565b99505b60008a116111d8576040517f08c379a000000000000000000000000000000000000000000000000000000000815260206004820152601b60248201527f43503a20494e53554646494349454e545f4c49515f4d494e54454400000000006044820152606401610b71565b6111e28b8b6134af565b6111ec84866150c6565b6201001055604080518481526020810184905233917f4c209b5fc8ad50758f13e2e1088ba56a560dff690a1c6fef26394f4c03821c4f910160405180910390a261123a8986868b8b8b61353e565b611242613745565b505050505050505050919050565b60007f000000000000000000000000000000000000000000000000000000000000000073ffffffffffffffffffffffffffffffffffffffff168273ffffffffffffffffffffffffffffffffffffffff1614806112f757507f000000000000000000000000000000000000000000000000000000000000000073ffffffffffffffffffffffffffffffffffffffff168273ffffffffffffffffffffffffffffffffffffffff16145b61135d576040517f08c379a000000000000000000000000000000000000000000000000000000000815260206004820152601660248201527f52503a20494e56414c49445f534b494d5f544f4b454e000000000000000000006044820152606401610b71565b600b546040517fd4fac45d00000000000000000000000000000000000000000000000000000000815230600482015273ffffffffffffffffffffffffffffffffffffffff8481166024830152600092169063d4fac45d906044016020604051808303816000875af11580156113d6573d6000803e3d6000fd5b505050506040513d601f19601f820116820180604052508101906113fa919061506b565b90506cffffffffffffffffffffffffff81111561159e576000611494610aef6040518060400160405280601181526020017f5368617265643a3a7265636f76657265720000000000000000000000000000008152507f000000000000000000000000000000000000000000000000000000000000000073ffffffffffffffffffffffffffffffffffffffff16612d4290919063ffffffff16565b90506114ad6cffffffffffffffffffffffffff836150b3565b600b5490935073ffffffffffffffffffffffffffffffffffffffff16631566d96d7f00000000000000000000000000000000000000000000000000000000000000006040517fffffffff0000000000000000000000000000000000000000000000000000000060e084901b16815273ffffffffffffffffffffffffffffffffffffffff888116921691909114600482015260248101869052604401600060405180830381600087803b15801561156257600080fd5b505af1158015611576573d6000803e3d6000fd5b5061159c9250505073ffffffffffffffffffffffffffffffffffffffff851682856137e2565b505b50919050565b6000806000806000806115b5612e80565b509296506cffffffffffffffffffffffffff918216955016925090506115db8383612f84565b3060009081526003602052604090205491945092506115fa8484613340565b60025480611606613223565b61161090846150c6565b61161a919061510c565b9750806116256132f4565b61162f90846150c6565b611639919061510c565b9650611645308361382b565b6116727f00000000000000000000000000000000000000000000000000000000000000008a8a88886138b9565b61169f7f00000000000000000000000000000000000000000000000000000000000000008a8988886138b9565b60006116a9613223565b905060006116b56132f4565b90506116c181836150c6565b6201001055604080518b8152602081018b905233917f49995e5dd6158cf69ad3e9777c46755a1a826a446c6416992167462dad033b2a910160405180910390a261170f8883838a8a8a61353e565b611717613745565b5050505050505050915091565b3373ffffffffffffffffffffffffffffffffffffffff7f000000000000000000000000000000000000000000000000000000000000000016146117c3576040517f08c379a000000000000000000000000000000000000000000000000000000000815260206004820152600d60248201527f52503a20464f5242494444454e000000000000000000000000000000000000006044820152606401610b71565b6040518181527f0a206ccb05bebde488b6db465d828f44eb7813982d59f228be19c2711d34f2a59060200160405180910390a16008819055610e3b6109f2565b600180546108f79061501e565b600b5473ffffffffffffffffffffffffffffffffffffffff163314611891576040517f08c379a000000000000000000000000000000000000000000000000000000000815260206004820152601460248201527f52503a20415554485f4e4f545f4d414e414745520000000000000000000000006044820152606401610b71565b60008213156119595760006118a583613b13565b600c805491925082916000906118cb9084906cffffffffffffffffffffffffff16615147565b92506101000a8154816cffffffffffffffffffffffffff02191690836cffffffffffffffffffffffffff16021790555061195333826cffffffffffffffffffffffffff166119367f000000000000000000000000000000000000000000000000000000000000000090565b73ffffffffffffffffffffffffffffffffffffffff1691906137e2565b50611a27565b6000821215611a2757600061197561197084615174565b613b13565b600c8054919250829160009061199b9084906cffffffffffffffffffffffffff166151ac565b92506101000a8154816cffffffffffffffffffffffffff02191690836cffffffffffffffffffffffffff160217905550611a253330836cffffffffffffffffffffffffff16611a077f000000000000000000000000000000000000000000000000000000000000000090565b73ffffffffffffffffffffffffffffffffffffffff16929190613bb6565b505b6000811315611ad7576000611a3b82613b13565b905080600c600d8282829054906101000a90046cffffffffffffffffffffffffff16611a679190615147565b92506101000a8154816cffffffffffffffffffffffffff02191690836cffffffffffffffffffffffffff160217905550611ad233826cffffffffffffffffffffffffff166119367f000000000000000000000000000000000000000000000000000000000000000090565b505050565b6000811215611b86576000611aee61197083615174565b905080600c600d8282829054906101000a90046cffffffffffffffffffffffffff16611b1a91906151ac565b92506101000a8154816cffffffffffffffffffffffffff02191690836cffffffffffffffffffffffffff160217905550611ad23330836cffffffffffffffffffffffffff16611a077f000000000000000000000000000000000000000000000000000000000000000090565b5050565b7f000000000000000000000000000000000000000000000000000000000000000073ffffffffffffffffffffffffffffffffffffffff168173ffffffffffffffffffffffffffffffffffffffff1614158015611c3257507f000000000000000000000000000000000000000000000000000000000000000073ffffffffffffffffffffffffffffffffffffffff168173ffffffffffffffffffffffffffffffffffffffff1614155b611c98576040517f08c379a000000000000000000000000000000000000000000000000000000000815260206004820152601c60248201527f52503a20494e56414c49445f544f4b454e5f544f5f5245434f564552000000006044820152606401610b71565b6000611d1b610aef6040518060400160405280601181526020017f5368617265643a3a7265636f76657265720000000000000000000000000000008152507f000000000000000000000000000000000000000000000000000000000000000073ffffffffffffffffffffffffffffffffffffffff16612d4290919063ffffffff16565b6040517f70a0823100000000000000000000000000000000000000000000000000000000815230600482015290915060009073ffffffffffffffffffffffffffffffffffffffff8416906370a0823190602401602060405180830381865afa158015611d8b573d6000803e3d6000fd5b505050506040513d601f19601f82011682018060405250810190611daf919061506b565b9050611ad273ffffffffffffffffffffffffffffffffffffffff841683836137e2565b6040805160808101825260008082526020820181905291810182905260608101919091526201000f5473ffffffffffffffffffffffffffffffffffffffff163314611e79576040517f08c379a000000000000000000000000000000000000000000000000000000000815260206004820152601560248201527f52503a204e4f545f4f5241434c455f43414c4c455200000000000000000000006044820152606401610b71565b600d82620100008110611e8e57611e8e6151d2565b604080516080810182529290910154600d81900b83526e0100000000000000000000000000008104600690810b602085015275010000000000000000000000000000000000000000008204900b9183019190915263ffffffff7c010000000000000000000000000000000000000000000000000000000090910416606082015292915050565b33600090815260036020526040812080548391908390611f359084906150b3565b909155505073ffffffffffffffffffffffffffffffffffffffff8316600081815260036020526040908190208054850190555133907fddf252ad1be2c89b69c2b068fc378daa952ba7f163c4a11628f55a4df523b3ef906109e09086815260200190565b3373ffffffffffffffffffffffffffffffffffffffff7f00000000000000000000000000000000000000000000000000000000000000001614612038576040517f08c379a000000000000000000000000000000000000000000000000000000000815260206004820152600d60248201527f52503a20464f5242494444454e000000000000000000000000000000000000006044820152606401610b71565b6040518181527f27fb2396a71e9486a99b50638f2bae65e1db08352d1d0688a4b3ad9b5d33df139060200160405180910390a1600a819055610e3b61260d565b600080600080612086612e80565b5093506cffffffffffffffffffffffffff1693506cffffffffffffffffffffffffff16935093506120f26120d77f000000000000000000000000000000000000000000000000000000000000000090565b86856120e1613223565b6120eb91906150b3565b86866138b9565b6121207f000000000000000000000000000000000000000000000000000000000000000086846120e16132f4565b61212a8482613c04565b5050505050565b3373ffffffffffffffffffffffffffffffffffffffff7f000000000000000000000000000000000000000000000000000000000000000016146121d0576040517f08c379a000000000000000000000000000000000000000000000000000000000815260206004820152600d60248201527f52503a20464f5242494444454e000000000000000000000000000000000000006044820152606401610b71565b600c546cffffffffffffffffffffffffff1615801561220f5750600c546d010000000000000000000000000090046cffffffffffffffffffffffffff16155b612275576040517f08c379a000000000000000000000000000000000000000000000000000000000815260206004820152601360248201527f52503a20414d5f5354494c4c5f414354495645000000000000000000000000006044820152606401610b71565b600b80547fffffffffffffffffffffffff00000000000000000000000000000000000000001673ffffffffffffffffffffffffffffffffffffffff83169081179091556040519081527f971e020e6300a23a2ec05293a6804d9679d3b305220ec194d1cc7009a4c88a109060200160405180910390a150565b42841015612358576040517f08c379a000000000000000000000000000000000000000000000000000000000815260206004820152601760248201527f5045524d49545f444541444c494e455f455850495245440000000000000000006044820152606401610b71565b60006001612364610e3e565b73ffffffffffffffffffffffffffffffffffffffff8a811660008181526005602090815260409182902080546001810190915582517f6e71edae12b1b97f4d1f60370fef10105fa2faae0126114a169c64845d6126c98184015280840194909452938d166060840152608083018c905260a083019390935260c08083018b90528151808403909101815260e0830190915280519201919091207f190100000000000000000000000000000000000000000000000000000000000061010083015261010282019290925261012281019190915261014201604080517fffffffffffffffffffffffffffffffffffffffffffffffffffffffffffffffe08184030181528282528051602091820120600084529083018083525260ff871690820152606081018590526080810184905260a0016020604051602081039080840390855afa1580156124b6573d6000803e3d6000fd5b50506040517fffffffffffffffffffffffffffffffffffffffffffffffffffffffffffffffe0015191505073ffffffffffffffffffffffffffffffffffffffff81161580159061253157508773ffffffffffffffffffffffffffffffffffffffff168173ffffffffffffffffffffffffffffffffffffffff16145b612597576040517f08c379a000000000000000000000000000000000000000000000000000000000815260206004820152600e60248201527f494e56414c49445f5349474e45520000000000000000000000000000000000006044820152606401610b71565b73ffffffffffffffffffffffffffffffffffffffff90811660009081526004602090815260408083208a8516808552908352928190208990555188815291928a16917f8c5be1e5ebec7d5bd14f71427d1e84f3dd0314c0f7b2291e5b200ac8c7c3b925910160405180910390a350505050505050565b60007fffffffffffffffffffffffffffffffffffffffffffffffffffffffffffffffff600a54036126be576126b9610aef6040518060400160405280601381526020017f5368617265643a3a706c6174666f726d466565000000000000000000000000008152507f000000000000000000000000000000000000000000000000000000000000000073ffffffffffffffffffffffffffffffffffffffff16612d4290919063ffffffff16565b6126c2565b600a545b905060095481036126d05750565b620f424081111561273d576040517f08c379a000000000000000000000000000000000000000000000000000000000815260206004820152601860248201527f52503a20494e56414c49445f504c4154464f524d5f46454500000000000000006044820152606401610b71565b6040518181527f6f9983488bd1500c372d1f10befe9e7790d764b18c848cfa10872f4e248ded929060200160405180910390a1600955565b6000806000806000612785612e80565b5093506cffffffffffffffffffffffffff1693506cffffffffffffffffffffffffff169350935089600003612816576040517f08c379a000000000000000000000000000000000000000000000000000000000815260206004820152600f60248201527f43503a20414d4f554e545f5a45524f00000000000000000000000000000000006044820152606401610b71565b6000808a1561289a5760008c1315612863577f000000000000000000000000000000000000000000000000000000000000000090508b915061285c828686600754613c10565b96506129ea565b7f000000000000000000000000000000000000000000000000000000000000000090508b600003915061285c828587600754613c10565b60008c1315612947578b965084871061290f576040517f08c379a000000000000000000000000000000000000000000000000000000000815260206004820152601260248201527f43503a204e4f545f454e4f5547485f4c495100000000000000000000000000006044820152606401610b71565b7f00000000000000000000000000000000000000000000000000000000000000009050612940878587600754613d4c565b91506129ea565b8b60000396508387106129b6576040517f08c379a000000000000000000000000000000000000000000000000000000000815260206004820152601260248201527f43503a204e4f545f454e4f5547485f4c495100000000000000000000000000006044820152606401610b71565b7f000000000000000000000000000000000000000000000000000000000000000090506129e7878686600754613d4c565b91505b6129f7818b8988886138b9565b8715612b355773ffffffffffffffffffffffffffffffffffffffff8a16634fc7c217337f000000000000000000000000000000000000000000000000000000000000000073ffffffffffffffffffffffffffffffffffffffff168473ffffffffffffffffffffffffffffffffffffffff1614612a7b57612a7685615174565b612a7d565b895b7f000000000000000000000000000000000000000000000000000000000000000073ffffffffffffffffffffffffffffffffffffffff168573ffffffffffffffffffffffffffffffffffffffff1614612ade57612ad986615174565b612ae0565b8a5b8d8d6040518663ffffffff1660e01b8152600401612b02959493929190615201565b600060405180830381600087803b158015612b1c57600080fd5b505af1158015612b30573d6000803e3d6000fd5b505050505b6000612b3f613223565b90506000612b4b6132f4565b905060007f000000000000000000000000000000000000000000000000000000000000000073ffffffffffffffffffffffffffffffffffffffff168473ffffffffffffffffffffffffffffffffffffffff1614612bb157612bac88846150b3565b612bbb565b612bbb87836150b3565b905080851115612c27576040517f08c379a000000000000000000000000000000000000000000000000000000000815260206004820152601a60248201527f43503a20494e53554646494349454e545f414d4f554e545f494e0000000000006044820152606401610b71565b612c358984848b8b8b61353e565b73ffffffffffffffffffffffffffffffffffffffff8d16337f66251e495e6e69e208ab08e2bc259dbe2ef482a8c4a93b8984b03a1eb27e1b9e7f00000000000000000000000000000000000000000000000000000000000000006040805173ffffffffffffffffffffffffffffffffffffffff8a811693169290921482526020820186905281018e905260600160405180910390a350505050505050505095945050505050565b600080600080612cea612e80565b5093506cffffffffffffffffffffffffff1693506cffffffffffffffffffffffffff1693509350612d1b8383612f84565b9093509150612d3c84612d2c613223565b612d346132f4565b86868661353e565b50505050565b60008273ffffffffffffffffffffffffffffffffffffffff16638eaa6ac083604051602001612d719190615279565b604051602081830303815290604052805190602001206040518263ffffffff1660e01b8152600401612da591815260200190565b602060405180830381865afa158015612dc2573d6000803e3d6000fd5b505050506040513d601f19601f82011682018060405250810190610cf1919061506b565b60007f8b73c3c69bb8fe3d512ecc4cf759cc79239f7b179b0ffacaa9a75d522b39400f6000604051612e189190615295565b6040805191829003822060208301939093528101919091527fc89efdaa54c0f20c7adf612882df0950f5a951637e0307cdcb4c672f298b8bc660608201524660808201523060a082015260c00160405160208183030381529060405280519060200120905090565b600680546000916cffffffffffffffffffffffffff808316926d0100000000000000000000000000810490911691637fffffff7a0100000000000000000000000000000000000000000000000000008304908116927e01000000000000000000000000000000000000000000000000000000000000900461ffff169190601f1c6001908116148015612f6e576040517f08c379a000000000000000000000000000000000000000000000000000000000815260206004820152600a60248201527f5245454e5452414e4359000000000000000000000000000000000000000000006044820152606401610b71565b612f7a82856001613e8e565b5094509091929394565b600b54600090819073ffffffffffffffffffffffffffffffffffffffff16612fb057508290508161321c565b60007f0000000000000000000000000000000000000000000000000000000000000000905060007f0000000000000000000000000000000000000000000000000000000000000000600b546040517fd4fac45d00000000000000000000000000000000000000000000000000000000815230600482015273ffffffffffffffffffffffffffffffffffffffff85811660248301529293506000929091169063d4fac45d906044016020604051808303816000875af1158015613076573d6000803e3d6000fd5b505050506040513d601f19601f8201168201806040525081019061309a919061506b565b600b546040517fd4fac45d00000000000000000000000000000000000000000000000000000000815230600482015273ffffffffffffffffffffffffffffffffffffffff85811660248301529293506000929091169063d4fac45d906044016020604051808303816000875af1158015613118573d6000803e3d6000fd5b505050506040513d601f19601f8201168201806040525081019061313c919061506b565b600c5490915061315f9085908a906cffffffffffffffffffffffffff1685613ef8565b600c5490965061319390849089906d010000000000000000000000000090046cffffffffffffffffffffffffff1684613ef8565b945061319e82613b13565b600c80547fffffffffffffffffffffffffffffffffffffff00000000000000000000000000166cffffffffffffffffffffffffff929092169190911790556131e581613b13565b600c600d6101000a8154816cffffffffffffffffffffffffff02191690836cffffffffffffffffffffffffff160217905550505050505b9250929050565b600c546000906cffffffffffffffffffffffffff167f00000000000000000000000000000000000000000000000000000000000000005b6040517f70a0823100000000000000000000000000000000000000000000000000000000815230600482015273ffffffffffffffffffffffffffffffffffffffff91909116906370a0823190602401602060405180830381865afa1580156132c6573d6000803e3d6000fd5b505050506040513d601f19601f820116820180604052508101906132ea919061506b565b610e6f919061536b565b600c546000906d010000000000000000000000000090046cffffffffffffffffffffffffff167f000000000000000000000000000000000000000000000000000000000000000061325a565b60095415801590611ad25760006133e1620100105470ffffffffffffffffffffffffffffffffff811160071b81811c68ffffffffffffffffff1060061b1781811c64ffffffffff1060051b1781811c62ffffff1060041b1781811c620100000160b5600192831c1b0260121c80830401811c80830401811c80830401811c80830401811c80830401811c80830401811c80830401901c908190048111900390565b905060006133f261108f85876150c6565b90508181111561212a57600061340e8284600954600254613fed565b905080156134a7576000613499610aef6040518060400160405280601581526020017f5368617265643a3a706c6174666f726d466565546f00000000000000000000008152507f000000000000000000000000000000000000000000000000000000000000000073ffffffffffffffffffffffffffffffffffffffff16612d4290919063ffffffff16565b90506134a581836134af565b505b505050505050565b80600260008282546134c1919061536b565b909155505073ffffffffffffffffffffffffffffffffffffffff82166000818152600360209081526040808320805486019055518481527fddf252ad1be2c89b69c2b068fc378daa952ba7f163c4a11628f55a4df523b3ef91015b60405180910390a35050565b60008183106135375781610cf1565b5090919050565b6cffffffffffffffffffffffffff851180159061356857506cffffffffffffffffffffffffff8411155b6135ce576040517f08c379a000000000000000000000000000000000000000000000000000000000815260206004820152600c60248201527f52503a204f564552464c4f5700000000000000000000000000000000000000006044820152606401610b71565b6cffffffffffffffffffffffffff83118015906135f857506cffffffffffffffffffffffffff8211155b61365e576040517f08c379a000000000000000000000000000000000000000000000000000000000815260206004820152600c60248201527f52503a204f564552464c4f5700000000000000000000000000000000000000006044820152606401610b71565b637fffffff421681810363ffffffff81161580159061367c57508415155b801561368757508315155b156136985761369885858386614096565b87546cffffffffffffffffffffffffff8781166d0100000000000000000000000000027fffffffffffff0000000000000000000000000000000000000000000000000000909216908916171788556136f288836000613e8e565b604080516cffffffffffffffffffffffffff808a168252881660208201527fff388a12130349259b5ae24af90448f511c2340be808f2c371230fc2da175c44910160405180910390a15050505050505050565b600b5473ffffffffffffffffffffffffffffffffffffffff1661376457565b600b60009054906101000a900473ffffffffffffffffffffffffffffffffffffffff1673ffffffffffffffffffffffffffffffffffffffff1663016312bd6040518163ffffffff1660e01b8152600401600060405180830381600087803b1580156137ce57600080fd5b505af1158015612d3c573d6000803e3d6000fd5b81601a5280603a5269a9059cbb00000000000060005260206000604460166000875af13d156001600051141716613821576390b8ec186000526004601cfd5b6000603a52505050565b73ffffffffffffffffffffffffffffffffffffffff8216600090815260036020526040812080548392906138609084906150b3565b909155505060028054829003905560405181815260009073ffffffffffffffffffffffffffffffffffffffff8416907fddf252ad1be2c89b69c2b068fc378daa952ba7f163c4a11628f55a4df523b3ef9060200161351c565b6138c4858585614382565b61212a5760007f000000000000000000000000000000000000000000000000000000000000000073ffffffffffffffffffffffffffffffffffffffff168673ffffffffffffffffffffffffffffffffffffffff1614905060008161394a57600c546d010000000000000000000000000090046cffffffffffffffffffffffffff1661395d565b600c546cffffffffffffffffffffffffff165b6cffffffffffffffffffffffffff16905060008261397b578361397d565b845b90508561398a83836150b3565b1015613aa757600b5473ffffffffffffffffffffffffffffffffffffffff16631566d96d846139b985856150b3565b6139c3908a6150b3565b6040517fffffffff0000000000000000000000000000000000000000000000000000000060e085901b16815291151560048301526024820152604401600060405180830381600087803b158015613a1957600080fd5b505af1158015613a2d573d6000803e3d6000fd5b50505050613a3c888888614382565b613aa2576040517f08c379a000000000000000000000000000000000000000000000000000000000815260206004820152601360248201527f52503a205452414e534645525f4641494c4544000000000000000000000000006044820152606401610b71565b613b09565b6040517f08c379a000000000000000000000000000000000000000000000000000000000815260206004820152601360248201527f52503a205452414e534645525f4641494c4544000000000000000000000000006044820152606401610b71565b5050505050505050565b60006cffffffffffffffffffffffffff821115613bb2576040517f08c379a000000000000000000000000000000000000000000000000000000000815260206004820152602760248201527f53616665436173743a2076616c756520646f65736e27742066697420696e203160448201527f30342062697473000000000000000000000000000000000000000000000000006064820152608401610b71565b5090565b6040516323b872dd600052836020528260405281606052602060006064601c6000895af13d156001600051141716613bf657637939f4246000526004601cfd5b600060605260405250505050565b611b8682826000613e8e565b6000808511613c7b576040517f08c379a000000000000000000000000000000000000000000000000000000000815260206004820152601d60248201527f43503a20494e53554646494349454e545f494e5055545f414d4f554e540000006044820152606401610b71565b600084118015613c8b5750600083115b613cf1576040517f08c379a000000000000000000000000000000000000000000000000000000000815260206004820152601a60248201527f43503a20494e53554646494349454e545f4c49515549444954590000000000006044820152606401610b71565b6000613d0083620f42406150b3565b613d0a90876150c6565b90506000613d1885836150c6565b9050600082613d2a620f4240896150c6565b613d34919061536b565b9050613d40818361510c565b98975050505050505050565b6000808511613db7576040517f08c379a000000000000000000000000000000000000000000000000000000000815260206004820152601e60248201527f43503a20494e53554646494349454e545f4f55545055545f414d4f554e5400006044820152606401610b71565b600084118015613dc75750600083115b613e2d576040517f08c379a000000000000000000000000000000000000000000000000000000000815260206004820152601a60248201527f43503a20494e53554646494349454e545f4c49515549444954590000000000006044820152606401610b71565b6000620f4240613e3d87876150c6565b613e4791906150c6565b90506000613e5884620f42406150b3565b613e6288876150b3565b613e6c91906150c6565b9050613e78818361510c565b613e8390600161536b565b979650505050505050565b600081613e9c576000613ea2565b63800000005b84547fffff00000000ffffffffffffffffffffffffffffffffffffffffffffffffffff167a0100000000000000000000000000000000000000000000000000009190941763ffffffff1602929092179092555050565b600082821115613f72576000613f0e84846150b3565b6040805173ffffffffffffffffffffffffffffffffffffffff89168152602081018390529192507f5314098314219d6e1ce8e41fc5e6ec1ce2f06a9d583079fb6619af9bf6efdf41910160405180910390a1613f6a818661536b565b915050613fe5565b82821015613fe2576000613f8683856150b3565b6040805173ffffffffffffffffffffffffffffffffffffffff89168152602081018390529192507f72fba0ba07d937c660a3130fca36005c0e476cb97b6f00de413976e37eba9501910160405180910390a1613f6a81866150b3565b50825b949350505050565b600080846f4b3b4ca85a86c47a098a224000000000870281614011576140116150dd565b0490506000817f161bcca7119915b50764b4abe86529797775a5f171951000000000000000000081614045576140456150dd565b046f4b3b4ca85a86c47a098a2240000000000390506000620f4240868302049050806f4b3b4ca85a86c47a098a2240000000000385820281614089576140896150dd565b0498975050505050505050565b600654600090600d907e01000000000000000000000000000000000000000000000000000000000000900461ffff166201000081106140d7576140d76151d2565b01905060008061415d61411c6fffffffffffffffffffffffffffffffff7f000000000000000000000000000000000000000000000000000000000000000016896150c6565b6141586fffffffffffffffffffffffffffffffff7f000000000000000000000000000000000000000000000000000000000000000016896150c6565b6144f2565b91509150600080614179846201000e548963ffffffff16614518565b9150915060006141898a8a6145f8565b9050826201000e8190555060008863ffffffff1685028760000160009054906101000a9004600d0b01905060008963ffffffff16840288600001600e9054906101000a900460060b01905060008a63ffffffff1684028960000160159054906101000a900460060b01905060016006600001601e8282829054906101000a900461ffff160192506101000a81548161ffff021916908361ffff160217905550604051806080016040528084600d0b81526020018360060b81526020018260060b81526020018b63ffffffff16815250600d6006600001601e9054906101000a900461ffff1661ffff16620100008110614284576142846151d2565b825191018054602084015160408501516060909501516dffffffffffffffffffffffffffff9094167fffffffffffffffffffffff000000000000000000000000000000000000000000909216919091176e01000000000000000000000000000066ffffffffffffff928316021774ffffffffffffffffffffffffffffffffffffffffff16750100000000000000000000000000000000000000000091909416027bffffffffffffffffffffffffffffffffffffffffffffffffffffffff16929092177c010000000000000000000000000000000000000000000000000000000063ffffffff9092169190910217905550505050505050505050505050565b60008060008573ffffffffffffffffffffffffffffffffffffffff167fa9059cbb2ab09eb219583f4a59a5d0623ade346d962bcd4e46b11da047c9049b86866040516024016143f392919073ffffffffffffffffffffffffffffffffffffffff929092168252602082015260400190565b604080517fffffffffffffffffffffffffffffffffffffffffffffffffffffffffffffffe08184030181529181526020820180517bffffffffffffffffffffffffffffffffffffffffffffffffffffffff167fffffffff0000000000000000000000000000000000000000000000000000000090941693909317909252905161447c9190615279565b6000604051808303816000865af19150503d80600081146144b9576040519150601f19603f3d011682016040523d82523d6000602084013e6144be565b606091505b50915091508180156144e85750805115806144e85750808060200190518101906144e8919061537e565b9695505050505050565b6000806144ff838561461e565b9150600061450c83614675565b92959294509192505050565b60008083600003614536578461452d86614675565b915091506145f0565b826201000d5461454691906150c6565b61455086866146b5565b11156145e1578385111561459a57614593836201000d5461457191906150c6565b61458390670de0b6b3a764000061536b565b8590670de0b6b3a76400006146e1565b91506145d1565b8484116145a9576145a961539b565b6145ce836201000d546145bc91906150c6565b61458390670de0b6b3a76400006150b3565b91505b6145da82614675565b90506145f0565b8491506145ed85614675565b90505b935093915050565b60008061460861108f84866150c6565b9050600061461582614675565b95945050505050565b60007812725dd1d243aba0e75fe645cc4873f9e65afe688c928e1f218311670de0b6b3a76400000215820261465b57637c5f487d6000526004601cfd5b50670de0b6b3a76400009190910281810615159190040190565b600080614681836147ae565b9050600080821361469a57652d79883d200082036146a4565b652d79883d200082015b655af3107a40009005949350505050565b6000806146c2848461486b565b9050826146d7670de0b6b3a7640000836150c6565b613fe5919061510c565b60008383027fffffffffffffffffffffffffffffffffffffffffffffffffffffffffffffffff848609818110820190038061473457836147295763ae47f7026000526004601cfd5b508290049050610cf1565b8084116147495763ae47f7026000526004601cfd5b838587096000858103861695869004956003870260029081188089028203028089028203028089028203028089028203028089028203028089029091030291819003819004600101858411909403939093029190930391909104170290509392505050565b6000808213614819576040517f08c379a000000000000000000000000000000000000000000000000000000000815260206004820152601160248201527f454d3a204f55545f4f465f424f554e44530000000000000000000000000000006044820152606401610b71565b670c7d713b49da0000821380156148375750670f43fc2c04ee000082125b1561486257670de0b6b3a764000061484e83614882565b8161485b5761485b6150dd565b0592915050565b6109ec826149ba565b600081831161487c57828203610cf1565b50900390565b670de0b6b3a7640000026000806ec097ce7bc90715b34b9f1000000000808401907fffffffffffffffffffffffffffffffffff3f68318436f8ea4cb460f000000000850102816148d4576148d46150dd565b05905060006ec097ce7bc90715b34b9f100000000082800205905081806ec097ce7bc90715b34b9f100000000081840205915060038205016ec097ce7bc90715b34b9f100000000082840205915060058205016ec097ce7bc90715b34b9f100000000082840205915060078205016ec097ce7bc90715b34b9f100000000082840205915060098205016ec097ce7bc90715b34b9f1000000000828402059150600b8205016ec097ce7bc90715b34b9f1000000000828402059150600d8205016ec097ce7bc90715b34b9f1000000000828402059150600f82050160020295945050505050565b6000670de0b6b3a76400008212156149fc576149f3826ec097ce7bc90715b34b9f1000000000816149ed576149ed6150dd565b056149ba565b60000392915050565b60007e1600ef3172e58d2e933ec884fde10064c63b5372d805e203c00000000000008312614a4d57770195e54c5dd42177f53a27172fa9ec630262827000000000830592506806f05b59d3b2000000015b73011798004d755d3c8bc8e03204cf44619e0000008312614a85576b1425982cf597cd205cef7380830592506803782dace9d9000000015b606492830292026e01855144814a7ff805980ff00840008312614acd576e01855144814a7ff805980ff008400068056bc75e2d63100000840205925068ad78ebc5ac62000000015b6b02df0ab5a80a22c61ab5a7008312614b08576b02df0ab5a80a22c61ab5a70068056bc75e2d6310000084020592506856bc75e2d631000000015b693f1fce3da636ea5cf8508312614b3f57693f1fce3da636ea5cf85068056bc75e2d631000008402059250682b5e3af16b18800000015b690127fa27722cc06cc5e28312614b7657690127fa27722cc06cc5e268056bc75e2d6310000084020592506815af1d78b58c400000015b68280e60114edb805d038312614bab5768280e60114edb805d0368056bc75e2d631000008402059250680ad78ebc5ac6200000015b680ebc5fb417461211108312614bd657680ebc5fb4174612111068056bc75e2d631000009384020592015b6808f00f760a4b2db55d8312614c0b576808f00f760a4b2db55d68056bc75e2d6310000084020592506802b5e3af16b1880000015b6806f5f17757889379378312614c40576806f5f177578893793768056bc75e2d63100000840205925068015af1d78b58c40000015b6806248f33704b2866038312614c74576806248f33704b28660368056bc75e2d63100000840205925067ad78ebc5ac620000015b6805c548670b9510e7ac8312614ca8576805c548670b9510e7ac68056bc75e2d6310000084020592506756bc75e2d6310000015b600068056bc75e2d63100000840168056bc75e2d631000008086030281614cd157614cd16150dd565b059050600068056bc75e2d63100000828002059050818068056bc75e2d63100000818402059150600382050168056bc75e2d63100000828402059150600582050168056bc75e2d63100000828402059150600782050168056bc75e2d63100000828402059150600982050168056bc75e2d63100000828402059150600b820501600202606485820105979650505050505050565b60005b83811015614d80578181015183820152602001614d68565b50506000910152565b6020815260008251806020840152614da8816040850160208701614d65565b601f017fffffffffffffffffffffffffffffffffffffffffffffffffffffffffffffffe0169190910160400192915050565b73ffffffffffffffffffffffffffffffffffffffff81168114610e3b57600080fd5b60008060408385031215614e0f57600080fd5b8235614e1a81614dda565b946020939093013593505050565b600080600060608486031215614e3d57600080fd5b8335614e4881614dda565b92506020840135614e5881614dda565b929592945050506040919091013590565b600060208284031215614e7b57600080fd5b5035919050565b600060208284031215614e9457600080fd5b8135610cf181614dda565b60008060408385031215614eb257600080fd5b50508035926020909101359150565b600080600080600080600060e0888a031215614edc57600080fd5b8735614ee781614dda565b96506020880135614ef781614dda565b95506040880135945060608801359350608088013560ff81168114614f1b57600080fd5b9699959850939692959460a0840135945060c09093013592915050565b60008060408385031215614f4b57600080fd5b8235614f5681614dda565b91506020830135614f6681614dda565b809150509250929050565b8015158114610e3b57600080fd5b600080600080600060808688031215614f9757600080fd5b853594506020860135614fa981614f71565b93506040860135614fb981614dda565b9250606086013567ffffffffffffffff80821115614fd657600080fd5b818801915088601f830112614fea57600080fd5b813581811115614ff957600080fd5b89602082850101111561500b57600080fd5b9699959850939650602001949392505050565b600181811c9082168061503257607f821691505b60208210810361159e577f4e487b7100000000000000000000000000000000000000000000000000000000600052602260045260246000fd5b60006020828403121561507d57600080fd5b5051919050565b7f4e487b7100000000000000000000000000000000000000000000000000000000600052601160045260246000fd5b818103818111156109ec576109ec615084565b80820281158282048414176109ec576109ec615084565b7f4e487b7100000000000000000000000000000000000000000000000000000000600052601260045260246000fd5b600082615142577f4e487b7100000000000000000000000000000000000000000000000000000000600052601260045260246000fd5b500490565b6cffffffffffffffffffffffffff81811683821601908082111561516d5761516d615084565b5092915050565b60007f800000000000000000000000000000000000000000000000000000000000000082036151a5576151a5615084565b5060000390565b6cffffffffffffffffffffffffff82811682821603908082111561516d5761516d615084565b7f4e487b7100000000000000000000000000000000000000000000000000000000600052603260045260246000fd5b73ffffffffffffffffffffffffffffffffffffffff8616815284602082015283604082015260806060820152816080820152818360a0830137600081830160a090810191909152601f9092017fffffffffffffffffffffffffffffffffffffffffffffffffffffffffffffffe0160101949350505050565b6000825161528b818460208701614d65565b9190910192915050565b600080835481600182811c9150808316806152b157607f831692505b602080841082036152e9577f4e487b710000000000000000000000000000000000000000000000000000000086526022600452602486fd5b8180156152fd57600181146153305761535d565b7fffffffffffffffffffffffffffffffffffffffffffffffffffffffffffffff008616895284151585028901965061535d565b60008a81526020902060005b868110156153555781548b82015290850190830161533c565b505084890196505b509498975050505050505050565b808201808211156109ec576109ec615084565b60006020828403121561539057600080fd5b8151610cf181614f71565b7f4e487b7100000000000000000000000000000000000000000000000000000000600052600160045260246000fdfea264697066735822122087b56fa3e1533b0a6a3833bf0f44bf298b53d3cd59cd00e1d39c1a38eb30aefb64736f6c63430008130033",
    "linkReferences": {}
  },
  "methodIdentifiers": {
    "ACCURACY()": "fbcd9b05",
    "DOMAIN_SEPARATOR()": "3644e515",
    "FEE_ACCURACY()": "db6488dc",
    "MAX_PLATFORM_FEE()": "3998a681",
    "MAX_SWAP_FEE()": "ab3d8544",
    "MINIMUM_LIQUIDITY()": "ba9a7a56",
    "SQUARED_ACCURACY()": "48ee4332",
    "adjustManagement(int256,int256)": "97e37764",
    "allowance(address,address)": "dd62ed3e",
    "approve(address,uint256)": "095ea7b3",
    "assetManager()": "94217ad1",
    "balanceOf(address)": "70a08231",
    "burn(address)": "89afcb44",
    "customPlatformFee()": "7c3cbc7c",
    "customSwapFee()": "c58771ef",
    "decimals()": "313ce567",
    "factory()": "c45a0155",
    "getReserves()": "0902f1ac",
    "kLast()": "7464fc3d",
    "maxChangeRate()": "85faf624",
    "mint(address)": "6a627842",
    "name()": "06fdde03",
    "nonces(address)": "7ecebe00",
    "observation(uint256)": "9d62a694",
    "oracleCaller()": "b62221e0",
    "permit(address,address,uint256,uint256,uint8,bytes32,bytes32)": "d505accf",
    "platformFee()": "26232a2e",
    "prevClampedPrice()": "495bc0fb",
    "recoverToken(address)": "9be65a60",
    "setCustomPlatformFee(uint256)": "afb4a43b",
    "setCustomSwapFee(uint256)": "9568e73b",
    "setManager(address)": "d0ebdbe7",
    "setMaxChangeRate(uint256)": "4dfa1ff9",
    "skim(address)": "bc25cf77",
    "skimExcessManaged(address)": "7aec721b",
    "swap(int256,bool,address,bytes)": "e12bd9d8",
    "swapFee()": "54cf2aeb",
    "symbol()": "95d89b41",
    "sync()": "fff6cae9",
    "token0()": "0dfe1681",
    "token0Managed()": "e9bdf7b8",
    "token0PrecisionMultiplier()": "baa8c7cb",
    "token1()": "d21220a7",
    "token1Managed()": "ad7853e9",
    "token1PrecisionMultiplier()": "4e25dc47",
    "totalSupply()": "18160ddd",
    "transfer(address,uint256)": "a9059cbb",
    "transferFrom(address,address,uint256)": "23b872dd",
    "updateOracleCaller()": "31c49074",
    "updatePlatformFee()": "dbc781bc",
    "updateSwapFee()": "0c472afd"
  },
  "id": 40
}