{"abi":[{"type":"constructor","inputs":[{"name":"aToken0","type":"address","internalType":"contract IERC20"},{"name":"aToken1","type":"address","internalType":"contract IERC20"}],"stateMutability":"nonpayable"},{"type":"function","name":"ACCURACY","inputs":[],"outputs":[{"name":"","type":"uint256","internalType":"uint256"}],"stateMutability":"view"},{"type":"function","name":"DOMAIN_SEPARATOR","inputs":[],"outputs":[{"name":"result","type":"bytes32","internalType":"bytes32"}],"stateMutability":"view"},{"type":"function","name":"FEE_ACCURACY","inputs":[],"outputs":[{"name":"","type":"uint256","internalType":"uint256"}],"stateMutability":"view"},{"type":"function","name":"MAX_PLATFORM_FEE","inputs":[],"outputs":[{"name":"","type":"uint256","internalType":"uint256"}],"stateMutability":"view"},{"type":"function","name":"MAX_SWAP_FEE","inputs":[],"outputs":[{"name":"","type":"uint256","internalType":"uint256"}],"stateMutability":"view"},{"type":"function","name":"MINIMUM_LIQUIDITY","inputs":[],"outputs":[{"name":"","type":"uint256","internalType":"uint256"}],"stateMutability":"view"},{"type":"function","name":"SQUARED_ACCURACY","inputs":[],"outputs":[{"name":"","type":"uint256","internalType":"uint256"}],"stateMutability":"view"},{"type":"function","name":"_observations","inputs":[{"name":"","type":"uint256","internalType":"uint256"}],"outputs":[{"name":"logInstantRawPrice","type":"int24","internalType":"int24"},{"name":"logInstantClampedPrice","type":"int24","internalType":"int24"},{"name":"logAccRawPrice","type":"int88","internalType":"int88"},{"name":"logAccClampedPrice","type":"int88","internalType":"int88"},{"name":"timestamp","type":"uint32","internalType":"uint32"}],"stateMutability":"view"},{"type":"function","name":"adjustManagement","inputs":[{"name":"aToken0Change","type":"int256","internalType":"int256"},{"name":"aToken1Change","type":"int256","internalType":"int256"}],"outputs":[],"stateMutability":"nonpayable"},{"type":"function","name":"allowance","inputs":[{"name":"owner","type":"address","internalType":"address"},{"name":"spender","type":"address","internalType":"address"}],"outputs":[{"name":"result","type":"uint256","internalType":"uint256"}],"stateMutability":"view"},{"type":"function","name":"approve","inputs":[{"name":"spender","type":"address","internalType":"address"},{"name":"amount","type":"uint256","internalType":"uint256"}],"outputs":[{"name":"","type":"bool","internalType":"bool"}],"stateMutability":"nonpayable"},{"type":"function","name":"assetManager","inputs":[],"outputs":[{"name":"","type":"address","internalType":"contract IAssetManager"}],"stateMutability":"view"},{"type":"function","name":"balanceOf","inputs":[{"name":"owner","type":"address","internalType":"address"}],"outputs":[{"name":"result","type":"uint256","internalType":"uint256"}],"stateMutability":"view"},{"type":"function","name":"burn","inputs":[{"name":"aTo","type":"address","internalType":"address"}],"outputs":[{"name":"rAmount0","type":"uint256","internalType":"uint256"},{"name":"rAmount1","type":"uint256","internalType":"uint256"}],"stateMutability":"nonpayable"},{"type":"function","name":"customPlatformFee","inputs":[],"outputs":[{"name":"","type":"uint256","internalType":"uint256"}],"stateMutability":"view"},{"type":"function","name":"customSwapFee","inputs":[],"outputs":[{"name":"","type":"uint256","internalType":"uint256"}],"stateMutability":"view"},{"type":"function","name":"decimals","inputs":[],"outputs":[{"name":"","type":"uint8","internalType":"uint8"}],"stateMutability":"view"},{"type":"function","name":"factory","inputs":[],"outputs":[{"name":"","type":"address","internalType":"contract IGenericFactory"}],"stateMutability":"view"},{"type":"function","name":"getReserves","inputs":[],"outputs":[{"name":"rReserve0","type":"uint104","internalType":"uint104"},{"name":"rReserve1","type":"uint104","internalType":"uint104"},{"name":"rBlockTimestampLast","type":"uint32","internalType":"uint32"},{"name":"rIndex","type":"uint16","internalType":"uint16"}],"stateMutability":"view"},{"type":"function","name":"kLast","inputs":[],"outputs":[{"name":"","type":"uint256","internalType":"uint256"}],"stateMutability":"view"},{"type":"function","name":"maxChangePerTrade","inputs":[],"outputs":[{"name":"","type":"uint128","internalType":"uint128"}],"stateMutability":"view"},{"type":"function","name":"maxChangeRate","inputs":[],"outputs":[{"name":"","type":"uint128","internalType":"uint128"}],"stateMutability":"view"},{"type":"function","name":"mint","inputs":[{"name":"aTo","type":"address","internalType":"address"}],"outputs":[{"name":"rLiquidity","type":"uint256","internalType":"uint256"}],"stateMutability":"nonpayable"},{"type":"function","name":"name","inputs":[],"outputs":[{"name":"","type":"string","internalType":"string"}],"stateMutability":"pure"},{"type":"function","name":"nonces","inputs":[{"name":"owner","type":"address","internalType":"address"}],"outputs":[{"name":"result","type":"uint256","internalType":"uint256"}],"stateMutability":"view"},{"type":"function","name":"observation","inputs":[{"name":"aIndex","type":"uint256","internalType":"uint256"}],"outputs":[{"name":"","type":"tuple","internalType":"struct Observation","components":[{"name":"logInstantRawPrice","type":"int24","internalType":"int24"},{"name":"logInstantClampedPrice","type":"int24","internalType":"int24"},{"name":"logAccRawPrice","type":"int88","internalType":"int88"},{"name":"logAccClampedPrice","type":"int88","internalType":"int88"},{"name":"timestamp","type":"uint32","internalType":"uint32"}]}],"stateMutability":"view"},{"type":"function","name":"permit","inputs":[{"name":"owner","type":"address","internalType":"address"},{"name":"spender","type":"address","internalType":"address"},{"name":"value","type":"uint256","internalType":"uint256"},{"name":"deadline","type":"uint256","internalType":"uint256"},{"name":"v","type":"uint8","internalType":"uint8"},{"name":"r","type":"bytes32","internalType":"bytes32"},{"name":"s","type":"bytes32","internalType":"bytes32"}],"outputs":[],"stateMutability":"nonpayable"},{"type":"function","name":"platformFee","inputs":[],"outputs":[{"name":"","type":"uint256","internalType":"uint256"}],"stateMutability":"view"},{"type":"function","name":"recoverToken","inputs":[{"name":"aToken","type":"address","internalType":"contract IERC20"}],"outputs":[],"stateMutability":"nonpayable"},{"type":"function","name":"setClampParams","inputs":[{"name":"aMaxChangeRate","type":"uint128","internalType":"uint128"},{"name":"aMaxChangePerTrade","type":"uint128","internalType":"uint128"}],"outputs":[],"stateMutability":"nonpayable"},{"type":"function","name":"setCustomPlatformFee","inputs":[{"name":"aCustomPlatformFee","type":"uint256","internalType":"uint256"}],"outputs":[],"stateMutability":"nonpayable"},{"type":"function","name":"setCustomSwapFee","inputs":[{"name":"aCustomSwapFee","type":"uint256","internalType":"uint256"}],"outputs":[],"stateMutability":"nonpayable"},{"type":"function","name":"setManager","inputs":[{"name":"manager","type":"address","internalType":"contract IAssetManager"}],"outputs":[],"stateMutability":"nonpayable"},{"type":"function","name":"skim","inputs":[{"name":"aTo","type":"address","internalType":"address"}],"outputs":[],"stateMutability":"nonpayable"},{"type":"function","name":"skimExcessManaged","inputs":[{"name":"aToken","type":"address","internalType":"contract IERC20"}],"outputs":[{"name":"rAmtSkimmed","type":"uint256","internalType":"uint256"}],"stateMutability":"nonpayable"},{"type":"function","name":"swap","inputs":[{"name":"aAmount","type":"int256","internalType":"int256"},{"name":"aExactIn","type":"bool","internalType":"bool"},{"name":"aTo","type":"address","internalType":"address"},{"name":"aData","type":"bytes","internalType":"bytes"}],"outputs":[{"name":"rAmountOut","type":"uint256","internalType":"uint256"}],"stateMutability":"nonpayable"},{"type":"function","name":"swapFee","inputs":[],"outputs":[{"name":"","type":"uint256","internalType":"uint256"}],"stateMutability":"view"},{"type":"function","name":"symbol","inputs":[],"outputs":[{"name":"","type":"string","internalType":"string"}],"stateMutability":"pure"},{"type":"function","name":"sync","inputs":[],"outputs":[],"stateMutability":"nonpayable"},{"type":"function","name":"token0","inputs":[],"outputs":[{"name":"","type":"address","internalType":"contract IERC20"}],"stateMutability":"view"},{"type":"function","name":"token0Managed","inputs":[],"outputs":[{"name":"","type":"uint104","internalType":"uint104"}],"stateMutability":"view"},{"type":"function","name":"token0PrecisionMultiplier","inputs":[],"outputs":[{"name":"","type":"uint128","internalType":"uint128"}],"stateMutability":"view"},{"type":"function","name":"token1","inputs":[],"outputs":[{"name":"","type":"address","internalType":"contract IERC20"}],"stateMutability":"view"},{"type":"function","name":"token1Managed","inputs":[],"outputs":[{"name":"","type":"uint104","internalType":"uint104"}],"stateMutability":"view"},{"type":"function","name":"token1PrecisionMultiplier","inputs":[],"outputs":[{"name":"","type":"uint128","internalType":"uint128"}],"stateMutability":"view"},{"type":"function","name":"totalSupply","inputs":[],"outputs":[{"name":"result","type":"uint256","internalType":"uint256"}],"stateMutability":"view"},{"type":"function","name":"transfer","inputs":[{"name":"to","type":"address","internalType":"address"},{"name":"amount","type":"uint256","internalType":"uint256"}],"outputs":[{"name":"","type":"bool","internalType":"bool"}],"stateMutability":"nonpayable"},{"type":"function","name":"transferFrom","inputs":[{"name":"from","type":"address","internalType":"address"},{"name":"to","type":"address","internalType":"address"},{"name":"amount","type":"uint256","internalType":"uint256"}],"outputs":[{"name":"","type":"bool","internalType":"bool"}],"stateMutability":"nonpayable"},{"type":"function","name":"updatePlatformFee","inputs":[],"outputs":[],"stateMutability":"nonpayable"},{"type":"function","name":"updateSwapFee","inputs":[],"outputs":[],"stateMutability":"nonpayable"},{"type":"event","name":"AfterLiquidityEventFailed","inputs":[{"name":"revert","type":"bytes","indexed":false,"internalType":"bytes"}],"anonymous":false},{"type":"event","name":"Approval","inputs":[{"name":"owner","type":"address","indexed":true,"internalType":"address"},{"name":"spender","type":"address","indexed":true,"internalType":"address"},{"name":"amount","type":"uint256","indexed":false,"internalType":"uint256"}],"anonymous":false},{"type":"event","name":"AssetManager","inputs":[{"name":"manager","type":"address","indexed":false,"internalType":"contract IAssetManager"}],"anonymous":false},{"type":"event","name":"Burn","inputs":[{"name":"sender","type":"address","indexed":true,"internalType":"address"},{"name":"amount0","type":"uint256","indexed":false,"internalType":"uint256"},{"name":"amount1","type":"uint256","indexed":false,"internalType":"uint256"}],"anonymous":false},{"type":"event","name":"ClampParams","inputs":[{"name":"newMaxChangeRatePerSecond","type":"uint128","indexed":false,"internalType":"uint128"},{"name":"newMaxChangePerTrade","type":"uint128","indexed":false,"internalType":"uint128"}],"anonymous":false},{"type":"event","name":"CustomPlatformFee","inputs":[{"name":"newCustomPlatformFee","type":"uint256","indexed":false,"internalType":"uint256"}],"anonymous":false},{"type":"event","name":"CustomSwapFee","inputs":[{"name":"newCustomSwapFee","type":"uint256","indexed":false,"internalType":"uint256"}],"anonymous":false},{"type":"event","name":"Loss","inputs":[{"name":"token","type":"address","indexed":false,"internalType":"contract IERC20"},{"name":"amount","type":"uint256","indexed":false,"internalType":"uint256"}],"anonymous":false},{"type":"event","name":"Mint","inputs":[{"name":"sender","type":"address","indexed":true,"internalType":"address"},{"name":"amount0","type":"uint256","indexed":false,"internalType":"uint256"},{"name":"amount1","type":"uint256","indexed":false,"internalType":"uint256"}],"anonymous":false},{"type":"event","name":"PlatformFee","inputs":[{"name":"newPlatformFee","type":"uint256","indexed":false,"internalType":"uint256"}],"anonymous":false},{"type":"event","name":"Profit","inputs":[{"name":"token","type":"address","indexed":false,"internalType":"contract IERC20"},{"name":"amount","type":"uint256","indexed":false,"internalType":"uint256"}],"anonymous":false},{"type":"event","name":"Swap","inputs":[{"name":"sender","type":"address","indexed":true,"internalType":"address"},{"name":"zeroForOne","type":"bool","indexed":false,"internalType":"bool"},{"name":"amountIn","type":"uint256","indexed":false,"internalType":"uint256"},{"name":"amountOut","type":"uint256","indexed":false,"internalType":"uint256"},{"name":"to","type":"address","indexed":true,"internalType":"address"}],"anonymous":false},{"type":"event","name":"SwapFee","inputs":[{"name":"newSwapFee","type":"uint256","indexed":false,"internalType":"uint256"}],"anonymous":false},{"type":"event","name":"Sync","inputs":[{"name":"reserve0","type":"uint104","indexed":false,"internalType":"uint104"},{"name":"reserve1","type":"uint104","indexed":false,"internalType":"uint104"}],"anonymous":false},{"type":"event","name":"Transfer","inputs":[{"name":"from","type":"address","indexed":true,"internalType":"address"},{"name":"to","type":"address","indexed":true,"internalType":"address"},{"name":"amount","type":"uint256","indexed":false,"internalType":"uint256"}],"anonymous":false},{"type":"error","name":"AllowanceOverflow","inputs":[]},{"type":"error","name":"AllowanceUnderflow","inputs":[]},{"type":"error","name":"AmountZero","inputs":[]},{"type":"error","name":"AssetManagerStillActive","inputs":[]},{"type":"error","name":"CPM_InsufficientInputAmt","inputs":[]},{"type":"error","name":"CPM_InsufficientLiquidity","inputs":[]},{"type":"error","name":"Forbidden","inputs":[]},{"type":"error","name":"InsufficientAllowance","inputs":[]},{"type":"error","name":"InsufficientAmtIn","inputs":[]},{"type":"error","name":"InsufficientBalance","inputs":[]},{"type":"error","name":"InsufficientLiq","inputs":[]},{"type":"error","name":"InsufficientLiqMinted","inputs":[]},{"type":"error","name":"InvalidChangePerSecond","inputs":[]},{"type":"error","name":"InvalidChangePerTrade","inputs":[]},{"type":"error","name":"InvalidPermit","inputs":[]},{"type":"error","name":"InvalidPlatformFee","inputs":[]},{"type":"error","name":"InvalidSkimToken","inputs":[]},{"type":"error","name":"InvalidSwapFee","inputs":[]},{"type":"error","name":"InvalidTokenToRecover","inputs":[]},{"type":"error","name":"LEM_InvalidExponent","inputs":[]},{"type":"error","name":"LEM_OutOfBounds","inputs":[]},{"type":"error","name":"NotManager","inputs":[]},{"type":"error","name":"Overflow","inputs":[]},{"type":"error","name":"Permit2AllowanceIsFixedAtInfinity","inputs":[]},{"type":"error","name":"PermitExpired","inputs":[]},{"type":"error","name":"Reentrancy","inputs":[]},{"type":"error","name":"SafeCastOverflowedUintDowncast","inputs":[{"name":"bits","type":"uint8","internalType":"uint8"},{"name":"value","type":"uint256","internalType":"uint256"}]},{"type":"error","name":"TotalSupplyOverflow","inputs":[]},{"type":"error","name":"TransferFailed","inputs":[]}],"bytecode":{"object":"0x6101408060405234610472576040816157c180380380916100208285610476565b8339810103126104725761003f602061003883610499565b9201610499565b906040519061004f604083610476565b600b82526a43503a3a7377617046656560a81b602083019081526040519093909160808301906001600160401b0382118483101761045e576107ff60606004956020946040525f81525f858201525f604082015201526107ff60f01b5f555f196002555f1984553361010052806080528260a0526040519384809263313ce56760e01b825260018060a01b03165afa90811561043c5761010660ff6101006020946004965f91610447575b506104c6565b166104eb565b60c05260405163313ce56760e01b815292839182906001600160a01b03165afa801561043c5761010060ff91610142935f9161040d57506104c6565b60e05251902061012052610154610571565b61015c610643565b60018060a01b0361010051166101b1604051610179604082610476565b601581527f5368617265643a3a6d61784368616e676552617465000000000000000000000060208201526001600160801b03926106f3565b166101ff60018060a01b036101005116604051906101d0604083610476565b601982527f5368617265643a3a6d61784368616e676550657254726164650000000000000060208301526106f3565b610100516001600160801b038216906001600160a01b031633036103fe57821515806103ed575b156103de57801515806103cc575b156103bd5760407fc0fc59be8e8d27ca7e681aa5d31d001f447d372ab253a317e7e9c3e8d60d7092918151908582526020820152a160801b6001600160801b03191617600855604051615033908161078e823960805181818161051001528181610685015281816107d20152818161082401528181610ea101528181611342015281816115780152818161179601528181611ab301528181611cf5015281816128d001528181613030015281816132820152613d5e015260a0518181816104a001528181610584015281816106b20152818161089d01528181610bce01528181610ed40152818161148701528181611630015281816116f401528181611ad901528181611e2801528181611f9c0152818161306f015261334e015260c051818181610fc5015261375a015260e05181818161256a0152613797015261010051818181610c5a01528181610def0152818161106e01528181611392015281816118b5015281816123b101528181612d6601528181612fb7015261357501526101205181612d250152f35b63f42331c760e01b5f5260045ffd5b5067016345785d8a0000811115610234565b6375b101a760e01b5f5260045ffd5b50662386f26fc10000831115610226565b631dd2188d60e31b5f5260045ffd5b61042f915060203d602011610435575b6104278183610476565b8101906104ad565b5f6100fa565b503d61041d565b6040513d5f823e3d90fd5b61042f9150863d8811610435576104278183610476565b634e487b7160e01b5f52604160045260245ffd5b5f80fd5b601f909101601f19168101906001600160401b0382119082101761045e57604052565b51906001600160a01b038216820361047257565b90816020910312610472575160ff811681036104725790565b60ff166012039060ff82116104d757565b634e487b7160e01b5f52601160045260245ffd5b801561056b5760208110600116604e821060011617610557576001600a915b6001811161052857506001600160801b0382900481116104d7570290565b916001600160801b0381900481116104d7576001831661054e575b80029160011c61050a565b80910290610543565b600a0a906001600160801b0382116104d757565b50600190565b6002545f1981146105d0575b60015481146105cd57614e2081116105be577f829472a12eb635e89660a3fd5efc2b638147cce371274f7185a2cc915bd0dafc6020604051838152a1600155565b63da7459b760e01b5f5260045ffd5b50565b5060018060a01b03610100511660206101205160246040518094819363023aa9ab60e61b835260048301525afa90811561043c575f91610611575b5061057d565b90506020813d60201161063b575b8161062c60209383610476565b8101031261047257515f61060b565b3d915061061f565b6004545f1981146106a0575b60035481146105cd57620f42408111610691577f6f9983488bd1500c372d1f10befe9e7790d764b18c848cfa10872f4e248ded926020604051838152a1600355565b63183440b760e31b5f5260045ffd5b506106ee60018060a01b036101005116604051906106bf604083610476565b601382527f5368617265643a3a706c6174666f726d4665650000000000000000000000000060208301526106f3565b61064f565b9060209060405161072283828180820195805191829101875e81015f838201520301601f198101835282610476565b51902060405163023aa9ab60e61b8152600481019190915291829060249082906001600160a01b03165afa90811561043c575f9161075e575090565b90506020813d602011610785575b8161077960209383610476565b81010312610472575190565b3d915061076c56fe60806040526004361015610011575f80fd5b5f5f3560e01c806306fdde0314612a245780630902f1ac146129b5578063095ea7b31461292c5780630c472afd146128f45780630dfe16811461288657806318160ddd1461284357806323b872dd1461273e57806326232a2e14612703578063313ce567146126ca5780633644e515146126245780633998a681146109a457806348ee4332146125cc5780634a1d6fa71461258e5780634e25dc471461252457806354cf2aeb146124e95780636156385d146123305780636a6278421461205457806370a08231146120035780637464fc3d14611fc75780637aec721b14611c8a5780637c3cbc7c14611c4e5780637ecebe0014611bfd57806385faf62414611baf57806389afcb441461196257806394217ad1146119105780639568e73b1461186b57806395d89b41146117e957806397e37764146114af5780639be65a60146112da5780639d62a694146111ff578063a9059cbb14611152578063ab3d854414611117578063ad7853e9146110c9578063afb4a43b14611024578063ba9a7a5614610fe9578063baa8c7cb14610f7e578063bb62547814610f05578063bc25cf7714610e13578063c45a015514610da4578063c58771ef14610d68578063d0ebdbe714610bf2578063d21220a714610b83578063d505accf146109a9578063db6488dc146109a4578063dbc781bc1461096d578063dd62ed3e14610910578063e12bd9d8146103aa578063e9bdf7b81461035f578063fbcd9b05146103165763fff6cae914610240575f80fd5b3461031357807ffffffffffffffffffffffffffffffffffffffffffffffffffffffffffffffffc36011261031357688000000000ab143c065c6103065730688000000000ab143c065d6102ca6cffffffffffffffffffffffffff806102b36102a6612bf6565b9591949094169116612fe0565b906102bc613239565b6102c4613305565b90613607565b80156102f757466001036102e85780688000000000ab143c065d5b80f35b688000000000ab143c06805580f35b5f688000000000ab143c065d80f35b63ab143c0690526004601cfd5b80fd5b503461031357807ffffffffffffffffffffffffffffffffffffffffffffffffffffffffffffffffc3601126103135760206040516f4b3b4ca85a86c47a098a2240000000008152f35b503461031357807ffffffffffffffffffffffffffffffffffffffffffffffffffffffffffffffffc3601126103135760206cffffffffffffffffffffffffff60065416604051908152f35b50346103135760807ffffffffffffffffffffffffffffffffffffffffffffffffffffffffffffffffc36011261031357600435602435918215158303610313576044359173ffffffffffffffffffffffffffffffffffffffff8316908184036107ab576064359467ffffffffffffffff861161090c573660238701121561090c5785600401359567ffffffffffffffff871161090857366024888301011161090857688000000000ab143c065c6108fb57906cffffffffffffffffffffffffff929130688000000000ab143c065d83610481612bf6565b9290931696169390929085156108d35715610809575f8513156107cd577f0000000000000000000000000000000000000000000000000000000000000000996104dd85888d6104d58a8484600154926140a7565b9d8e91613d2a565b80610656575b50506104ed613239565b9273ffffffffffffffffffffffffffffffffffffffff61050b613305565b9a16957f000000000000000000000000000000000000000000000000000000000000000073ffffffffffffffffffffffffffffffffffffffff16870361064557610555828c612dce565b80965b1161061d5760209a61056995613607565b6040519173ffffffffffffffffffffffffffffffffffffffff7f000000000000000000000000000000000000000000000000000000000000000016148252858201528360408201527f66251e495e6e69e208ab08e2bc259dbe2ef482a8c4a93b8984b03a1eb27e1b9e60603392a3801561060b57466001036105f957688000000000ab143c065d5b604051908152f35b50688000000000ab143c0680556105f1565b505f688000000000ab143c065d6105f1565b7fc5786cf6000000000000000000000000000000000000000000000000000000005f5260045ffd5b61064f8186612dce565b8096610558565b73ffffffffffffffffffffffffffffffffffffffff8b169073ffffffffffffffffffffffffffffffffffffffff7f00000000000000000000000000000000000000000000000000000000000000001682145f146107be578a915b7f000000000000000000000000000000000000000000000000000000000000000073ffffffffffffffffffffffffffffffffffffffff16036107af578a905b893b156107ab575f927fffffffffffffffffffffffffffffffffffffffffffffffffffffffffffffffe0601f8360a4946024604051998a9889977f4fc7c2170000000000000000000000000000000000000000000000000000000089523360048a01528389015260448801526080606488015282608488015201868601378685828601015201168101030181838b5af180156107a057610790575b806104e3565b5f61079a91612b7a565b5f61078a565b6040513d5f823e3d90fd5b5f80fd5b6107b887612e60565b906106ef565b6107c787612e60565b916106b0565b9893987f0000000000000000000000000000000000000000000000000000000000000000995f03946104dd85888d6104d560015483858d6140a7565b5f859995135f14610887578899868a101561085f578a9985887f00000000000000000000000000000000000000000000000000000000000000009d8e9383836001549161085593613fdb565b996104dd94613d2a565b7fae44470c000000000000000000000000000000000000000000000000000000005f5260045ffd5b98975f0398838a101561085f5789986104dd85887f00000000000000000000000000000000000000000000000000000000000000009d8e996108cd600154858585613fdb565b9a613d2a565b7fcbca5aa2000000000000000000000000000000000000000000000000000000005f5260045ffd5b63ab143c0685526004601cfd5b8480fd5b8380fd5b50346103135760407ffffffffffffffffffffffffffffffffffffffffffffffffffffffffffffffffc36011261031357610948612ab0565b610950612ad3565b602052637f5e9f20600c525f5260206034600c2054604051908152f35b503461031357807ffffffffffffffffffffffffffffffffffffffffffffffffffffffffffffffffc360112610313576102e5612ee4565b612af6565b50346103135760e07ffffffffffffffffffffffffffffffffffffffffffffffffffffffffffffffffc360112610313576109e1612ab0565b6109e9612ad3565b604435606435906084359360ff85168503610b7f57610a06612bbb565b6020815191012092804211610b725773ffffffffffffffffffffffffffffffffffffffff80604051931695169565383775081901600e5285885260c06020600c20938454937f8b73c3c69bb8fe3d512ecc4cf759cc79239f7b179b0ffacaa9a75d522b39400f8252602082019788528460408301987fc89efdaa54c0f20c7adf612882df0950f5a951637e0307cdcb4c672f298b8bc68a528b606085019a468c528c608087019330855260a08820602e527f6e71edae12b1b97f4d1f60370fef10105fa2faae0126114a169c64845d6126c988525252888a525260a082015220604e526042602c20885260ff1660205260a43560405260c43560605260208060808960015afa90853d5103610b6557019055777f5e9f20000000000000000000000000000000000000000084176040526034602c20557f8c5be1e5ebec7d5bd14f71427d1e84f3dd0314c0f7b2291e5b200ac8c7c3b92590602090a380f35b63ddafbaef88526004601cfd5b631a15a3cc87526004601cfd5b8580fd5b503461031357807ffffffffffffffffffffffffffffffffffffffffffffffffffffffffffffffffc36011261031357602060405173ffffffffffffffffffffffffffffffffffffffff7f0000000000000000000000000000000000000000000000000000000000000000168152f35b50346103135760207ffffffffffffffffffffffffffffffffffffffffffffffffffffffffffffffffc3601126103135760043573ffffffffffffffffffffffffffffffffffffffff8116809103610d645773ffffffffffffffffffffffffffffffffffffffff7f0000000000000000000000000000000000000000000000000000000000000000163303610d3c576006546cffffffffffffffffffffffffff8116159081610d21575b5015610cf9576020817f971e020e6300a23a2ec05293a6804d9679d3b305220ec194d1cc7009a4c88a10927fffffffffffffffffffffffff00000000000000000000000000000000000000006005541617600555604051908152a180f35b6004827f111a245d000000000000000000000000000000000000000000000000000000008152fd5b6cffffffffffffffffffffffffff915060681c16155f610c9b565b6004827fee90c468000000000000000000000000000000000000000000000000000000008152fd5b5080fd5b503461031357807ffffffffffffffffffffffffffffffffffffffffffffffffffffffffffffffffc360112610313576020600254604051908152f35b503461031357807ffffffffffffffffffffffffffffffffffffffffffffffffffffffffffffffffc36011261031357602060405173ffffffffffffffffffffffffffffffffffffffff7f0000000000000000000000000000000000000000000000000000000000000000168152f35b50346103135760207ffffffffffffffffffffffffffffffffffffffffffffffffffffffffffffffffc36011261031357610e4b612ab0565b688000000000ab143c065c610ef8576102ca9030688000000000ab143c065d6cffffffffffffffffffffffffff80610e81612bf6565b50509216911691610ec58383610e9e81610e99613239565b612dce565b847f0000000000000000000000000000000000000000000000000000000000000000613d2a565b610ed183610e99613305565b907f0000000000000000000000000000000000000000000000000000000000000000613d2a565b63ab143c0682526004601cfd5b50346103135760207ffffffffffffffffffffffffffffffffffffffffffffffffffffffffffffffffc36011261031357604060a091600435815260076020522054604051908060020b82528060181c60020b60208301528060301c600a0b60408301528060881c600a0b606083015260e01c6080820152f35b503461031357807ffffffffffffffffffffffffffffffffffffffffffffffffffffffffffffffffc3601126103135760206040516fffffffffffffffffffffffffffffffff7f0000000000000000000000000000000000000000000000000000000000000000168152f35b503461031357807ffffffffffffffffffffffffffffffffffffffffffffffffffffffffffffffffc3601126103135760206040516103e88152f35b50346103135760207ffffffffffffffffffffffffffffffffffffffffffffffffffffffffffffffffc3601126103135760043573ffffffffffffffffffffffffffffffffffffffff7f0000000000000000000000000000000000000000000000000000000000000000163303610d3c577f27fb2396a71e9486a99b50638f2bae65e1db08352d1d0688a4b3ad9b5d33df136020604051838152a16004556102e5612ee4565b503461031357807ffffffffffffffffffffffffffffffffffffffffffffffffffffffffffffffffc3601126103135760206cffffffffffffffffffffffffff60065460681c16604051908152f35b503461031357807ffffffffffffffffffffffffffffffffffffffffffffffffffffffffffffffffc360112610313576020604051614e208152f35b50346103135760407ffffffffffffffffffffffffffffffffffffffffffffffffffffffffffffffffc3601126103135761118a612ab0565b602435916387a211a2600c523381526020600c2080548085116111f2578490039055526020600c20818154019055602052600c5160601c337fddf252ad1be2c89b69c2b068fc378daa952ba7f163c4a11628f55a4df523b3ef602080a3602060405160018152f35b63f4d678b883526004601cfd5b50346103135760207ffffffffffffffffffffffffffffffffffffffffffffffffffffffffffffffffc3601126103135760408160a0926080835161124281612b31565b82815282602082015282858201528260608201520152600435815260076020522063ffffffff6040519161127583612b31565b548060020b92838152602081018260181c60020b815260408201908360301c600a0b8252608060608401938560881c600a0b8552019360e01c84526040519586525160020b602086015251600a0b604085015251600a0b606084015251166080820152f35b50346103135760207ffffffffffffffffffffffffffffffffffffffffffffffffffffffffffffffffc3601126103135760043573ffffffffffffffffffffffffffffffffffffffff8116809103610d645773ffffffffffffffffffffffffffffffffffffffff7f0000000000000000000000000000000000000000000000000000000000000000168114158061146f575b156114475773ffffffffffffffffffffffffffffffffffffffff6113b6611390612e25565b7f0000000000000000000000000000000000000000000000000000000000000000613bf6565b1690604051917f70a08231000000000000000000000000000000000000000000000000000000008352306004840152602083602481855afa91821561143c578492611406575b6102e59350613cd0565b91506020833d602011611434575b8161142160209383612b7a565b810103126107ab576102e59251916113fc565b3d9150611414565b6040513d86823e3d90fd5b6004827f5f48afeb000000000000000000000000000000000000000000000000000000008152fd5b5073ffffffffffffffffffffffffffffffffffffffff7f00000000000000000000000000000000000000000000000000000000000000001681141561136b565b50346103135760407ffffffffffffffffffffffffffffffffffffffffffffffffffffffffffffffffc360112610313576004356024359073ffffffffffffffffffffffffffffffffffffffff6005541633036117c15782811315611719576cffffffffffffffffffffffffff61152761159d92613f1e565b6006547fffffffffffffffffffffffffffffffffffffff000000000000000000000000008361155884828516612eb8565b16911617600655163373ffffffffffffffffffffffffffffffffffffffff7f000000000000000000000000000000000000000000000000000000000000000016613cd0565b81811315611655576cffffffffffffffffffffffffff6115bf6102e592613f1e565b6006547fffffffffffff00000000000000000000000000ffffffffffffffffffffffffff79ffffffffffffffffffffffffff0000000000000000000000000061160d84868560681c16612eb8565b60681b16911617600655163373ffffffffffffffffffffffffffffffffffffffff7f000000000000000000000000000000000000000000000000000000000000000016613cd0565b818112611660575080f35b6cffffffffffffffffffffffffff61168261167d6102e593612e60565b613f1e565b6006547fffffffffffff00000000000000000000000000ffffffffffffffffffffffffff79ffffffffffffffffffffffffff000000000000000000000000006116d084868560681c16612e8c565b60681b1691161760065516303373ffffffffffffffffffffffffffffffffffffffff7f000000000000000000000000000000000000000000000000000000000000000016613f74565b828112611727575b5061159d565b6cffffffffffffffffffffffffff61174461167d6117bb93612e60565b6006547fffffffffffffffffffffffffffffffffffffff000000000000000000000000008361177584828516612e8c565b1691161760065516303373ffffffffffffffffffffffffffffffffffffffff7f000000000000000000000000000000000000000000000000000000000000000016613f74565b5f611721565b6004837fc0fc8a8a000000000000000000000000000000000000000000000000000000008152fd5b503461031357807ffffffffffffffffffffffffffffffffffffffffffffffffffffffffffffffffc36011261031357611867604051611829604082612b7a565b600681527f5245532d4c5000000000000000000000000000000000000000000000000000006020820152604051918291602083526020830190612a6d565b0390f35b50346103135760207ffffffffffffffffffffffffffffffffffffffffffffffffffffffffffffffffc3601126103135760043573ffffffffffffffffffffffffffffffffffffffff7f0000000000000000000000000000000000000000000000000000000000000000163303610d3c577f0a206ccb05bebde488b6db465d828f44eb7813982d59f228be19c2711d34f2a56020604051838152a16002556102e5612c65565b503461031357807ffffffffffffffffffffffffffffffffffffffffffffffffffffffffffffffffc36011261031357602073ffffffffffffffffffffffffffffffffffffffff60055416604051908152f35b50346103135760207ffffffffffffffffffffffffffffffffffffffffffffffffffffffffffffffffc3601126103135761199a612ab0565b90688000000000ab143c065c610306576cffffffffffffffffffffffffff809130688000000000ab143c065d6119de6119d1612bf6565b9591969096169116612fe0565b9390926387a211a2600c52305f526020600c2054916119fd86866133d1565b6805345cdf77eb68f44c5495611a38611a2688611a21611a1b613239565b88612ddb565b612dee565b97611a21611a32613305565b87612ddb565b956387a211a2600c52305f526020600c2098895495868111611ba2578289611afd93611ad78760409f8f878792611b509f99859a039055806805345cdf77eb68f44c54036805345cdf77eb68f44c555f525f307fddf252ad1be2c89b69c2b068fc378daa952ba7f163c4a11628f55a4df523b3ef602083a3847f0000000000000000000000000000000000000000000000000000000000000000613d2a565b7f0000000000000000000000000000000000000000000000000000000000000000613d2a565b611b05613239565b611b0d613305565b90611b188282612ddb565b6009558a518a81528960208201527f49995e5dd6158cf69ad3e9777c46755a1a826a446c6416992167462dad033b2a8c3392a2613607565b611b58613b52565b8015611b905746600103611b7e57688000000000ab143c065d5b82519182526020820152f35b50688000000000ab143c068055611b72565b505f688000000000ab143c065d611b72565b63f4d678b85f526004601cfd5b503461031357807ffffffffffffffffffffffffffffffffffffffffffffffffffffffffffffffffc3601126103135760206fffffffffffffffffffffffffffffffff60085416604051908152f35b50346103135760207ffffffffffffffffffffffffffffffffffffffffffffffffffffffffffffffffc36011261031357611c35612ab0565b906338377508600c5252602080600c2054604051908152f35b503461031357807ffffffffffffffffffffffffffffffffffffffffffffffffffffffffffffffffc360112610313576020600454604051908152f35b50346103135760207ffffffffffffffffffffffffffffffffffffffffffffffffffffffffffffffffc3601126103135760043573ffffffffffffffffffffffffffffffffffffffff811690818103611fc357829173ffffffffffffffffffffffffffffffffffffffff7f000000000000000000000000000000000000000000000000000000000000000016811491828015611f84575b15611f5c576005546040517fd4fac45d00000000000000000000000000000000000000000000000000000000815230600482015273ffffffffffffffffffffffffffffffffffffffff9283166024820152959291602091879160449183918791165af1948515611ee3578295611f28575b506cffffffffffffffffffffffffff8511611db2575b602084604051908152f35b9091925073ffffffffffffffffffffffffffffffffffffffff611dd6611390612e25565b16917fffffffffffffffffffffffffffffffffffffff000000000000000000000000018501948511611efb57849373ffffffffffffffffffffffffffffffffffffffff60055416905f14611ef557855b7f000000000000000000000000000000000000000000000000000000000000000073ffffffffffffffffffffffffffffffffffffffff168403611eee5786905b823b1561090c5790604484928360405195869485937f6e364041000000000000000000000000000000000000000000000000000000008552600485015260248401525af18015611ee357611ecc575b505092611ec491602094613cd0565b5f8080611da7565b81611ed691612b7a565b805f126103135780611eb5565b6040513d84823e3d90fd5b8290611e66565b81611e26565b7f4e487b71000000000000000000000000000000000000000000000000000000005f52601160045260245ffd5b9094506020813d602011611f54575b81611f4460209383612b7a565b810103126107ab5751935f611d91565b3d9150611f37565b6004857f3cd2fee6000000000000000000000000000000000000000000000000000000008152fd5b5073ffffffffffffffffffffffffffffffffffffffff7f0000000000000000000000000000000000000000000000000000000000000000168214611d20565b8280fd5b503461031357807ffffffffffffffffffffffffffffffffffffffffffffffffffffffffffffffffc360112610313576020600954604051908152f35b50346103135760207ffffffffffffffffffffffffffffffffffffffffffffffffffffffffffffffffc3601126103135761203b612ab0565b906387a211a2600c5252602080600c2054604051908152f35b346107ab5760207ffffffffffffffffffffffffffffffffffffffffffffffffffffffffffffffffc3601126107ab5761208b612ab0565b688000000000ab143c065c612323576cffffffffffffffffffffffffff809130688000000000ab143c065d6120ce6120c1612bf6565b9691959095169116612fe0565b9390926120d9613239565b946120e2613305565b946120ed8188612dce565b956120f88382612dce565b9761210384846133d1565b6805345cdf77eb68f44c54888585836122f95750506121b891508a61212791612ddb565b8070ffffffffffffffffffffffffffffffffff1060071b81811c68ffffffffffffffffff1060061b1781811c64ffffffffff1060051b1781811c62ffffff1060041b1760b56201000083831c019160011c1b0260121c8082040160011c8082040160011c8082040160011c8082040160011c8082040160011c8082040160011c8082040160011c8080920410900390565b7ffffffffffffffffffffffffffffffffffffffffffffffffffffffffffffffc188101908111611efb57976805345cdf77eb68f44c546103e881019081106122ec576805345cdf77eb68f44c556387a211a2600c525f80526020600c206103e881540190556103e8602052600c5160601c5f7fddf252ad1be2c89b69c2b068fc378daa952ba7f163c4a11628f55a4df523b3ef602080a35b88156122c4576020996122668a6122a89a6135a1565b6122708484612ddb565b6009556040519182528a8201527f4c209b5fc8ad50758f13e2e1088ba56a560dff690a1c6fef26394f4c03821c4f60403392a2613607565b6122b0613b52565b5f688000000000ab143c065d604051908152f35b7f39d29a3e000000000000000000000000000000000000000000000000000000005f5260045ffd5b63e5cfe9575f526004601cfd5b61230d611a2191611a218661231496612ddb565b938d612ddb565b90818082109118021897612250565b63ab143c065f526004601cfd5b346107ab5760407ffffffffffffffffffffffffffffffffffffffffffffffffffffffffffffffffc3601126107ab576004356fffffffffffffffffffffffffffffffff81168091036107ab576024356fffffffffffffffffffffffffffffffff8116908181036107ab5773ffffffffffffffffffffffffffffffffffffffff7f00000000000000000000000000000000000000000000000000000000000000001633036124c157821515806124b0575b156124885781151580612476575b1561244e577fc0fc59be8e8d27ca7e681aa5d31d001f447d372ab253a317e7e9c3e8d60d709260407fffffffffffffffffffffffffffffffff00000000000000000000000000000000938151908682526020820152a160801b1617600855005b7ff42331c7000000000000000000000000000000000000000000000000000000005f5260045ffd5b5067016345785d8a00008211156123ee565b7f75b101a7000000000000000000000000000000000000000000000000000000005f5260045ffd5b50662386f26fc100008311156123e0565b7fee90c468000000000000000000000000000000000000000000000000000000005f5260045ffd5b346107ab575f7ffffffffffffffffffffffffffffffffffffffffffffffffffffffffffffffffc3601126107ab576020600154604051908152f35b346107ab575f7ffffffffffffffffffffffffffffffffffffffffffffffffffffffffffffffffc3601126107ab5760206040516fffffffffffffffffffffffffffffffff7f0000000000000000000000000000000000000000000000000000000000000000168152f35b346107ab575f7ffffffffffffffffffffffffffffffffffffffffffffffffffffffffffffffffc3601126107ab57602060085460801c604051908152f35b346107ab575f7ffffffffffffffffffffffffffffffffffffffffffffffffffffffffffffffffc3601126107ab5760206040517f161bcca7119915b50764b4abe86529797775a5f17195100000000000000000008152f35b346107ab575f7ffffffffffffffffffffffffffffffffffffffffffffffffffffffffffffffffc3601126107ab57602060a061265e612bbb565b828151910120604051907f8b73c3c69bb8fe3d512ecc4cf759cc79239f7b179b0ffacaa9a75d522b39400f8252838201527fc89efdaa54c0f20c7adf612882df0950f5a951637e0307cdcb4c672f298b8bc6604082015246606082015230608082015220604051908152f35b346107ab575f7ffffffffffffffffffffffffffffffffffffffffffffffffffffffffffffffffc3601126107ab57602060405160128152f35b346107ab575f7ffffffffffffffffffffffffffffffffffffffffffffffffffffffffffffffffc3601126107ab576020600354604051908152f35b346107ab5760607ffffffffffffffffffffffffffffffffffffffffffffffffffffffffffffffffc3601126107ab57612775612ab0565b61277d612ad3565b604435908260601b33602052637f5e9f208117600c526034600c2090815491821961281f575b506387a211a2915017600c526020600c208054808411611ba25783900390555f526020600c2081815401905560205273ffffffffffffffffffffffffffffffffffffffff600c5160601c91167fddf252ad1be2c89b69c2b068fc378daa952ba7f163c4a11628f55a4df523b3ef602080a3602060405160018152f35b82851161283657846387a211a293039055856127a3565b6313be252b5f526004601cfd5b346107ab575f7ffffffffffffffffffffffffffffffffffffffffffffffffffffffffffffffffc3601126107ab5760206805345cdf77eb68f44c54604051908152f35b346107ab575f7ffffffffffffffffffffffffffffffffffffffffffffffffffffffffffffffffc3601126107ab57602060405173ffffffffffffffffffffffffffffffffffffffff7f0000000000000000000000000000000000000000000000000000000000000000168152f35b346107ab575f7ffffffffffffffffffffffffffffffffffffffffffffffffffffffffffffffffc3601126107ab5761292a612c65565b005b346107ab5760407ffffffffffffffffffffffffffffffffffffffffffffffffffffffffffffffffc3601126107ab57612963612ab0565b60243590602052637f5e9f20600c52335f52806034600c20555f52602c5160601c337f8c5be1e5ebec7d5bd14f71427d1e84f3dd0314c0f7b2291e5b200ac8c7c3b92560205fa3602060405160018152f35b346107ab575f7ffffffffffffffffffffffffffffffffffffffffffffffffffffffffffffffffc3601126107ab5760806cffffffffffffffffffffffffff61ffff63ffffffff612a03612bf6565b93929590918160405197168752166020860152166040840152166060820152f35b346107ab575f7ffffffffffffffffffffffffffffffffffffffffffffffffffffffffffffffffc3601126107ab57611867612a5d612bbb565b6040519182916020835260208301905b907fffffffffffffffffffffffffffffffffffffffffffffffffffffffffffffffe0601f602080948051918291828752018686015e5f8582860101520116010190565b6004359073ffffffffffffffffffffffffffffffffffffffff821682036107ab57565b6024359073ffffffffffffffffffffffffffffffffffffffff821682036107ab57565b346107ab575f7ffffffffffffffffffffffffffffffffffffffffffffffffffffffffffffffffc3601126107ab576020604051620f42408152f35b60a0810190811067ffffffffffffffff821117612b4d57604052565b7f4e487b71000000000000000000000000000000000000000000000000000000005f52604160045260245ffd5b90601f7fffffffffffffffffffffffffffffffffffffffffffffffffffffffffffffffe0910116810190811067ffffffffffffffff821117612b4d57604052565b60405190612bca604083612b7a565b601282527f5265736572766f6972204c5020546f6b656e00000000000000000000000000006020830152565b604051906080820182811067ffffffffffffffff821117612b4d5760405260605f54916cffffffffffffffffffffffffff83168085526cffffffffffffffffffffffffff8460681c169485602082015263ffffffff8560d01c169485604083015260f01c938491015293929190565b6002547fffffffffffffffffffffffffffffffffffffffffffffffffffffffffffffffff8114612cfc575b6001548114612cf957614e208111612cd1577f829472a12eb635e89660a3fd5efc2b638147cce371274f7185a2cc915bd0dafc6020604051838152a1600155565b7fda7459b7000000000000000000000000000000000000000000000000000000005f5260045ffd5b50565b506040517f8eaa6ac00000000000000000000000000000000000000000000000000000000081527f0000000000000000000000000000000000000000000000000000000000000000600482015260208160248173ffffffffffffffffffffffffffffffffffffffff7f0000000000000000000000000000000000000000000000000000000000000000165afa9081156107a0575f91612d9c575b50612c90565b90506020813d602011612dc6575b81612db760209383612b7a565b810103126107ab57515f612d96565b3d9150612daa565b91908203918211611efb57565b81810292918115918404141715611efb57565b8115612df8570490565b7f4e487b71000000000000000000000000000000000000000000000000000000005f52601260045260245ffd5b60405190612e34604083612b7a565b601182527f5368617265643a3a7265636f76657265720000000000000000000000000000006020830152565b7f80000000000000000000000000000000000000000000000000000000000000008114611efb575f0390565b906cffffffffffffffffffffffffff809116911603906cffffffffffffffffffffffffff8211611efb57565b906cffffffffffffffffffffffffff809116911601906cffffffffffffffffffffffffff8211611efb57565b6004547fffffffffffffffffffffffffffffffffffffffffffffffffffffffffffffffff8114612f79575b6003548114612cf957620f42408111612f51577f6f9983488bd1500c372d1f10befe9e7790d764b18c848cfa10872f4e248ded926020604051838152a1600355565b7fc1a205b8000000000000000000000000000000000000000000000000000000005f5260045ffd5b50612fdb604051612f8b604082612b7a565b601381527f5368617265643a3a706c6174666f726d4665650000000000000000000000000060208201527f0000000000000000000000000000000000000000000000000000000000000000613bf6565b612f0f565b909173ffffffffffffffffffffffffffffffffffffffff60055416918215613227576040517fd4fac45d0000000000000000000000000000000000000000000000000000000081523060048201527f000000000000000000000000000000000000000000000000000000000000000073ffffffffffffffffffffffffffffffffffffffff8116602483015290937f00000000000000000000000000000000000000000000000000000000000000009190602090869060449082905f905af19485156107a0575f956131f3575b506005546040517fd4fac45d00000000000000000000000000000000000000000000000000000000815230600482015273ffffffffffffffffffffffffffffffffffffffff8481166024830152909291602091849160449183915f91165af19384156107a05786925f956131ac575b506cffffffffffffffffffffffffff613198613192878398976131857fffffffffffff00000000000000000000000000000000000000000000000000009879ffffffffffffffffffffffffff000000000000000000000000009861319f986006549d8e169161410f565b9c858b60681c169161410f565b98613f1e565b1693613f1e565b60681b1692161717600655565b94509150916020843d6020116131eb575b816131ca60209383612b7a565b810103126107ab579251929185916cffffffffffffffffffffffffff61311b565b3d91506131bd565b9094506020813d60201161321f575b8161320f60209383612b7a565b810103126107ab5751935f6130ac565b3d9150613202565b929150565b91908201809211611efb57565b6040517f70a0823100000000000000000000000000000000000000000000000000000000815230600482015260208160248173ffffffffffffffffffffffffffffffffffffffff7f0000000000000000000000000000000000000000000000000000000000000000165afa80156107a0575f906132d1575b6132ce91506cffffffffffffffffffffffffff600654169061322c565b90565b506020813d6020116132fd575b816132eb60209383612b7a565b810103126107ab576132ce90516132b1565b3d91506132de565b6040517f70a0823100000000000000000000000000000000000000000000000000000000815230600482015260208160248173ffffffffffffffffffffffffffffffffffffffff7f0000000000000000000000000000000000000000000000000000000000000000165afa80156107a0575f9061339d575b6132ce91506cffffffffffffffffffffffffff60065460681c169061322c565b506020813d6020116133c9575b816133b760209383612b7a565b810103126107ab576132ce905161337d565b3d91506133aa565b60035491826133df57505050565b6121276134839161347d6009548070ffffffffffffffffffffffffffffffffff1060071b81811c68ffffffffffffffffff1060061b1781811c64ffffffffff1060051b1781811c62ffffff1060041b1760b56201000083831c019160011c1b0260121c8082040160011c8082040160011c8082040160011c8082040160011c8082040160011c8082040160011c8082040160011c8080920410900390565b93612ddb565b9080821161349057505050565b6134b7906f4b3b4ca85a86c47a098a2240000000006805345cdf77eb68f44c549302612dee565b8015612df85761351792620f4240917f161bcca7119915b50764b4abe86529797775a5f1719510000000000000000000046f4b3b4ca85a86c47a098a22400000000003020490816f4b3b4ca85a86c47a098a224000000000039102612dee565b8061351f5750565b61359f9073ffffffffffffffffffffffffffffffffffffffff613599604051613549604082612b7a565b601581527f5368617265643a3a706c6174666f726d466565546f000000000000000000000060208201527f0000000000000000000000000000000000000000000000000000000000000000613bf6565b166135a1565b565b6805345cdf77eb68f44c548281019081106122ec576805345cdf77eb68f44c556387a211a2600c525f526020600c20818154019055602052600c5160601c5f7fddf252ad1be2c89b69c2b068fc378daa952ba7f163c4a11628f55a4df523b3ef602080a3565b9490936cffffffffffffffffffffffffff8611613acd576cffffffffffffffffffffffffff8511613acd576cffffffffffffffffffffffffff8311613acd576cffffffffffffffffffffffffff8411613acd5763ffffffff42169263ffffffff828503169186880261372d575b5050505050506040906cffffffffffffffffffffffffff807fff388a12130349259b5ae24af90448f511c2340be808f2c371230fc2da175c449416915f54837fffff0000000000000000000000000000000000000000000000000000000000007dffffffff00000000000000000000000000000000000000000000000000004260d01b1692161779ffffffffffffffffffffffffff000000000000000000000000008360681b1617175f558351928352166020820152a1565b61ffff84959796989394165f52600760205260405f20966137806fffffffffffffffffffffffffffffffff7f00000000000000000000000000000000000000000000000000000000000000001685612ddb565b956137bd6fffffffffffffffffffffffffffffffff7f00000000000000000000000000000000000000000000000000000000000000001689612ddb565b957812725dd1d243aba0e75fe645cc4873f9e65afe688c928e1f228710880215613ac0577fff388a12130349259b5ae24af90448f511c2340be808f2c371230fc2da175c449a60409a6cffffffffffffffffffffffffff99670de0b6b3a76400008b9a0290808204910615150191613834836149cd565b9784020215613a13579061387061399593925491838360181c60020b988a63ffffffff613868655af3107a40008d02614413565b921693614218565b929050600a0b937dffffffffffffffffffffffffffffffffffffffffffffffffffffffffffff7f07ff00000000000000000000000000000000000000000000000000000000000060015f54930160f01b1691161790815f558c51976138d489612b31565b60020b8852602088019260020b83528c880194808260020b02600a0b8260301c600a0b01600a0b8652606089019702600a0b9060881c600a0b01600a0b86526080870194855260f01c5f5260076020528a5f20955160020b7fffffffffffffffffffffffffffffffffffffffffffffffffffffffffff0000008754169062ffffff161786555160020b85907fffffffffffffffffffffffffffffffffffffffffffffffffffff000000ffffff82549160181b65ffffff000000169116179055565b519165ffffffffffff70ffffffffffffffffffffff0000000000007fffffffff000000000000000000000000000000000000000000000000000000008654935160881b945160e01b169460301b16911617907bffffffffffffffffffffff000000000000000000000000000000000016171790555b9483945f613674565b809550613a4f9350613abb96949250549084613a49655af3107a400063ffffffff8560e01c809703169460181c60020b02614413565b91614218565b9190507fffffffffffffffffffffffffffffffffffffffffffffffffffffffffff0000008354169060020b62ffffff1617825560020b7fffffffffffffffffffffffffffffffffffffffffffffffffffff000000ffffff82549160181b65ffffff000000169116179055565b613a0a565b637c5f487d5f526004601cfd5b7f35278d12000000000000000000000000000000000000000000000000000000005f5260045ffd5b3d15613b4d573d9067ffffffffffffffff8211612b4d5760405191613b42601f82017fffffffffffffffffffffffffffffffffffffffffffffffffffffffffffffffe01660200184612b7a565b82523d5f602084013e565b606090565b73ffffffffffffffffffffffffffffffffffffffff600554168015612cf957803b156107ab575f80916004604051809481937f016312bd0000000000000000000000000000000000000000000000000000000083525af19081613be6575b5061359f577fd4efb79ad6c27a0bcfb2ec9d03f1b77b190614af8b933c14a873bb8b00519d41613be1612a5d613af5565b0390a1565b5f613bf091612b7a565b5f613bb0565b602090602473ffffffffffffffffffffffffffffffffffffffff93604051613c5a85828180820195805191829101875e81015f8382015203017fffffffffffffffffffffffffffffffffffffffffffffffffffffffffffffffe08101835282612b7a565b51902060405194859384927f8eaa6ac00000000000000000000000000000000000000000000000000000000084526004840152165afa9081156107a0575f91613ca1575090565b90506020813d602011613cc8575b81613cbc60209383612b7a565b810103126107ab575190565b3d9150613caf565b91906014526034526fa9059cbb0000000000000000000000005f5260205f6044601082855af1908160015f51141615613d0c575b50505f603452565b3b153d171015613d1d575f80613d04565b6390b8ec185f526004601cfd5b93613d36838387614318565b15935f94613d47575b505050505050565b73ffffffffffffffffffffffffffffffffffffffff7f00000000000000000000000000000000000000000000000000000000000000001673ffffffffffffffffffffffffffffffffffffffff87161490815f14613f03576cffffffffffffffffffffffffff80600654165b16928215613efb5750915b84613dc88285612dce565b1015613ed35760055473ffffffffffffffffffffffffffffffffffffffff16928215613ecc57613e01613dfb8383612dce565b87612dce565b925b15613eb45750505f5b823b156107ab5760445f928360405195869485937f6e364041000000000000000000000000000000000000000000000000000000008552600485015260248401525af180156107a057613e9e575b50613e659293614318565b15613e7657505f8080808080613d3f565b807f90b8ec180000000000000000000000000000000000000000000000000000000060049252fd5b613e6593505f613ead91612b7a565b5f92613e5a565b613ec791613ec191612dce565b85612dce565b613e0c565b5f92613e03565b7f90b8ec18000000000000000000000000000000000000000000000000000000005f5260045ffd5b905091613dbd565b6cffffffffffffffffffffffffff8060065460681c16613db2565b6cffffffffffffffffffffffffff8111613f44576cffffffffffffffffffffffffff1690565b7f6dfcc650000000000000000000000000000000000000000000000000000000005f52606860045260245260445ffd5b916040519360605260405260601b602c526f23b872dd000000000000000000000000600c5260205f6064601c82855af1908160015f51141615613fbd575b50505f606052604052565b3b153d171015613fce575f80613fb2565b637939f4245f526004601cfd5b9190821561407f5780151580614076575b1561404e5782613ffb91612ddb565b91620f4240830292808404620f42401490151715611efb5761401c91612dce565b91620f42400391620f42408311611efb576140409261403a91612ddb565b90612dee565b60018101809111611efb5790565b7fe46b4e9b000000000000000000000000000000000000000000000000000000005f5260045ffd5b50811515613fec565b7fd5f8366d000000000000000000000000000000000000000000000000000000005f5260045ffd5b929192801561407f57811592831580614106575b1561404e57620f42400390620f42408211611efb576140e4916140dd91612ddb565b9384612ddb565b91620f42408202918204620f4240141715611efb576132ce9261403a9161322c565b508415156140bb565b9190928181115f146141785761414a6132ce94927f5314098314219d6e1ce8e41fc5e6ec1ce2f06a9d583079fb6619af9bf6efdf4192612dce565b6040805173ffffffffffffffffffffffffffffffffffffffff959095168552602085018290529093a161322c565b90808210156141de576141b06132ce94927f72fba0ba07d937c660a3130fca36005c0e476cb97b6f00de413976e37eba950192612dce565b6040805173ffffffffffffffffffffffffffffffffffffffff959095168552602085018290529093a1612dce565b50505090565b156141eb57565b7f4e487b71000000000000000000000000000000000000000000000000000000005f52600160045260245ffd5b93909261422583866148db565b600854926fffffffffffffffffffffffffffffffff8416916142478484612ddb565b10159061425486896148db565b9460801c80958361430d575b50508115614304575b501561427757505050509091565b61428692939450959495612ddb565b9081811090821802188184115f146142d057670de0b6b3a7640000019081670de0b6b3a764000011611efb576142c7916142bf9161491a565b9283106141e4565b6132ce826149cd565b670de0b6b3a76400000390670de0b6b3a76400008211611efb576142ff916142f79161491a565b9283116141e4565b6142c7565b9050155f614269565b11159150845f614260565b5f92918373ffffffffffffffffffffffffffffffffffffffff8194604051908260208301957fa9059cbb00000000000000000000000000000000000000000000000000000000875216602483015260448201526044815261437a606482612b7a565b5193165af1614387613af5565b81614390575090565b80518015925082156143a157505090565b81925090602091810103126107ab576020015180151581036107ab5790565b156143c757565b7f462c92f5000000000000000000000000000000000000000000000000000000005f5260045ffd5b8015612df8576ec097ce7bc90715b34b9f10000000000590565b8115612df8570590565b7ffffffffffffffffffffffffffffffffffffffffffffffffdc702bd3a30fc0000811215806148c8575b614446906143c0565b5f81126148b4576132ce906806f05b59d3b2000000811261485d577ffffffffffffffffffffffffffffffffffffffffffffffff90fa4a62c4e000000016146266064770195e54c5dd42177f53a27172fa9ec630262827000000000925b0268056bc75e2d631000009068ad78ebc5ac62000000811215614824575b6856bc75e2d6310000008112156147da575b682b5e3af16b18800000811215614792575b6815af1d78b58c40000081121561474a575b680ad78ebc5ac6200000811215614703575b68056bc75e2d631000008112156146bc575b6802b5e3af16b1880000811215614675575b68015af1d78b58c4000081121561462e575b600268056bc75e2d631000008280020505600368056bc75e2d631000008383020505600468056bc75e2d631000008483020505600568056bc75e2d631000008583020505600668056bc75e2d631000008683020505600768056bc75e2d63100000878302050590600868056bc75e2d63100000888402050592600968056bc75e2d6310000089860205059468056bc75e2d63100000600a8a880282900505976145f768056bc75e2d631000008c8b02055b600b900590565b99600c68056bc75e2d631000008d8d0205059b0101010101010101010101010268056bc75e2d63100000900590565b026064900590565b6806f5f17757889379377ffffffffffffffffffffffffffffffffffffffffffffffffea50e2874a73c000061466f9201920268056bc75e2d63100000900590565b9061453f565b6808f00f760a4b2db55d7ffffffffffffffffffffffffffffffffffffffffffffffffd4a1c50e94e7800006146b69201920268056bc75e2d63100000900590565b9061452d565b680ebc5fb417461211107ffffffffffffffffffffffffffffffffffffffffffffffffa9438a1d29cf000006146fd9201920268056bc75e2d63100000900590565b9061451b565b68280e60114edb805d037ffffffffffffffffffffffffffffffffffffffffffffffff5287143a539e000006147449201920268056bc75e2d63100000900590565b90614509565b690127fa27722cc06cc5e27fffffffffffffffffffffffffffffffffffffffffffffffea50e2874a73c0000061478c9201920268056bc75e2d63100000900590565b906144f7565b693f1fce3da636ea5cf8507fffffffffffffffffffffffffffffffffffffffffffffffd4a1c50e94e78000006147d49201920268056bc75e2d63100000900590565b906144e5565b6b02df0ab5a80a22c61ab5a7007fffffffffffffffffffffffffffffffffffffffffffffffa9438a1d29cf00000061481e9201920268056bc75e2d63100000900590565b906144d3565b6e01855144814a7ff805980ff008400091507fffffffffffffffffffffffffffffffffffffffffffffff5287143a539e000000016144c1565b6803782dace9d900000081126148a7577ffffffffffffffffffffffffffffffffffffffffffffffffc87d25316270000000161462660646b1425982cf597cd205cef7380926144a3565b61462660646001926144a3565b6148bf905f03614413565b6132ce906143ef565b5068070c1cc73b00c8000081131561443d565b8190818111156149125703905b670de0b6b3a7640000820291808304670de0b6b3a76400001490151715611efb576132ce91612dee565b9003906148e8565b81810291670de0b6b3a764000081838504148315170215614945575050670de0b6b3a7640000900490565b807fffffffffffffffffffffffffffffffffffffffffffffffffffffffffffffffff670de0b6b3a76400009284098481108501900392099080670de0b6b3a764000011156149c057828211900360ee1b910360121c177faccb18165bd6fe31ae1cf318dc5b51eee0e1ba569b88cd74c1773b91fac106690290565b63ae47f7025f526004601cfd5b6149d690614a8a565b5f811315614a6357652d79883d2000015b807ffffffffffffffffffffffffffffffffffffffffffffffffdc702bd3a30fc0000811215614a3757507ffffffffffffffffffffffffffffffffffffffffffffffffffffffffffff9be70919050565b68070c1cc73b00c8000012614a53575b655af3107a4000900590565b5068070c1cc73b00c80000614a47565b7fffffffffffffffffffffffffffffffffffffffffffffffffffffd28677c2e000016149e7565b5f811315614b985780670c7d713b49da00001280614b87575b15614b7e57670de0b6b3a7640000026ec097ce7bc90715b34b9f10000000008101907fffffffffffffffffffffffffffffffffff3f68318436f8ea4cb460f000000000016ec097ce7bc90715b34b9f10000000000290614b0291614409565b670de0b6b3a764000060036ec097ce7bc90715b34b9f1000000000838002819005808502829005928305909401600592850282900592830501600792850282900592830501600992850282900592830501600b92850282900592830501600d92850282900592830501600f9290940205059190910160011b0590565b6132ce90614bc0565b50670f43fc2c04ee00008112614aa3565b7fda77a322000000000000000000000000000000000000000000000000000000005f5260045ffd5b670de0b6b3a76400008112614fe7576132ce905f7e1600ef3172e58d2e933ec884fde10064c63b5372d805e203c0000000000000821215614fbc575b73011798004d755d3c8bc8e03204cf44619e000000821215614f8f575b614d1c906064808492029302906e01855144814a7ff805980ff0084000821215614f55575b506b02df0ab5a80a22c61ab5a700811215614f22575b693f1fce3da636ea5cf850811215614ef1575b690127fa27722cc06cc5e2811215614ec0575b68280e60114edb805d03811215614e90575b680ebc5fb41746121110811215614e70575b6808f00f760a4b2db55d811215614e40575b6806f5f1775788937937811215614e10575b6806248f33704b286603811215614de1575b6805c548670b9510e7ac811215614db2575b68056bc75e2d631000007ffffffffffffffffffffffffffffffffffffffffffffffffa9438a1d29cf00000818301920102614409565b614da66145f068056bc75e2d6310000083800205614d8f81614d7881614d618168056bc75e2d631000008a8202059960038b0501990268056bc75e2d63100000900590565b976005890501970268056bc75e2d63100000900590565b956007870501950268056bc75e2d63100000900590565b936009850501930268056bc75e2d63100000900590565b0160011b016064900590565b614dd968056bc75e2d631000006756bc75e2d631000092026805c548670b9510e7ac900590565b920191614ce6565b614e0868056bc75e2d6310000067ad78ebc5ac62000092026806248f33704b286603900590565b920191614cd4565b614e3868056bc75e2d6310000068015af1d78b58c4000092026806f5f1775788937937900590565b920191614cc2565b614e6868056bc75e2d631000006802b5e3af16b188000092026808f00f760a4b2db55d900590565b920191614cb0565b68056bc75e2d6310000092830192680ebc5fb41746121110910205614c9e565b614eb868056bc75e2d63100000680ad78ebc5ac6200000920268280e60114edb805d03900590565b920191614c8c565b614ee968056bc75e2d631000006815af1d78b58c4000009202690127fa27722cc06cc5e2900590565b920191614c7a565b614f1a68056bc75e2d63100000682b5e3af16b188000009202693f1fce3da636ea5cf850900590565b920191614c67565b614f4d68056bc75e2d631000006856bc75e2d63100000092026b02df0ab5a80a22c61ab5a700900590565b920191614c54565b68ad78ebc5ac62000000915069021e19e0c9bab2400000614f8691026e01855144814a7ff805980ff0084000900590565b9201915f614c3e565b906803782dace9d9000000614fb3614d1c926b1425982cf597cd205cef7380900590565b92019050614c19565b50770195e54c5dd42177f53a27172fa9ec63026282700000000090056806f05b59d3b2000000614bfc565b614ff3614ff8916143ef565b614bc0565b5f039056fea26469706673582212201f6b0c48063896ee47a7d12350583eb6f3df8a7b28fe66c7a7e6074f349926b164736f6c634300081c0033","linkReferences":{}},"methodIdentifiers":{"ACCURACY()":"fbcd9b05","DOMAIN_SEPARATOR()":"3644e515","FEE_ACCURACY()":"db6488dc","MAX_PLATFORM_FEE()":"3998a681","MAX_SWAP_FEE()":"ab3d8544","MINIMUM_LIQUIDITY()":"ba9a7a56","SQUARED_ACCURACY()":"48ee4332","_observations(uint256)":"bb625478","adjustManagement(int256,int256)":"97e37764","allowance(address,address)":"dd62ed3e","approve(address,uint256)":"095ea7b3","assetManager()":"94217ad1","balanceOf(address)":"70a08231","burn(address)":"89afcb44","customPlatformFee()":"7c3cbc7c","customSwapFee()":"c58771ef","decimals()":"313ce567","factory()":"c45a0155","getReserves()":"0902f1ac","kLast()":"7464fc3d","maxChangePerTrade()":"4a1d6fa7","maxChangeRate()":"85faf624","mint(address)":"6a627842","name()":"06fdde03","nonces(address)":"7ecebe00","observation(uint256)":"9d62a694","permit(address,address,uint256,uint256,uint8,bytes32,bytes32)":"d505accf","platformFee()":"26232a2e","recoverToken(address)":"9be65a60","setClampParams(uint128,uint128)":"6156385d","setCustomPlatformFee(uint256)":"afb4a43b","setCustomSwapFee(uint256)":"9568e73b","setManager(address)":"d0ebdbe7","skim(address)":"bc25cf77","skimExcessManaged(address)":"7aec721b","swap(int256,bool,address,bytes)":"e12bd9d8","swapFee()":"54cf2aeb","symbol()":"95d89b41","sync()":"fff6cae9","token0()":"0dfe1681","token0Managed()":"e9bdf7b8","token0PrecisionMultiplier()":"baa8c7cb","token1()":"d21220a7","token1Managed()":"ad7853e9","token1PrecisionMultiplier()":"4e25dc47","totalSupply()":"18160ddd","transfer(address,uint256)":"a9059cbb","transferFrom(address,address,uint256)":"23b872dd","updatePlatformFee()":"dbc781bc","updateSwapFee()":"0c472afd"},"id":45}