{
  "abi": [
    {
      "type": "function",
      "name": "_curves",
      "inputs": [
        {
          "name": "",
          "type": "uint256",
          "internalType": "uint256"
        }
      ],
      "outputs": [
        {
          "name": "",
          "type": "bytes32",
          "internalType": "bytes32"
        }
      ],
      "stateMutability": "view"
    },
    {
      "type": "function",
      "name": "addCurve",
      "inputs": [
        {
          "name": "aInitCode",
          "type": "bytes",
          "internalType": "bytes"
        }
      ],
      "outputs": [
        {
          "name": "rCurveId",
          "type": "uint256",
          "internalType": "uint256"
        },
        {
          "name": "rCodeKey",
          "type": "bytes32",
          "internalType": "bytes32"
        }
      ],
      "stateMutability": "nonpayable"
    },
    {
      "type": "function",
      "name": "allPairs",
      "inputs": [],
      "outputs": [
        {
          "name": "",
          "type": "address[]",
          "internalType": "address[]"
        }
      ],
      "stateMutability": "view"
    },
    {
      "type": "function",
      "name": "createPair",
      "inputs": [
        {
          "name": "aTokenA",
          "type": "address",
          "internalType": "contract IERC20"
        },
        {
          "name": "aTokenB",
          "type": "address",
          "internalType": "contract IERC20"
        },
        {
          "name": "aCurveId",
          "type": "uint256",
          "internalType": "uint256"
        }
      ],
      "outputs": [
        {
          "name": "rPair",
          "type": "address",
          "internalType": "address"
        }
      ],
      "stateMutability": "nonpayable"
    },
    {
      "type": "function",
      "name": "curves",
      "inputs": [],
      "outputs": [
        {
          "name": "",
          "type": "bytes32[]",
          "internalType": "bytes32[]"
        }
      ],
      "stateMutability": "view"
    },
    {
      "type": "function",
      "name": "get",
      "inputs": [
        {
          "name": "",
          "type": "bytes32",
          "internalType": "bytes32"
        }
      ],
      "outputs": [
        {
          "name": "",
          "type": "bytes32",
          "internalType": "bytes32"
        }
      ],
      "stateMutability": "view"
    },
    {
      "type": "function",
      "name": "getBytecode",
      "inputs": [
        {
          "name": "aCodeKey",
          "type": "bytes32",
          "internalType": "bytes32"
        },
        {
          "name": "aToken0",
          "type": "address",
          "internalType": "contract IERC20"
        },
        {
          "name": "aToken1",
          "type": "address",
          "internalType": "contract IERC20"
        }
      ],
      "outputs": [
        {
          "name": "",
          "type": "bytes",
          "internalType": "bytes"
        }
      ],
      "stateMutability": "view"
    },
    {
      "type": "function",
      "name": "getPair",
      "inputs": [
        {
          "name": "",
          "type": "address",
          "internalType": "contract IERC20"
        },
        {
          "name": "",
          "type": "address",
          "internalType": "contract IERC20"
        },
        {
          "name": "",
          "type": "uint256",
          "internalType": "uint256"
        }
      ],
      "outputs": [
        {
          "name": "",
          "type": "address",
          "internalType": "address"
        }
      ],
      "stateMutability": "view"
    },
    {
      "type": "function",
      "name": "owner",
      "inputs": [],
      "outputs": [
        {
          "name": "",
          "type": "address",
          "internalType": "address"
        }
      ],
      "stateMutability": "view"
    },
    {
      "type": "function",
      "name": "rawCall",
      "inputs": [
        {
          "name": "aTarget",
          "type": "address",
          "internalType": "address"
        },
        {
          "name": "aCalldata",
          "type": "bytes",
          "internalType": "bytes"
        },
        {
          "name": "aValue",
          "type": "uint256",
          "internalType": "uint256"
        }
      ],
      "outputs": [
        {
          "name": "",
          "type": "bytes",
          "internalType": "bytes"
        }
      ],
      "stateMutability": "nonpayable"
    },
    {
      "type": "function",
      "name": "set",
      "inputs": [
        {
          "name": "aKey",
          "type": "bytes32",
          "internalType": "bytes32"
        },
        {
          "name": "aValue",
          "type": "bytes32",
          "internalType": "bytes32"
        }
      ],
      "outputs": [],
      "stateMutability": "nonpayable"
    },
    {
      "type": "function",
      "name": "transferOwnership",
      "inputs": [
        {
          "name": "newOwner",
          "type": "address",
          "internalType": "address"
        }
      ],
      "outputs": [],
      "stateMutability": "nonpayable"
    },
    {
      "type": "event",
      "name": "OwnershipTransferred",
      "inputs": [
        {
          "name": "user",
          "type": "address",
          "indexed": true,
          "internalType": "address"
        },
        {
          "name": "newOwner",
          "type": "address",
          "indexed": true,
          "internalType": "address"
        }
      ],
      "anonymous": false
    },
    {
      "type": "event",
      "name": "Pair",
      "inputs": [
        {
          "name": "token0",
          "type": "address",
          "indexed": true,
          "internalType": "contract IERC20"
        },
        {
          "name": "token1",
          "type": "address",
          "indexed": true,
          "internalType": "contract IERC20"
        },
        {
          "name": "curveId",
          "type": "uint256",
          "indexed": false,
          "internalType": "uint256"
        },
        {
          "name": "pair",
          "type": "address",
          "indexed": false,
          "internalType": "address"
        }
      ],
      "anonymous": false
    },
    {
      "type": "error",
      "name": "AddressEmptyCode",
      "inputs": [
        {
          "name": "target",
          "type": "address",
          "internalType": "address"
        }
      ]
    },
    {
      "type": "error",
      "name": "DeployFailed",
      "inputs": []
    },
    {
      "type": "error",
      "name": "FailedCall",
      "inputs": []
    },
    {
      "type": "error",
      "name": "IdenticalAddresses",
      "inputs": []
    },
    {
      "type": "error",
      "name": "InsufficientBalance",
      "inputs": [
        {
          "name": "balance",
          "type": "uint256",
          "internalType": "uint256"
        },
        {
          "name": "needed",
          "type": "uint256",
          "internalType": "uint256"
        }
      ]
    },
    {
      "type": "error",
      "name": "PairExists",
      "inputs": []
    },
    {
      "type": "error",
      "name": "ZeroAddress",
      "inputs": []
    }
  ],
  "bytecode": {
    "object": "0x60808060405234604d575f80546001600160a01b031916339081178255907f8be0079c531659141344cd1fd0a4f28419497f9722a3daafe3b4186f6b6457e08180a3610f9390816100528239f35b5f80fdfe6080806040526004361015610012575f80fd5b5f3560e01c9081635accf17514610a92575080635eced48014610a1557806365d0123f1461099557806366d3fede1461087a5780636b600d1c146105cc5780638da5cb5b1461057c5780638eaa6ac014610534578063c97682f814610434578063d47e9c47146103de578063f2fde38b14610332578063f71f7a25146102cb5763ff6eef52146100a0575f80fd5b346102c75760207ffffffffffffffffffffffffffffffffffffffffffffffffffffffffffffffffc3601126102c75760043567ffffffffffffffff81116102c7576100ef903690600401610c40565b9061011273ffffffffffffffffffffffffffffffffffffffff5f54163314610def565b60035490610121368483610e8e565b60208151910120926801000000000000000083101561028d576001830160035561014a83610c6e565b81549060031b907fffffffffffffffffffffffffffffffffffffffffffffffffffffffffffffffff87831b921b19161790555f915f925b828410610198576040858782519182526020820152f35b615fff840180851161026057808410818518021893865f52600260205260405f20908581116102c7578486116102c7576101d9903690808803908601610e8e565b9081518060401b6bfe61000180600a3d393df3000161fffe8211840152600b8101601584015ff09283156102ba575280546801000000000000000081101561028d5761022a91600182018155610cb3565b73ffffffffffffffffffffffffffffffffffffffff80839493549260031b9316831b921b19161790556001810180911115610181575b7f4e487b71000000000000000000000000000000000000000000000000000000005f52601160045260245ffd5b7f4e487b71000000000000000000000000000000000000000000000000000000005f52604160045260245ffd5b63301164255f526004601cfd5b5f80fd5b346102c75760407ffffffffffffffffffffffffffffffffffffffffffffffffffffffffffffffffc3601126102c75761031c73ffffffffffffffffffffffffffffffffffffffff5f54163314610def565b6004355f52600160205260243560405f20555f80f35b346102c75760207ffffffffffffffffffffffffffffffffffffffffffffffffffffffffffffffffc3601126102c7577fffffffffffffffffffffffff000000000000000000000000000000000000000061038a610c1d565b73ffffffffffffffffffffffffffffffffffffffff5f54916103af8284163314610def565b1691829116175f55337f8be0079c531659141344cd1fd0a4f28419497f9722a3daafe3b4186f6b6457e05f80a3005b346102c75760207ffffffffffffffffffffffffffffffffffffffffffffffffffffffffffffffffc3601126102c7576004356003548110156102c757610425602091610c6e565b90549060031b1c604051908152f35b346102c7575f7ffffffffffffffffffffffffffffffffffffffffffffffffffffffffffffffffc3601126102c7576040518060206005549283815201809260055f527f036b6384b5eca791c62761152d0c79bb0604c104a5fb6f4eb0703f3154bb3db0905f5b81811061050857505050816104b0910382610cc8565b604051918291602083019060208452518091526040830191905f5b8181106104d9575050500390f35b825173ffffffffffffffffffffffffffffffffffffffff168452859450602093840193909201916001016104cb565b825473ffffffffffffffffffffffffffffffffffffffff1684526020909301926001928301920161049a565b346102c75760207ffffffffffffffffffffffffffffffffffffffffffffffffffffffffffffffffc3601126102c7576004355f526001602052602060405f2054604051908152f35b346102c7575f7ffffffffffffffffffffffffffffffffffffffffffffffffffffffffffffffffc3601126102c757602073ffffffffffffffffffffffffffffffffffffffff5f5416604051908152f35b346102c7576105da36610b63565b9173ffffffffffffffffffffffffffffffffffffffff821673ffffffffffffffffffffffffffffffffffffffff82169080821461085257811561082a57815f52600460205260405f20815f5260205260405f20855f5260205273ffffffffffffffffffffffffffffffffffffffff60405f20541661080257808210156107f9575050905b73ffffffffffffffffffffffffffffffffffffffff5f61068e838561068288610c6e565b90549060031b1c610d09565b60208151910182f5169182156107d15773ffffffffffffffffffffffffffffffffffffffff80911691825f52600460205260405f208282165f5260205260405f20855f5260205260405f20847fffffffffffffffffffffffff00000000000000000000000000000000000000008254161790551690815f52600460205260405f20815f5260205260405f20845f5260205260405f20837fffffffffffffffffffffffff0000000000000000000000000000000000000000825416179055600554936801000000000000000085101561028d5760407f6b14b0d0c4213e7b59c3f164788ae9f2e4376b580e4ec11f93d63f26580417b191610798876001602099016005556005610cb3565b81549060031b9073ffffffffffffffffffffffffffffffffffffffff89831b921b191617905581519081528587820152a3604051908152f35b7fb4f54111000000000000000000000000000000000000000000000000000000005f5260045ffd5b9250905061065e565b7f3d77e891000000000000000000000000000000000000000000000000000000005f5260045ffd5b7fd92e233d000000000000000000000000000000000000000000000000000000005f5260045ffd5b7fbd969eb0000000000000000000000000000000000000000000000000000000005f5260045ffd5b346102c75760607ffffffffffffffffffffffffffffffffffffffffffffffffffffffffffffffffc3601126102c7576108b1610c1d565b6024359067ffffffffffffffff82116102c7576108d5610904923690600401610c40565b9290604435936108fd73ffffffffffffffffffffffffffffffffffffffff5f54163314610def565b3691610e8e565b82471061096557905f808361095995602061094d9651920190855af13d1561095d573d9161093183610e54565b9261093f6040519485610cc8565b83523d5f602085013e610ec4565b60405191829182610bd5565b0390f35b606091610ec4565b82477fcf479181000000000000000000000000000000000000000000000000000000005f5260045260245260445ffd5b346102c75760607ffffffffffffffffffffffffffffffffffffffffffffffffffffffffffffffffc3601126102c75760243573ffffffffffffffffffffffffffffffffffffffff811681036102c7576044359073ffffffffffffffffffffffffffffffffffffffff821682036102c7576109599161094d91600435610d09565b346102c75773ffffffffffffffffffffffffffffffffffffffff610a3836610b63565b929091165f52600460205273ffffffffffffffffffffffffffffffffffffffff60405f2091165f5260205260405f20905f52602052602073ffffffffffffffffffffffffffffffffffffffff60405f205416604051908152f35b346102c7575f7ffffffffffffffffffffffffffffffffffffffffffffffffffffffffffffffffc3601126102c7576003549081815260208101809260035f527fc2575a0e9e593c00f959f8c92f12db2869c3395a3b0502d05e2516446f71f85b905f5b818110610b4d5750505081610b0b910382610cc8565b604051918291602083019060208452518091526040830191905f5b818110610b34575050500390f35b8251845285945060209384019390920191600101610b26565b8254845260209093019260019283019201610af5565b7ffffffffffffffffffffffffffffffffffffffffffffffffffffffffffffffffc60609101126102c75760043573ffffffffffffffffffffffffffffffffffffffff811681036102c7579060243573ffffffffffffffffffffffffffffffffffffffff811681036102c7579060443590565b7fffffffffffffffffffffffffffffffffffffffffffffffffffffffffffffffe0601f602060409481855280519182918282880152018686015e5f8582860101520116010190565b6004359073ffffffffffffffffffffffffffffffffffffffff821682036102c757565b9181601f840112156102c75782359167ffffffffffffffff83116102c757602083818601950101116102c757565b600354811015610c865760035f5260205f2001905f90565b7f4e487b71000000000000000000000000000000000000000000000000000000005f52603260045260245ffd5b8054821015610c86575f5260205f2001905f90565b90601f7fffffffffffffffffffffffffffffffffffffffffffffffffffffffffffffffe0910116810190811067ffffffffffffffff82111761028d57604052565b9291925f52600260205260405f2092604051808560208297549384815201905f5260205f20925f5b818110610dc0575050610d4692500385610cc8565b8351906040519260208401925f905b808210610d7b575050604093949550825260208201526020825182030183520160405290565b90937fffffffffffffffffffffffffffffffffffffffffffffffffffffffffffffffff60019160208760051b8b01015190813b918482858501923c0101940190610d55565b845473ffffffffffffffffffffffffffffffffffffffff16835260019485019489945060209093019201610d31565b15610df657565b60646040517f08c379a000000000000000000000000000000000000000000000000000000000815260206004820152600c60248201527f554e415554484f52495a454400000000000000000000000000000000000000006044820152fd5b67ffffffffffffffff811161028d57601f017fffffffffffffffffffffffffffffffffffffffffffffffffffffffffffffffe01660200190565b929192610e9a82610e54565b91610ea86040519384610cc8565b8294818452818301116102c7578281602093845f960137010152565b90610f015750805115610ed957805190602001fd5b7fd6bda275000000000000000000000000000000000000000000000000000000005f5260045ffd5b81511580610f54575b610f12575090565b73ffffffffffffffffffffffffffffffffffffffff907f9996b315000000000000000000000000000000000000000000000000000000005f521660045260245ffd5b50803b15610f0a56fea26469706673582212205b7d560961debe4c79b753beb83a8cd68fccdaf6451d9cc7a3628e4ca91f2a8264736f6c634300081c0033",
    "linkReferences": {}
  },
  "methodIdentifiers": {
    "_curves(uint256)": "d47e9c47",
    "addCurve(bytes)": "ff6eef52",
    "allPairs()": "c97682f8",
    "createPair(address,address,uint256)": "6b600d1c",
    "curves()": "5accf175",
    "get(bytes32)": "8eaa6ac0",
    "getBytecode(bytes32,address,address)": "65d0123f",
    "getPair(address,address,uint256)": "5eced480",
    "owner()": "8da5cb5b",
    "rawCall(address,bytes,uint256)": "66d3fede",
    "set(bytes32,bytes32)": "f71f7a25",
    "transferOwnership(address)": "f2fde38b"
  },
  "id": 39
}