{
  "abi": [
    {
      "type": "constructor",
      "inputs": [
        {
          "name": "aToken0",
          "type": "address",
          "internalType": "contract IERC20"
        },
        {
          "name": "aToken1",
          "type": "address",
          "internalType": "contract IERC20"
        }
      ],
      "stateMutability": "nonpayable"
    },
    {
      "type": "function",
      "name": "DOMAIN_SEPARATOR",
      "inputs": [],
      "outputs": [
        {
          "name": "result",
          "type": "bytes32",
          "internalType": "bytes32"
        }
      ],
      "stateMutability": "view"
    },
    {
      "type": "function",
      "name": "FEE_ACCURACY",
      "inputs": [],
      "outputs": [
        {
          "name": "",
          "type": "uint256",
          "internalType": "uint256"
        }
      ],
      "stateMutability": "view"
    },
    {
      "type": "function",
      "name": "MAX_PLATFORM_FEE",
      "inputs": [],
      "outputs": [
        {
          "name": "",
          "type": "uint256",
          "internalType": "uint256"
        }
      ],
      "stateMutability": "view"
    },
    {
      "type": "function",
      "name": "MAX_SWAP_FEE",
      "inputs": [],
      "outputs": [
        {
          "name": "",
          "type": "uint256",
          "internalType": "uint256"
        }
      ],
      "stateMutability": "view"
    },
    {
      "type": "function",
      "name": "MINIMUM_LIQUIDITY",
      "inputs": [],
      "outputs": [
        {
          "name": "",
          "type": "uint256",
          "internalType": "uint256"
        }
      ],
      "stateMutability": "view"
    },
    {
      "type": "function",
      "name": "_observations",
      "inputs": [
        {
          "name": "",
          "type": "uint256",
          "internalType": "uint256"
        }
      ],
      "outputs": [
        {
          "name": "logInstantRawPrice",
          "type": "int24",
          "internalType": "int24"
        },
        {
          "name": "logInstantClampedPrice",
          "type": "int24",
          "internalType": "int24"
        },
        {
          "name": "logAccRawPrice",
          "type": "int88",
          "internalType": "int88"
        },
        {
          "name": "logAccClampedPrice",
          "type": "int88",
          "internalType": "int88"
        },
        {
          "name": "timestamp",
          "type": "uint32",
          "internalType": "uint32"
        }
      ],
      "stateMutability": "view"
    },
    {
      "type": "function",
      "name": "adjustManagement",
      "inputs": [
        {
          "name": "aToken0Change",
          "type": "int256",
          "internalType": "int256"
        },
        {
          "name": "aToken1Change",
          "type": "int256",
          "internalType": "int256"
        }
      ],
      "outputs": [],
      "stateMutability": "nonpayable"
    },
    {
      "type": "function",
      "name": "allowance",
      "inputs": [
        {
          "name": "owner",
          "type": "address",
          "internalType": "address"
        },
        {
          "name": "spender",
          "type": "address",
          "internalType": "address"
        }
      ],
      "outputs": [
        {
          "name": "result",
          "type": "uint256",
          "internalType": "uint256"
        }
      ],
      "stateMutability": "view"
    },
    {
      "type": "function",
      "name": "ampData",
      "inputs": [],
      "outputs": [
        {
          "name": "initialA",
          "type": "uint64",
          "internalType": "uint64"
        },
        {
          "name": "futureA",
          "type": "uint64",
          "internalType": "uint64"
        },
        {
          "name": "initialATime",
          "type": "uint64",
          "internalType": "uint64"
        },
        {
          "name": "futureATime",
          "type": "uint64",
          "internalType": "uint64"
        }
      ],
      "stateMutability": "view"
    },
    {
      "type": "function",
      "name": "approve",
      "inputs": [
        {
          "name": "spender",
          "type": "address",
          "internalType": "address"
        },
        {
          "name": "amount",
          "type": "uint256",
          "internalType": "uint256"
        }
      ],
      "outputs": [
        {
          "name": "",
          "type": "bool",
          "internalType": "bool"
        }
      ],
      "stateMutability": "nonpayable"
    },
    {
      "type": "function",
      "name": "assetManager",
      "inputs": [],
      "outputs": [
        {
          "name": "",
          "type": "address",
          "internalType": "contract IAssetManager"
        }
      ],
      "stateMutability": "view"
    },
    {
      "type": "function",
      "name": "balanceOf",
      "inputs": [
        {
          "name": "owner",
          "type": "address",
          "internalType": "address"
        }
      ],
      "outputs": [
        {
          "name": "result",
          "type": "uint256",
          "internalType": "uint256"
        }
      ],
      "stateMutability": "view"
    },
    {
      "type": "function",
      "name": "burn",
      "inputs": [
        {
          "name": "aTo",
          "type": "address",
          "internalType": "address"
        }
      ],
      "outputs": [
        {
          "name": "rAmount0",
          "type": "uint256",
          "internalType": "uint256"
        },
        {
          "name": "rAmount1",
          "type": "uint256",
          "internalType": "uint256"
        }
      ],
      "stateMutability": "nonpayable"
    },
    {
      "type": "function",
      "name": "customPlatformFee",
      "inputs": [],
      "outputs": [
        {
          "name": "",
          "type": "uint256",
          "internalType": "uint256"
        }
      ],
      "stateMutability": "view"
    },
    {
      "type": "function",
      "name": "customSwapFee",
      "inputs": [],
      "outputs": [
        {
          "name": "",
          "type": "uint256",
          "internalType": "uint256"
        }
      ],
      "stateMutability": "view"
    },
    {
      "type": "function",
      "name": "decimals",
      "inputs": [],
      "outputs": [
        {
          "name": "",
          "type": "uint8",
          "internalType": "uint8"
        }
      ],
      "stateMutability": "view"
    },
    {
      "type": "function",
      "name": "factory",
      "inputs": [],
      "outputs": [
        {
          "name": "",
          "type": "address",
          "internalType": "contract IGenericFactory"
        }
      ],
      "stateMutability": "view"
    },
    {
      "type": "function",
      "name": "getCurrentA",
      "inputs": [],
      "outputs": [
        {
          "name": "",
          "type": "uint64",
          "internalType": "uint64"
        }
      ],
      "stateMutability": "view"
    },
    {
      "type": "function",
      "name": "getCurrentAPrecise",
      "inputs": [],
      "outputs": [
        {
          "name": "",
          "type": "uint64",
          "internalType": "uint64"
        }
      ],
      "stateMutability": "view"
    },
    {
      "type": "function",
      "name": "getReserves",
      "inputs": [],
      "outputs": [
        {
          "name": "rReserve0",
          "type": "uint104",
          "internalType": "uint104"
        },
        {
          "name": "rReserve1",
          "type": "uint104",
          "internalType": "uint104"
        },
        {
          "name": "rBlockTimestampLast",
          "type": "uint32",
          "internalType": "uint32"
        },
        {
          "name": "rIndex",
          "type": "uint16",
          "internalType": "uint16"
        }
      ],
      "stateMutability": "view"
    },
    {
      "type": "function",
      "name": "lastInvariant",
      "inputs": [],
      "outputs": [
        {
          "name": "",
          "type": "uint192",
          "internalType": "uint192"
        }
      ],
      "stateMutability": "view"
    },
    {
      "type": "function",
      "name": "lastInvariantAmp",
      "inputs": [],
      "outputs": [
        {
          "name": "",
          "type": "uint64",
          "internalType": "uint64"
        }
      ],
      "stateMutability": "view"
    },
    {
      "type": "function",
      "name": "maxChangePerTrade",
      "inputs": [],
      "outputs": [
        {
          "name": "",
          "type": "uint128",
          "internalType": "uint128"
        }
      ],
      "stateMutability": "view"
    },
    {
      "type": "function",
      "name": "maxChangeRate",
      "inputs": [],
      "outputs": [
        {
          "name": "",
          "type": "uint128",
          "internalType": "uint128"
        }
      ],
      "stateMutability": "view"
    },
    {
      "type": "function",
      "name": "mint",
      "inputs": [
        {
          "name": "aTo",
          "type": "address",
          "internalType": "address"
        }
      ],
      "outputs": [
        {
          "name": "rLiquidity",
          "type": "uint256",
          "internalType": "uint256"
        }
      ],
      "stateMutability": "nonpayable"
    },
    {
      "type": "function",
      "name": "mintFee",
      "inputs": [
        {
          "name": "aReserve0",
          "type": "uint256",
          "internalType": "uint256"
        },
        {
          "name": "aReserve1",
          "type": "uint256",
          "internalType": "uint256"
        }
      ],
      "outputs": [
        {
          "name": "rTotalSupply",
          "type": "uint256",
          "internalType": "uint256"
        },
        {
          "name": "rD",
          "type": "uint256",
          "internalType": "uint256"
        }
      ],
      "stateMutability": "nonpayable"
    },
    {
      "type": "function",
      "name": "name",
      "inputs": [],
      "outputs": [
        {
          "name": "",
          "type": "string",
          "internalType": "string"
        }
      ],
      "stateMutability": "pure"
    },
    {
      "type": "function",
      "name": "nonces",
      "inputs": [
        {
          "name": "owner",
          "type": "address",
          "internalType": "address"
        }
      ],
      "outputs": [
        {
          "name": "result",
          "type": "uint256",
          "internalType": "uint256"
        }
      ],
      "stateMutability": "view"
    },
    {
      "type": "function",
      "name": "observation",
      "inputs": [
        {
          "name": "aIndex",
          "type": "uint256",
          "internalType": "uint256"
        }
      ],
      "outputs": [
        {
          "name": "",
          "type": "tuple",
          "internalType": "struct Observation",
          "components": [
            {
              "name": "logInstantRawPrice",
              "type": "int24",
              "internalType": "int24"
            },
            {
              "name": "logInstantClampedPrice",
              "type": "int24",
              "internalType": "int24"
            },
            {
              "name": "logAccRawPrice",
              "type": "int88",
              "internalType": "int88"
            },
            {
              "name": "logAccClampedPrice",
              "type": "int88",
              "internalType": "int88"
            },
            {
              "name": "timestamp",
              "type": "uint32",
              "internalType": "uint32"
            }
          ]
        }
      ],
      "stateMutability": "view"
    },
    {
      "type": "function",
      "name": "permit",
      "inputs": [
        {
          "name": "owner",
          "type": "address",
          "internalType": "address"
        },
        {
          "name": "spender",
          "type": "address",
          "internalType": "address"
        },
        {
          "name": "value",
          "type": "uint256",
          "internalType": "uint256"
        },
        {
          "name": "deadline",
          "type": "uint256",
          "internalType": "uint256"
        },
        {
          "name": "v",
          "type": "uint8",
          "internalType": "uint8"
        },
        {
          "name": "r",
          "type": "bytes32",
          "internalType": "bytes32"
        },
        {
          "name": "s",
          "type": "bytes32",
          "internalType": "bytes32"
        }
      ],
      "outputs": [],
      "stateMutability": "nonpayable"
    },
    {
      "type": "function",
      "name": "platformFee",
      "inputs": [],
      "outputs": [
        {
          "name": "",
          "type": "uint256",
          "internalType": "uint256"
        }
      ],
      "stateMutability": "view"
    },
    {
      "type": "function",
      "name": "rampA",
      "inputs": [
        {
          "name": "aFutureARaw",
          "type": "uint64",
          "internalType": "uint64"
        },
        {
          "name": "aFutureATime",
          "type": "uint64",
          "internalType": "uint64"
        }
      ],
      "outputs": [],
      "stateMutability": "nonpayable"
    },
    {
      "type": "function",
      "name": "recoverToken",
      "inputs": [
        {
          "name": "aToken",
          "type": "address",
          "internalType": "contract IERC20"
        }
      ],
      "outputs": [],
      "stateMutability": "nonpayable"
    },
    {
      "type": "function",
      "name": "setClampParams",
      "inputs": [
        {
          "name": "aMaxChangeRate",
          "type": "uint128",
          "internalType": "uint128"
        },
        {
          "name": "aMaxChangePerTrade",
          "type": "uint128",
          "internalType": "uint128"
        }
      ],
      "outputs": [],
      "stateMutability": "nonpayable"
    },
    {
      "type": "function",
      "name": "setCustomPlatformFee",
      "inputs": [
        {
          "name": "aCustomPlatformFee",
          "type": "uint256",
          "internalType": "uint256"
        }
      ],
      "outputs": [],
      "stateMutability": "nonpayable"
    },
    {
      "type": "function",
      "name": "setCustomSwapFee",
      "inputs": [
        {
          "name": "aCustomSwapFee",
          "type": "uint256",
          "internalType": "uint256"
        }
      ],
      "outputs": [],
      "stateMutability": "nonpayable"
    },
    {
      "type": "function",
      "name": "setManager",
      "inputs": [
        {
          "name": "manager",
          "type": "address",
          "internalType": "contract IAssetManager"
        }
      ],
      "outputs": [],
      "stateMutability": "nonpayable"
    },
    {
      "type": "function",
      "name": "skim",
      "inputs": [
        {
          "name": "aTo",
          "type": "address",
          "internalType": "address"
        }
      ],
      "outputs": [],
      "stateMutability": "nonpayable"
    },
    {
      "type": "function",
      "name": "skimExcessManaged",
      "inputs": [
        {
          "name": "aToken",
          "type": "address",
          "internalType": "contract IERC20"
        }
      ],
      "outputs": [
        {
          "name": "rAmtSkimmed",
          "type": "uint256",
          "internalType": "uint256"
        }
      ],
      "stateMutability": "nonpayable"
    },
    {
      "type": "function",
      "name": "stopRampA",
      "inputs": [],
      "outputs": [],
      "stateMutability": "nonpayable"
    },
    {
      "type": "function",
      "name": "swap",
      "inputs": [
        {
          "name": "aAmount",
          "type": "int256",
          "internalType": "int256"
        },
        {
          "name": "aExactIn",
          "type": "bool",
          "internalType": "bool"
        },
        {
          "name": "aTo",
          "type": "address",
          "internalType": "address"
        },
        {
          "name": "aData",
          "type": "bytes",
          "internalType": "bytes"
        }
      ],
      "outputs": [
        {
          "name": "rAmountOut",
          "type": "uint256",
          "internalType": "uint256"
        }
      ],
      "stateMutability": "nonpayable"
    },
    {
      "type": "function",
      "name": "swapFee",
      "inputs": [],
      "outputs": [
        {
          "name": "",
          "type": "uint256",
          "internalType": "uint256"
        }
      ],
      "stateMutability": "view"
    },
    {
      "type": "function",
      "name": "symbol",
      "inputs": [],
      "outputs": [
        {
          "name": "",
          "type": "string",
          "internalType": "string"
        }
      ],
      "stateMutability": "pure"
    },
    {
      "type": "function",
      "name": "sync",
      "inputs": [],
      "outputs": [],
      "stateMutability": "nonpayable"
    },
    {
      "type": "function",
      "name": "token0",
      "inputs": [],
      "outputs": [
        {
          "name": "",
          "type": "address",
          "internalType": "contract IERC20"
        }
      ],
      "stateMutability": "view"
    },
    {
      "type": "function",
      "name": "token0Managed",
      "inputs": [],
      "outputs": [
        {
          "name": "",
          "type": "uint104",
          "internalType": "uint104"
        }
      ],
      "stateMutability": "view"
    },
    {
      "type": "function",
      "name": "token0PrecisionMultiplier",
      "inputs": [],
      "outputs": [
        {
          "name": "",
          "type": "uint128",
          "internalType": "uint128"
        }
      ],
      "stateMutability": "view"
    },
    {
      "type": "function",
      "name": "token1",
      "inputs": [],
      "outputs": [
        {
          "name": "",
          "type": "address",
          "internalType": "contract IERC20"
        }
      ],
      "stateMutability": "view"
    },
    {
      "type": "function",
      "name": "token1Managed",
      "inputs": [],
      "outputs": [
        {
          "name": "",
          "type": "uint104",
          "internalType": "uint104"
        }
      ],
      "stateMutability": "view"
    },
    {
      "type": "function",
      "name": "token1PrecisionMultiplier",
      "inputs": [],
      "outputs": [
        {
          "name": "",
          "type": "uint128",
          "internalType": "uint128"
        }
      ],
      "stateMutability": "view"
    },
    {
      "type": "function",
      "name": "totalSupply",
      "inputs": [],
      "outputs": [
        {
          "name": "result",
          "type": "uint256",
          "internalType": "uint256"
        }
      ],
      "stateMutability": "view"
    },
    {
      "type": "function",
      "name": "transfer",
      "inputs": [
        {
          "name": "to",
          "type": "address",
          "internalType": "address"
        },
        {
          "name": "amount",
          "type": "uint256",
          "internalType": "uint256"
        }
      ],
      "outputs": [
        {
          "name": "",
          "type": "bool",
          "internalType": "bool"
        }
      ],
      "stateMutability": "nonpayable"
    },
    {
      "type": "function",
      "name": "transferFrom",
      "inputs": [
        {
          "name": "from",
          "type": "address",
          "internalType": "address"
        },
        {
          "name": "to",
          "type": "address",
          "internalType": "address"
        },
        {
          "name": "amount",
          "type": "uint256",
          "internalType": "uint256"
        }
      ],
      "outputs": [
        {
          "name": "",
          "type": "bool",
          "internalType": "bool"
        }
      ],
      "stateMutability": "nonpayable"
    },
    {
      "type": "function",
      "name": "updatePlatformFee",
      "inputs": [],
      "outputs": [],
      "stateMutability": "nonpayable"
    },
    {
      "type": "function",
      "name": "updateSwapFee",
      "inputs": [],
      "outputs": [],
      "stateMutability": "nonpayable"
    },
    {
      "type": "event",
      "name": "AfterLiquidityEventFailed",
      "inputs": [
        {
          "name": "revert",
          "type": "bytes",
          "indexed": false,
          "internalType": "bytes"
        }
      ],
      "anonymous": false
    },
    {
      "type": "event",
      "name": "Approval",
      "inputs": [
        {
          "name": "owner",
          "type": "address",
          "indexed": true,
          "internalType": "address"
        },
        {
          "name": "spender",
          "type": "address",
          "indexed": true,
          "internalType": "address"
        },
        {
          "name": "amount",
          "type": "uint256",
          "indexed": false,
          "internalType": "uint256"
        }
      ],
      "anonymous": false
    },
    {
      "type": "event",
      "name": "AssetManager",
      "inputs": [
        {
          "name": "manager",
          "type": "address",
          "indexed": false,
          "internalType": "contract IAssetManager"
        }
      ],
      "anonymous": false
    },
    {
      "type": "event",
      "name": "Burn",
      "inputs": [
        {
          "name": "sender",
          "type": "address",
          "indexed": true,
          "internalType": "address"
        },
        {
          "name": "amount0",
          "type": "uint256",
          "indexed": false,
          "internalType": "uint256"
        },
        {
          "name": "amount1",
          "type": "uint256",
          "indexed": false,
          "internalType": "uint256"
        }
      ],
      "anonymous": false
    },
    {
      "type": "event",
      "name": "ClampParams",
      "inputs": [
        {
          "name": "newMaxChangeRatePerSecond",
          "type": "uint128",
          "indexed": false,
          "internalType": "uint128"
        },
        {
          "name": "newMaxChangePerTrade",
          "type": "uint128",
          "indexed": false,
          "internalType": "uint128"
        }
      ],
      "anonymous": false
    },
    {
      "type": "event",
      "name": "CustomPlatformFee",
      "inputs": [
        {
          "name": "newCustomPlatformFee",
          "type": "uint256",
          "indexed": false,
          "internalType": "uint256"
        }
      ],
      "anonymous": false
    },
    {
      "type": "event",
      "name": "CustomSwapFee",
      "inputs": [
        {
          "name": "newCustomSwapFee",
          "type": "uint256",
          "indexed": false,
          "internalType": "uint256"
        }
      ],
      "anonymous": false
    },
    {
      "type": "event",
      "name": "Loss",
      "inputs": [
        {
          "name": "token",
          "type": "address",
          "indexed": false,
          "internalType": "contract IERC20"
        },
        {
          "name": "amount",
          "type": "uint256",
          "indexed": false,
          "internalType": "uint256"
        }
      ],
      "anonymous": false
    },
    {
      "type": "event",
      "name": "Mint",
      "inputs": [
        {
          "name": "sender",
          "type": "address",
          "indexed": true,
          "internalType": "address"
        },
        {
          "name": "amount0",
          "type": "uint256",
          "indexed": false,
          "internalType": "uint256"
        },
        {
          "name": "amount1",
          "type": "uint256",
          "indexed": false,
          "internalType": "uint256"
        }
      ],
      "anonymous": false
    },
    {
      "type": "event",
      "name": "PlatformFee",
      "inputs": [
        {
          "name": "newPlatformFee",
          "type": "uint256",
          "indexed": false,
          "internalType": "uint256"
        }
      ],
      "anonymous": false
    },
    {
      "type": "event",
      "name": "Profit",
      "inputs": [
        {
          "name": "token",
          "type": "address",
          "indexed": false,
          "internalType": "contract IERC20"
        },
        {
          "name": "amount",
          "type": "uint256",
          "indexed": false,
          "internalType": "uint256"
        }
      ],
      "anonymous": false
    },
    {
      "type": "event",
      "name": "RampA",
      "inputs": [
        {
          "name": "initialAPrecise",
          "type": "uint64",
          "indexed": false,
          "internalType": "uint64"
        },
        {
          "name": "futureAPrecise",
          "type": "uint64",
          "indexed": false,
          "internalType": "uint64"
        },
        {
          "name": "initialTime",
          "type": "uint64",
          "indexed": false,
          "internalType": "uint64"
        },
        {
          "name": "futureTime",
          "type": "uint64",
          "indexed": false,
          "internalType": "uint64"
        }
      ],
      "anonymous": false
    },
    {
      "type": "event",
      "name": "StopRampA",
      "inputs": [
        {
          "name": "currentAPrecise",
          "type": "uint64",
          "indexed": false,
          "internalType": "uint64"
        },
        {
          "name": "time",
          "type": "uint64",
          "indexed": false,
          "internalType": "uint64"
        }
      ],
      "anonymous": false
    },
    {
      "type": "event",
      "name": "Swap",
      "inputs": [
        {
          "name": "sender",
          "type": "address",
          "indexed": true,
          "internalType": "address"
        },
        {
          "name": "zeroForOne",
          "type": "bool",
          "indexed": false,
          "internalType": "bool"
        },
        {
          "name": "amountIn",
          "type": "uint256",
          "indexed": false,
          "internalType": "uint256"
        },
        {
          "name": "amountOut",
          "type": "uint256",
          "indexed": false,
          "internalType": "uint256"
        },
        {
          "name": "to",
          "type": "address",
          "indexed": true,
          "internalType": "address"
        }
      ],
      "anonymous": false
    },
    {
      "type": "event",
      "name": "SwapFee",
      "inputs": [
        {
          "name": "newSwapFee",
          "type": "uint256",
          "indexed": false,
          "internalType": "uint256"
        }
      ],
      "anonymous": false
    },
    {
      "type": "event",
      "name": "Sync",
      "inputs": [
        {
          "name": "reserve0",
          "type": "uint104",
          "indexed": false,
          "internalType": "uint104"
        },
        {
          "name": "reserve1",
          "type": "uint104",
          "indexed": false,
          "internalType": "uint104"
        }
      ],
      "anonymous": false
    },
    {
      "type": "event",
      "name": "Transfer",
      "inputs": [
        {
          "name": "from",
          "type": "address",
          "indexed": true,
          "internalType": "address"
        },
        {
          "name": "to",
          "type": "address",
          "indexed": true,
          "internalType": "address"
        },
        {
          "name": "amount",
          "type": "uint256",
          "indexed": false,
          "internalType": "uint256"
        }
      ],
      "anonymous": false
    },
    {
      "type": "error",
      "name": "AllowanceOverflow",
      "inputs": []
    },
    {
      "type": "error",
      "name": "AllowanceUnderflow",
      "inputs": []
    },
    {
      "type": "error",
      "name": "AmountZero",
      "inputs": []
    },
    {
      "type": "error",
      "name": "AmpRateTooHigh",
      "inputs": []
    },
    {
      "type": "error",
      "name": "AssetManagerStillActive",
      "inputs": []
    },
    {
      "type": "error",
      "name": "Forbidden",
      "inputs": []
    },
    {
      "type": "error",
      "name": "InsufficientAllowance",
      "inputs": []
    },
    {
      "type": "error",
      "name": "InsufficientAmtIn",
      "inputs": []
    },
    {
      "type": "error",
      "name": "InsufficientBalance",
      "inputs": []
    },
    {
      "type": "error",
      "name": "InsufficientLiq",
      "inputs": []
    },
    {
      "type": "error",
      "name": "InsufficientLiqMinted",
      "inputs": []
    },
    {
      "type": "error",
      "name": "InvalidA",
      "inputs": []
    },
    {
      "type": "error",
      "name": "InvalidChangePerSecond",
      "inputs": []
    },
    {
      "type": "error",
      "name": "InvalidChangePerTrade",
      "inputs": []
    },
    {
      "type": "error",
      "name": "InvalidDuration",
      "inputs": []
    },
    {
      "type": "error",
      "name": "InvalidMintAmounts",
      "inputs": []
    },
    {
      "type": "error",
      "name": "InvalidPermit",
      "inputs": []
    },
    {
      "type": "error",
      "name": "InvalidPlatformFee",
      "inputs": []
    },
    {
      "type": "error",
      "name": "InvalidSkimToken",
      "inputs": []
    },
    {
      "type": "error",
      "name": "InvalidSwapFee",
      "inputs": []
    },
    {
      "type": "error",
      "name": "InvalidTokenToRecover",
      "inputs": []
    },
    {
      "type": "error",
      "name": "LEM_InvalidExponent",
      "inputs": []
    },
    {
      "type": "error",
      "name": "LEM_OutOfBounds",
      "inputs": []
    },
    {
      "type": "error",
      "name": "NonOptimalFeeTooLarge",
      "inputs": []
    },
    {
      "type": "error",
      "name": "NotManager",
      "inputs": []
    },
    {
      "type": "error",
      "name": "NotSelf",
      "inputs": []
    },
    {
      "type": "error",
      "name": "Overflow",
      "inputs": []
    },
    {
      "type": "error",
      "name": "Permit2AllowanceIsFixedAtInfinity",
      "inputs": []
    },
    {
      "type": "error",
      "name": "PermitExpired",
      "inputs": []
    },
    {
      "type": "error",
      "name": "Reentrancy",
      "inputs": []
    },
    {
      "type": "error",
      "name": "SM_COMPUTE_DID_NOT_CONVERGE",
      "inputs": []
    },
    {
      "type": "error",
      "name": "SM_GETY_DID_NOT_CONVERGE",
      "inputs": []
    },
    {
      "type": "error",
      "name": "SafeCastOverflowedUintDowncast",
      "inputs": [
        {
          "name": "bits",
          "type": "uint8",
          "internalType": "uint8"
        },
        {
          "name": "value",
          "type": "uint256",
          "internalType": "uint256"
        }
      ]
    },
    {
      "type": "error",
      "name": "TotalSupplyOverflow",
      "inputs": []
    },
    {
      "type": "error",
      "name": "TransferFailed",
      "inputs": []
    }
  ],
  "bytecode": {
    "object": "0x61014080604052346105ca576040816168d0803803809161002082856105ce565b8339810103126105ca5761003f6020610038836105f1565b92016105f1565b906040519061004f6040836105ce565b600b82526a53503a3a7377617046656560a81b602083019081526040519093909160808301906001600160401b038211848310176105b6576107ff60606004956020946040525f81525f858201525f604082015201526107ff60f01b5f555f196002555f1984553361010052806080528260a0526040519384809263313ce56760e01b825260018060a01b03165afa9081156105945761010660ff6101006020946004965f9161059f575b5061061e565b1661062f565b60c05260405163313ce56760e01b815292839182906001600160a01b03165afa80156105945761010060ff91610142935f91610565575061061e565b60e0525190206101205261015461074f565b61015c610821565b60018060a01b0361010051166101b16040516101796040826105ce565b601581527f5368617265643a3a6d61784368616e676552617465000000000000000000000060208201526001600160801b03926106b5565b166101ff60018060a01b036101005116604051906101d06040836105ce565b601982527f5368617265643a3a6d61784368616e676550657254726164650000000000000060208301526106b5565b610100516001600160801b038216906001600160a01b031633036105565782151580610545575b156105365780151580610524575b156105155760407fc0fc59be8e8d27ca7e681aa5d31d001f447d372ab253a317e7e9c3e8d60d7092918151908582526020820152a160801b6001600160801b0319161760085561010051604080516001600160a01b0392909216916102d59161029d90826105ce565b601c81527f53503a3a616d706c696669636174696f6e436f656666696369656e740000000060208201526001600160401b03926106b5565b1661270f5f198201116105065760640260018060401b0381169081036104f2576009805442608081901b600160801b600160c01b03166001600160401b03199092168417604090811b6fffffffffffffffff0000000000000000166001600160c01b03909516949094179190911760c09190911b6001600160c01b03191617905551615ffe90816108d282396080518181816105c70152818161073b015281816108920152818161099c015281816112f0015281816117dc01528181611a1201528181611c3001528181611f75015281816122630152818161324301528181613d4a01528181613f8f0152614c77015260a05181818161048c0152818161063b0152818161076801528181610ac501528181610e9c015281816113230152818161192101528181611aca01528181611b8e01528181611f9b015281816123960152818161250a01528181613d890152614058015260c05181818161050b01528181610908015281816109e001528181610b1b0152818161141401528181613a190152818161413e015261441e015260e05181818161053f0152818161094201528181610a1401528181610b5201528181612b4e01528181613a5301528181614109015261445b015261010051818181610f28015281816110f70152818161123e015281816114bd0152818161182c01528181611d4f0152818161292b01528181612c76015281816136d901526139c4015261012051816136980152f35b634e487b7160e01b5f52601160045260245ffd5b63ba1afe8b60e01b5f5260045ffd5b63f42331c760e01b5f5260045ffd5b5067016345785d8a0000811115610234565b6375b101a760e01b5f5260045ffd5b50662386f26fc10000831115610226565b631dd2188d60e31b5f5260045ffd5b610587915060203d60201161058d575b61057f81836105ce565b810190610605565b5f6100fa565b503d610575565b6040513d5f823e3d90fd5b6105879150863d881161058d5761057f81836105ce565b634e487b7160e01b5f52604160045260245ffd5b5f80fd5b601f909101601f19168101906001600160401b038211908210176105b657604052565b51906001600160a01b03821682036105ca57565b908160209103126105ca575160ff811681036105ca5790565b60ff166012039060ff82116104f257565b80156106af5760208110600116604e82106001161761069b576001600a915b6001811161066c57506001600160801b0382900481116104f2570290565b916001600160801b0381900481116104f25760018316610692575b80029160011c61064e565b80910290610687565b600a0a906001600160801b0382116104f257565b50600190565b906020906040516106e483828180820195805191829101875e81015f838201520301601f1981018352826105ce565b51902060405163023aa9ab60e61b8152600481019190915291829060249082906001600160a01b03165afa908115610594575f91610720575090565b90506020813d602011610747575b8161073b602093836105ce565b810103126105ca575190565b3d915061072e565b6002545f1981146107ae575b60015481146107ab57614e20811161079c577f829472a12eb635e89660a3fd5efc2b638147cce371274f7185a2cc915bd0dafc6020604051838152a1600155565b63da7459b760e01b5f5260045ffd5b50565b5060018060a01b03610100511660206101205160246040518094819363023aa9ab60e61b835260048301525afa908115610594575f916107ef575b5061075b565b90506020813d602011610819575b8161080a602093836105ce565b810103126105ca57515f6107e9565b3d91506107fd565b6004545f19811461087e575b60035481146107ab57620f4240811161086f577f6f9983488bd1500c372d1f10befe9e7790d764b18c848cfa10872f4e248ded926020604051838152a1600355565b63183440b760e31b5f5260045ffd5b506108cc60018060a01b0361010051166040519061089d6040836105ce565b601382527f5368617265643a3a706c6174666f726d4665650000000000000000000000000060208301526106b5565b61082d56fe60806040526004361015610011575f80fd5b5f5f3560e01c806306fdde03146133975780630902f1ac14613328578063095ea7b31461329f5780630c472afd146132675780630dfe1681146131f95780630efd898a1461318b57806318160ddd1461314857806323b872dd1461304357806326232a2e1461300857806328d98c9514612fb1578063313ce56714612f785780633644e51514612ed25780633998a68114610c725780634491513614612c055780634a1d6fa714612bc75780634c7b2a7114612b725780634e25dc4714612b0857806354cf2aeb14612acd578063598362f014612a635780636156385d146128aa5780636a6278421461258657806370a08231146125355780637aec721b146121f85780637c3cbc7c146121bc5780637ecebe001461216b57806385faf6241461211d57806389afcb4414611dfc57806394217ad114611daa5780639568e73b14611d0557806395d89b4114611c8357806397e37764146119495780639be65a60146117745780639d62a694146116995780639f2b37fb1461164e578063a9059cbb146115a1578063ab3d854414611566578063ad7853e914611518578063afb4a43b14611473578063ba9a7a5614611438578063baa8c7cb146113cd578063bb62547814611354578063bc25cf7714611262578063c45a0155146111f3578063c4db7fa0146110b1578063c58771ef14611075578063caa92f1e14611036578063d0ebdbe714610ec0578063d21220a714610e51578063d505accf14610c77578063db6488dc14610c72578063dbc781bc14610c3b578063dd62ed3e14610bde578063e12bd9d814610398578063e9bdf7b81461034d5763fff6cae914610277575f80fd5b3461034a57807ffffffffffffffffffffffffffffffffffffffffffffffffffffffffffffffffc36011261034a57688000000000ab143c065c61033d5730688000000000ab143c065d6103016cffffffffffffffffffffffffff806102ea6102dd613569565b9591949094169116613cfa565b906102f3613f46565b6102fb61400f565b906142b9565b801561032e574660010361031f5780688000000000ab143c065d5b80f35b688000000000ab143c06805580f35b5f688000000000ab143c065d80f35b63ab143c0690526004601cfd5b80fd5b503461034a57807ffffffffffffffffffffffffffffffffffffffffffffffffffffffffffffffffc36011261034a5760206cffffffffffffffffffffffffff60065416604051908152f35b503461034a5760807ffffffffffffffffffffffffffffffffffffffffffffffffffffffffffffffffc36011261034a5760043560243591821515830361034a576044359173ffffffffffffffffffffffffffffffffffffffff831690818403610861576064359067ffffffffffffffff8211610bda5736602383011215610bda5781600401359567ffffffffffffffff8711610bd6573660248885010111610bd657688000000000ab143c065c610bc95730688000000000ab143c065d8115610ba1576cffffffffffffffffffffffffff9283610473613569565b9290931696169390929015610981575f851315610883577f00000000000000000000000000000000000000000000000000000000000000009961059485888d61058c8a7fffffffffffffffffffffffffffffffffffffffffffffffffffffffffffffffff6001549161058467ffffffffffffffff6104f76104f2613c43565b6137b3565b166fffffffffffffffffffffffffffffffff7f000000000000000000000000000000000000000000000000000000000000000016946fffffffffffffffffffffffffffffffff7f00000000000000000000000000000000000000000000000000000000000000001695808a0290878c0295620f4240610577868986614ef4565b9482020490030201615906565b900301613828565b9d8e91614c43565b8061070c575b50506105a4613f46565b9273ffffffffffffffffffffffffffffffffffffffff6105c261400f565b9a16957f000000000000000000000000000000000000000000000000000000000000000073ffffffffffffffffffffffffffffffffffffffff1687036106fc5761060c828c6137fb565b955b86106106d45760209a610620956142b9565b6040519173ffffffffffffffffffffffffffffffffffffffff7f000000000000000000000000000000000000000000000000000000000000000016148252858201528360408201527f66251e495e6e69e208ab08e2bc259dbe2ef482a8c4a93b8984b03a1eb27e1b9e60603392a380156106c257466001036106b057688000000000ab143c065d5b604051908152f35b50688000000000ab143c0680556106a8565b505f688000000000ab143c065d6106a8565b7fc5786cf6000000000000000000000000000000000000000000000000000000005f5260045ffd5b61070681866137fb565b9561060e565b73ffffffffffffffffffffffffffffffffffffffff8b169073ffffffffffffffffffffffffffffffffffffffff7f00000000000000000000000000000000000000000000000000000000000000001682145f14610874578a915b7f000000000000000000000000000000000000000000000000000000000000000073ffffffffffffffffffffffffffffffffffffffff1603610865578a905b893b15610861575f927fffffffffffffffffffffffffffffffffffffffffffffffffffffffffffffffe0601f8360a4946024604051998a9889977f4fc7c2170000000000000000000000000000000000000000000000000000000089523360048a01528389015260448801526080606488015282608488015201868601378685828601015201168101030181838b5af1801561085657610846575b8061059a565b5f610850916134ed565b5f610840565b6040513d5f823e3d90fd5b5f80fd5b61086e8761386d565b906107a5565b61087d8761386d565b91610766565b61058c996105948588610584987f00000000000000000000000000000000000000000000000000000000000000009e8f917fffffffffffffffffffffffffffffffffffffffffffffffffffffffffffffffff85825f039d8e6001549067ffffffffffffffff6108f36104f2613c43565b16916fffffffffffffffffffffffffffffffff7f0000000000000000000000000000000000000000000000000000000000000000168097620f42408c6fffffffffffffffffffffffffffffffff7f0000000000000000000000000000000000000000000000000000000000000000169384910298029361097487868b614ef4565b950204015f030201615906565b5f859995135f14610aaf578899868a1015610a87578a9985887f00000000000000000000000000000000000000000000000000000000000000009d8e93600154906109ca613c43565b6109d3906137b3565b67ffffffffffffffff16907f00000000000000000000000000000000000000000000000000000000000000006fffffffffffffffffffffffffffffffff16907f00000000000000000000000000000000000000000000000000000000000000006fffffffffffffffffffffffffffffffff169282870284890293610a58838684614ef4565b9302900391610a6692615906565b0360010190610a7491613828565b620f424091820102049961059494614c43565b7fae44470c000000000000000000000000000000000000000000000000000000005f5260045ffd5b98975f0398838a1015610a8757899861059485887f00000000000000000000000000000000000000000000000000000000000000009d8e99620f4240600154610b9667ffffffffffffffff610b056104f2613c43565b1660016fffffffffffffffffffffffffffffffff7f00000000000000000000000000000000000000000000000000000000000000001691610b8f6fffffffffffffffffffffffffffffffff7f00000000000000000000000000000000000000000000000000000000000000001691848b0292808d02610b85838287614ef4565b918c029003615906565b0301613828565b90820102049a614c43565b7fcbca5aa2000000000000000000000000000000000000000000000000000000005f5260045ffd5b63ab143c0685526004601cfd5b8480fd5b8380fd5b503461034a5760407ffffffffffffffffffffffffffffffffffffffffffffffffffffffffffffffffc36011261034a57610c16613423565b610c1e613446565b602052637f5e9f20600c525f5260206034600c2054604051908152f35b503461034a57807ffffffffffffffffffffffffffffffffffffffffffffffffffffffffffffffffc36011261034a5761031c6138f1565b613469565b503461034a5760e07ffffffffffffffffffffffffffffffffffffffffffffffffffffffffffffffffc36011261034a57610caf613423565b610cb7613446565b604435606435906084359360ff85168503610e4d57610cd461352e565b6020815191012092804211610e405773ffffffffffffffffffffffffffffffffffffffff80604051931695169565383775081901600e5285885260c06020600c20938454937f8b73c3c69bb8fe3d512ecc4cf759cc79239f7b179b0ffacaa9a75d522b39400f8252602082019788528460408301987fc89efdaa54c0f20c7adf612882df0950f5a951637e0307cdcb4c672f298b8bc68a528b606085019a468c528c608087019330855260a08820602e527f6e71edae12b1b97f4d1f60370fef10105fa2faae0126114a169c64845d6126c988525252888a525260a082015220604e526042602c20885260ff1660205260a43560405260c43560605260208060808960015afa90853d5103610e3357019055777f5e9f20000000000000000000000000000000000000000084176040526034602c20557f8c5be1e5ebec7d5bd14f71427d1e84f3dd0314c0f7b2291e5b200ac8c7c3b92590602090a380f35b63ddafbaef88526004601cfd5b631a15a3cc87526004601cfd5b8580fd5b503461034a57807ffffffffffffffffffffffffffffffffffffffffffffffffffffffffffffffffc36011261034a57602060405173ffffffffffffffffffffffffffffffffffffffff7f0000000000000000000000000000000000000000000000000000000000000000168152f35b503461034a5760207ffffffffffffffffffffffffffffffffffffffffffffffffffffffffffffffffc36011261034a5760043573ffffffffffffffffffffffffffffffffffffffff81168091036110325773ffffffffffffffffffffffffffffffffffffffff7f000000000000000000000000000000000000000000000000000000000000000016330361100a576006546cffffffffffffffffffffffffff8116159081610fef575b5015610fc7576020817f971e020e6300a23a2ec05293a6804d9679d3b305220ec194d1cc7009a4c88a10927fffffffffffffffffffffffff00000000000000000000000000000000000000006005541617600555604051908152a180f35b6004827f111a245d000000000000000000000000000000000000000000000000000000008152fd5b6cffffffffffffffffffffffffff915060681c16155f610f69565b6004827fee90c468000000000000000000000000000000000000000000000000000000008152fd5b5080fd5b503461034a57807ffffffffffffffffffffffffffffffffffffffffffffffffffffffffffffffffc36011261034a576020600a5460c01c604051908152f35b503461034a57807ffffffffffffffffffffffffffffffffffffffffffffffffffffffffffffffffc36011261034a576020600254604051908152f35b503461034a57807ffffffffffffffffffffffffffffffffffffffffffffffffffffffffffffffffc36011261034a5773ffffffffffffffffffffffffffffffffffffffff7f00000000000000000000000000000000000000000000000000000000000000001633036111cb577fc2b4a70c4505e53bc276a247d810393c8346d85131cf6a42ee13edf74884037f6040611148613c43565b42608081901b77ffffffffffffffff000000000000000000000000000000001682841b6fffffffffffffffff00000000000000001667ffffffffffffffff9384169081179190911760c083901b7fffffffffffffffff0000000000000000000000000000000000000000000000001617600955835190815291166020820152a180f35b807fee90c4680000000000000000000000000000000000000000000000000000000060049252fd5b503461034a57807ffffffffffffffffffffffffffffffffffffffffffffffffffffffffffffffffc36011261034a57602060405173ffffffffffffffffffffffffffffffffffffffff7f0000000000000000000000000000000000000000000000000000000000000000168152f35b503461034a5760207ffffffffffffffffffffffffffffffffffffffffffffffffffffffffffffffffc36011261034a5761129a613423565b688000000000ab143c065c611347576103019030688000000000ab143c065d6cffffffffffffffffffffffffff806112d0613569565b5050921691169161131483836112ed816112e8613f46565b6137fb565b847f0000000000000000000000000000000000000000000000000000000000000000614c43565b611320836112e861400f565b907f0000000000000000000000000000000000000000000000000000000000000000614c43565b63ab143c0682526004601cfd5b503461034a5760207ffffffffffffffffffffffffffffffffffffffffffffffffffffffffffffffffc36011261034a57604060a091600435815260076020522054604051908060020b82528060181c60020b60208301528060301c600a0b60408301528060881c600a0b606083015260e01c6080820152f35b503461034a57807ffffffffffffffffffffffffffffffffffffffffffffffffffffffffffffffffc36011261034a5760206040516fffffffffffffffffffffffffffffffff7f0000000000000000000000000000000000000000000000000000000000000000168152f35b503461034a57807ffffffffffffffffffffffffffffffffffffffffffffffffffffffffffffffffc36011261034a5760206040516103e88152f35b503461034a5760207ffffffffffffffffffffffffffffffffffffffffffffffffffffffffffffffffc36011261034a5760043573ffffffffffffffffffffffffffffffffffffffff7f000000000000000000000000000000000000000000000000000000000000000016330361100a577f27fb2396a71e9486a99b50638f2bae65e1db08352d1d0688a4b3ad9b5d33df136020604051838152a160045561031c6138f1565b503461034a57807ffffffffffffffffffffffffffffffffffffffffffffffffffffffffffffffffc36011261034a5760206cffffffffffffffffffffffffff60065460681c16604051908152f35b503461034a57807ffffffffffffffffffffffffffffffffffffffffffffffffffffffffffffffffc36011261034a576020604051614e208152f35b503461034a5760407ffffffffffffffffffffffffffffffffffffffffffffffffffffffffffffffffc36011261034a576115d9613423565b602435916387a211a2600c523381526020600c208054808511611641578490039055526020600c20818154019055602052600c5160601c337fddf252ad1be2c89b69c2b068fc378daa952ba7f163c4a11628f55a4df523b3ef602080a3602060405160018152f35b63f4d678b883526004601cfd5b503461034a57807ffffffffffffffffffffffffffffffffffffffffffffffffffffffffffffffffc36011261034a576020611687613c43565b67ffffffffffffffff60405191168152f35b503461034a5760207ffffffffffffffffffffffffffffffffffffffffffffffffffffffffffffffffc36011261034a5760408160a092608083516116dc816134a4565b82815282602082015282858201528260608201520152600435815260076020522063ffffffff6040519161170f836134a4565b548060020b92838152602081018260181c60020b815260408201908360301c600a0b8252608060608401938560881c600a0b8552019360e01c84526040519586525160020b602086015251600a0b604085015251600a0b606084015251166080820152f35b503461034a5760207ffffffffffffffffffffffffffffffffffffffffffffffffffffffffffffffffc36011261034a5760043573ffffffffffffffffffffffffffffffffffffffff81168091036110325773ffffffffffffffffffffffffffffffffffffffff7f00000000000000000000000000000000000000000000000000000000000000001681141580611909575b156118e15773ffffffffffffffffffffffffffffffffffffffff61185061182a613832565b7f00000000000000000000000000000000000000000000000000000000000000006149b7565b1690604051917f70a08231000000000000000000000000000000000000000000000000000000008352306004840152602083602481855afa9182156118d65784926118a0575b61031c9350614a91565b91506020833d6020116118ce575b816118bb602093836134ed565b810103126108615761031c925191611896565b3d91506118ae565b6040513d86823e3d90fd5b6004827f5f48afeb000000000000000000000000000000000000000000000000000000008152fd5b5073ffffffffffffffffffffffffffffffffffffffff7f000000000000000000000000000000000000000000000000000000000000000016811415611805565b503461034a5760407ffffffffffffffffffffffffffffffffffffffffffffffffffffffffffffffffc36011261034a576004356024359073ffffffffffffffffffffffffffffffffffffffff600554163303611c5b5782811315611bb3576cffffffffffffffffffffffffff6119c1611a3792614e37565b6006547fffffffffffffffffffffffffffffffffffffff00000000000000000000000000836119f2848285166138c5565b16911617600655163373ffffffffffffffffffffffffffffffffffffffff7f000000000000000000000000000000000000000000000000000000000000000016614a91565b81811315611aef576cffffffffffffffffffffffffff611a5961031c92614e37565b6006547fffffffffffff00000000000000000000000000ffffffffffffffffffffffffff79ffffffffffffffffffffffffff00000000000000000000000000611aa784868560681c166138c5565b60681b16911617600655163373ffffffffffffffffffffffffffffffffffffffff7f000000000000000000000000000000000000000000000000000000000000000016614a91565b818112611afa575080f35b6cffffffffffffffffffffffffff611b1c611b1761031c9361386d565b614e37565b6006547fffffffffffff00000000000000000000000000ffffffffffffffffffffffffff79ffffffffffffffffffffffffff00000000000000000000000000611b6a84868560681c16613899565b60681b1691161760065516303373ffffffffffffffffffffffffffffffffffffffff7f000000000000000000000000000000000000000000000000000000000000000016614e8d565b828112611bc1575b50611a37565b6cffffffffffffffffffffffffff611bde611b17611c559361386d565b6006547fffffffffffffffffffffffffffffffffffffff0000000000000000000000000083611c0f84828516613899565b1691161760065516303373ffffffffffffffffffffffffffffffffffffffff7f000000000000000000000000000000000000000000000000000000000000000016614e8d565b5f611bbb565b6004837fc0fc8a8a000000000000000000000000000000000000000000000000000000008152fd5b503461034a57807ffffffffffffffffffffffffffffffffffffffffffffffffffffffffffffffffc36011261034a57611d01604051611cc36040826134ed565b600681527f5245532d4c50000000000000000000000000000000000000000000000000000060208201526040519182916020835260208301906133e0565b0390f35b503461034a5760207ffffffffffffffffffffffffffffffffffffffffffffffffffffffffffffffffc36011261034a5760043573ffffffffffffffffffffffffffffffffffffffff7f000000000000000000000000000000000000000000000000000000000000000016330361100a577f0a206ccb05bebde488b6db465d828f44eb7813982d59f228be19c2711d34f2a56020604051838152a160025561031c6135d8565b503461034a57807ffffffffffffffffffffffffffffffffffffffffffffffffffffffffffffffffc36011261034a57602073ffffffffffffffffffffffffffffffffffffffff60055416604051908152f35b503461034a5760207ffffffffffffffffffffffffffffffffffffffffffffffffffffffffffffffffc36011261034a57611e34613423565b90688000000000ab143c065c61033d576cffffffffffffffffffffffffff809130688000000000ab143c065d611e78611e6b613569565b9591969096169116613cfa565b9390926387a211a2600c52305f526020600c2054916040517f0efd898a0000000000000000000000000000000000000000000000000000000081528560048201528660248201526040816044815f305af15f91816120e9575b506120e357506805345cdf77eb68f44c54955b611efa611ef2888887614b9e565b978286614b9e565b956387a211a2600c52305f526020600c20988954958681116120d6578289611fbf93611f998760409f8f8787926120849f99859a039055806805345cdf77eb68f44c54036805345cdf77eb68f44c555f525f307fddf252ad1be2c89b69c2b068fc378daa952ba7f163c4a11628f55a4df523b3ef602083a3847f0000000000000000000000000000000000000000000000000000000000000000614c43565b7f0000000000000000000000000000000000000000000000000000000000000000614c43565b611fc7613f46565b611fcf61400f565b9077ffffffffffffffffffffffffffffffffffffffffffffffff611ff383836140db565b16807fffffffffffffffff000000000000000000000000000000000000000000000000600a541617600a557fffffffffffffffff000000000000000000000000000000000000000000000000612047613c43565b60c01b1617600a558a518a81528960208201527f49995e5dd6158cf69ad3e9777c46755a1a826a446c6416992167462dad033b2a8c3392a26142b9565b61208c614913565b80156120c457466001036120b257688000000000ab143c065d5b82519182526020820152f35b50688000000000ab143c0680556120a6565b505f688000000000ab143c065d6120a6565b63f4d678b85f526004601cfd5b95611ee4565b9091506040813d604011612115575b81612105604093836134ed565b810103126108615751905f611ed1565b3d91506120f8565b503461034a57807ffffffffffffffffffffffffffffffffffffffffffffffffffffffffffffffffc36011261034a5760206fffffffffffffffffffffffffffffffff60085416604051908152f35b503461034a5760207ffffffffffffffffffffffffffffffffffffffffffffffffffffffffffffffffc36011261034a576121a3613423565b906338377508600c5252602080600c2054604051908152f35b503461034a57807ffffffffffffffffffffffffffffffffffffffffffffffffffffffffffffffffc36011261034a576020600454604051908152f35b503461034a5760207ffffffffffffffffffffffffffffffffffffffffffffffffffffffffffffffffc36011261034a5760043573ffffffffffffffffffffffffffffffffffffffff81169081810361253157829173ffffffffffffffffffffffffffffffffffffffff7f0000000000000000000000000000000000000000000000000000000000000000168114918280156124f2575b156124ca576005546040517fd4fac45d00000000000000000000000000000000000000000000000000000000815230600482015273ffffffffffffffffffffffffffffffffffffffff9283166024820152959291602091879160449183918791165af1948515612451578295612496575b506cffffffffffffffffffffffffff8511612320575b602084604051908152f35b9091925073ffffffffffffffffffffffffffffffffffffffff61234461182a613832565b16917fffffffffffffffffffffffffffffffffffffff00000000000000000000000001850194851161246957849373ffffffffffffffffffffffffffffffffffffffff60055416905f1461246357855b7f000000000000000000000000000000000000000000000000000000000000000073ffffffffffffffffffffffffffffffffffffffff16840361245c5786905b823b15610bda5790604484928360405195869485937f6e364041000000000000000000000000000000000000000000000000000000008552600485015260248401525af180156124515761243a575b50509261243291602094614a91565b5f8080612315565b81612444916134ed565b805f1261034a5780612423565b6040513d84823e3d90fd5b82906123d4565b81612394565b7f4e487b71000000000000000000000000000000000000000000000000000000005f52601160045260245ffd5b9094506020813d6020116124c2575b816124b2602093836134ed565b810103126108615751935f6122ff565b3d91506124a5565b6004857f3cd2fee6000000000000000000000000000000000000000000000000000000008152fd5b5073ffffffffffffffffffffffffffffffffffffffff7f000000000000000000000000000000000000000000000000000000000000000016821461228e565b8280fd5b503461034a5760207ffffffffffffffffffffffffffffffffffffffffffffffffffffffffffffffffc36011261034a5761256d613423565b906387a211a2600c5252602080600c2054604051908152f35b346108615760207ffffffffffffffffffffffffffffffffffffffffffffffffffffffffffffffffc360112610861576125bd613423565b688000000000ab143c065c61289d576cffffffffffffffffffffffffff9030688000000000ab143c065d816126006125f3613569565b9491969096169116613cfa565b91909361260b613f46565b61261361400f565b9361261e85836140db565b9461262988846137fb565b926126538961264d6126478661263f81886137fb565b9d8e8a614164565b9261381b565b9461381b565b9361265e85856139ed565b8161287c57505080151580612873575b1561284b577ffffffffffffffffffffffffffffffffffffffffffffffffffffffffffffffc18880188811161246957986805345cdf77eb68f44c546103e8810190811061283e576805345cdf77eb68f44c556387a211a2600c525f80526020600c206103e881540190556103e8602052600c5160601c5f7fddf252ad1be2c89b69c2b068fc378daa952ba7f163c4a11628f55a4df523b3ef602080a35b8915612816578961271b91614253565b78010000000000000000000000000000000000000000000000008810156128095760209977ffffffffffffffffffffffffffffffffffffffffffffffff6127ed9916807fffffffffffffffff000000000000000000000000000000000000000000000000600a541617600a557fffffffffffffffff0000000000000000000000000000000000000000000000006127b0613c43565b60c01b1617600a556040519182528a8201527f4c209b5fc8ad50758f13e2e1088ba56a560dff690a1c6fef26394f4c03821c4f60403392a26142b9565b6127f5614913565b5f688000000000ab143c065d604051908152f35b6335278d125f526004601cfd5b7f39d29a3e000000000000000000000000000000000000000000000000000000005f5260045ffd5b63e5cfe9575f526004601cfd5b7f0bad06d8000000000000000000000000000000000000000000000000000000005f5260045ffd5b5089151561266e565b6128926128979261288d838d6137fb565b613808565b613828565b9861270b565b63ab143c065f526004601cfd5b346108615760407ffffffffffffffffffffffffffffffffffffffffffffffffffffffffffffffffc360112610861576004356fffffffffffffffffffffffffffffffff8116809103610861576024356fffffffffffffffffffffffffffffffff8116908181036108615773ffffffffffffffffffffffffffffffffffffffff7f0000000000000000000000000000000000000000000000000000000000000000163303612a3b5782151580612a2a575b15612a0257811515806129f0575b156129c8577fc0fc59be8e8d27ca7e681aa5d31d001f447d372ab253a317e7e9c3e8d60d709260407fffffffffffffffffffffffffffffffff00000000000000000000000000000000938151908682526020820152a160801b1617600855005b7ff42331c7000000000000000000000000000000000000000000000000000000005f5260045ffd5b5067016345785d8a0000821115612968565b7f75b101a7000000000000000000000000000000000000000000000000000000005f5260045ffd5b50662386f26fc1000083111561295a565b7fee90c468000000000000000000000000000000000000000000000000000000005f5260045ffd5b34610861575f7ffffffffffffffffffffffffffffffffffffffffffffffffffffffffffffffffc360112610861576009546040805167ffffffffffffffff808416825283831c81166020830152608084811c9091169282019290925260c09290921c606083015290f35b34610861575f7ffffffffffffffffffffffffffffffffffffffffffffffffffffffffffffffffc360112610861576020600154604051908152f35b34610861575f7ffffffffffffffffffffffffffffffffffffffffffffffffffffffffffffffffc3601126108615760206040516fffffffffffffffffffffffffffffffff7f0000000000000000000000000000000000000000000000000000000000000000168152f35b34610861575f7ffffffffffffffffffffffffffffffffffffffffffffffffffffffffffffffffc36011261086157602077ffffffffffffffffffffffffffffffffffffffffffffffff600a5416604051908152f35b34610861575f7ffffffffffffffffffffffffffffffffffffffffffffffffffffffffffffffffc36011261086157602060085460801c604051908152f35b346108615760407ffffffffffffffffffffffffffffffffffffffffffffffffffffffffffffffffc3601126108615760043567ffffffffffffffff81168091036108615760243567ffffffffffffffff8116918282036108615773ffffffffffffffffffffffffffffffffffffffff7f0000000000000000000000000000000000000000000000000000000000000000163303612a3b5761270f7fffffffffffffffffffffffffffffffffffffffffffffffffffffffffffffffff820111612eaa576064029167ffffffffffffffff83169083820361246957612ce99042906137fb565b92620151808410612e8257612cfc613c43565b9267ffffffffffffffff8416948584115f14612e4a57612d25612d1e8561378e565b9187613808565b908160011b91808304600214901517156124695767ffffffffffffffff1611155b15612e225742608081811b77ffffffffffffffff0000000000000000000000000000000016604094851b6fffffffffffffffff00000000000000001677ffffffffffffffffffffffffffffffffffffffffffffffff98909816979097179690961760c083901b7fffffffffffffffff0000000000000000000000000000000000000000000000001617600955825167ffffffffffffffff958616815293851660208501528416918301919091529190911660608201527f91e3c84fe7f917d978f2dacc9d91d4e48b43b66e15e0526bda0a0866bbb7949d9190a1005b7fec42110c000000000000000000000000000000000000000000000000000000005f5260045ffd5b612e5d612e568661378e565b9185613808565b908160011b91808304600214901517156124695767ffffffffffffffff161115612d46565b7f76166401000000000000000000000000000000000000000000000000000000005f5260045ffd5b7fba1afe8b000000000000000000000000000000000000000000000000000000005f5260045ffd5b34610861575f7ffffffffffffffffffffffffffffffffffffffffffffffffffffffffffffffffc36011261086157602060a0612f0c61352e565b828151910120604051907f8b73c3c69bb8fe3d512ecc4cf759cc79239f7b179b0ffacaa9a75d522b39400f8252838201527fc89efdaa54c0f20c7adf612882df0950f5a951637e0307cdcb4c672f298b8bc6604082015246606082015230608082015220604051908152f35b34610861575f7ffffffffffffffffffffffffffffffffffffffffffffffffffffffffffffffffc36011261086157602060405160128152f35b34610861575f7ffffffffffffffffffffffffffffffffffffffffffffffffffffffffffffffffc360112610861576020606467ffffffffffffffff612ff4613c43565b160467ffffffffffffffff60405191168152f35b34610861575f7ffffffffffffffffffffffffffffffffffffffffffffffffffffffffffffffffc360112610861576020600354604051908152f35b346108615760607ffffffffffffffffffffffffffffffffffffffffffffffffffffffffffffffffc3601126108615761307a613423565b613082613446565b604435908260601b33602052637f5e9f208117600c526034600c20908154918219613124575b506387a211a2915017600c526020600c2080548084116120d65783900390555f526020600c2081815401905560205273ffffffffffffffffffffffffffffffffffffffff600c5160601c91167fddf252ad1be2c89b69c2b068fc378daa952ba7f163c4a11628f55a4df523b3ef602080a3602060405160018152f35b82851161313b57846387a211a293039055856130a8565b6313be252b5f526004601cfd5b34610861575f7ffffffffffffffffffffffffffffffffffffffffffffffffffffffffffffffffc3601126108615760206805345cdf77eb68f44c54604051908152f35b346108615760407ffffffffffffffffffffffffffffffffffffffffffffffffffffffffffffffffc360112610861573033036131d15760406120a66024356004356139ed565b7f29c3b7ee000000000000000000000000000000000000000000000000000000005f5260045ffd5b34610861575f7ffffffffffffffffffffffffffffffffffffffffffffffffffffffffffffffffc36011261086157602060405173ffffffffffffffffffffffffffffffffffffffff7f0000000000000000000000000000000000000000000000000000000000000000168152f35b34610861575f7ffffffffffffffffffffffffffffffffffffffffffffffffffffffffffffffffc3601126108615761329d6135d8565b005b346108615760407ffffffffffffffffffffffffffffffffffffffffffffffffffffffffffffffffc360112610861576132d6613423565b60243590602052637f5e9f20600c52335f52806034600c20555f52602c5160601c337f8c5be1e5ebec7d5bd14f71427d1e84f3dd0314c0f7b2291e5b200ac8c7c3b92560205fa3602060405160018152f35b34610861575f7ffffffffffffffffffffffffffffffffffffffffffffffffffffffffffffffffc3601126108615760806cffffffffffffffffffffffffff61ffff63ffffffff613376613569565b93929590918160405197168752166020860152166040840152166060820152f35b34610861575f7ffffffffffffffffffffffffffffffffffffffffffffffffffffffffffffffffc36011261086157611d016133d061352e565b6040519182916020835260208301905b907fffffffffffffffffffffffffffffffffffffffffffffffffffffffffffffffe0601f602080948051918291828752018686015e5f8582860101520116010190565b6004359073ffffffffffffffffffffffffffffffffffffffff8216820361086157565b6024359073ffffffffffffffffffffffffffffffffffffffff8216820361086157565b34610861575f7ffffffffffffffffffffffffffffffffffffffffffffffffffffffffffffffffc360112610861576020604051620f42408152f35b60a0810190811067ffffffffffffffff8211176134c057604052565b7f4e487b71000000000000000000000000000000000000000000000000000000005f52604160045260245ffd5b90601f7fffffffffffffffffffffffffffffffffffffffffffffffffffffffffffffffe0910116810190811067ffffffffffffffff8211176134c057604052565b6040519061353d6040836134ed565b601282527f5265736572766f6972204c5020546f6b656e00000000000000000000000000006020830152565b604051906080820182811067ffffffffffffffff8211176134c05760405260605f54916cffffffffffffffffffffffffff83168085526cffffffffffffffffffffffffff8460681c169485602082015263ffffffff8560d01c169485604083015260f01c938491015293929190565b6002547fffffffffffffffffffffffffffffffffffffffffffffffffffffffffffffffff811461366f575b600154811461366c57614e208111613644577f829472a12eb635e89660a3fd5efc2b638147cce371274f7185a2cc915bd0dafc6020604051838152a1600155565b7fda7459b7000000000000000000000000000000000000000000000000000000005f5260045ffd5b50565b506040517f8eaa6ac00000000000000000000000000000000000000000000000000000000081527f0000000000000000000000000000000000000000000000000000000000000000600482015260208160248173ffffffffffffffffffffffffffffffffffffffff7f0000000000000000000000000000000000000000000000000000000000000000165afa908115610856575f9161370f575b50613603565b90506020813d602011613739575b8161372a602093836134ed565b8101031261086157515f613709565b3d915061371d565b9067ffffffffffffffff169081156137615767ffffffffffffffff160490565b7f4e487b71000000000000000000000000000000000000000000000000000000005f52601260045260245ffd5b67ffffffffffffffff620151809116029067ffffffffffffffff821691820361246957565b60011b906801fffffffffffffffe67fffffffffffffffe83169216820361246957565b9067ffffffffffffffff8091169116029067ffffffffffffffff821691820361246957565b9190820391821161246957565b8181029291811591840414171561246957565b9190820180921161246957565b8115613761570490565b604051906138416040836134ed565b601182527f5368617265643a3a7265636f76657265720000000000000000000000000000006020830152565b7f80000000000000000000000000000000000000000000000000000000000000008114612469575f0390565b906cffffffffffffffffffffffffff809116911603906cffffffffffffffffffffffffff821161246957565b906cffffffffffffffffffffffffff809116911601906cffffffffffffffffffffffffff821161246957565b6004547fffffffffffffffffffffffffffffffffffffffffffffffffffffffffffffffff8114613986575b600354811461366c57620f4240811161395e577f6f9983488bd1500c372d1f10befe9e7790d764b18c848cfa10872f4e248ded926020604051838152a1600355565b7fc1a205b8000000000000000000000000000000000000000000000000000000005f5260045ffd5b506139e86040516139986040826134ed565b601381527f5368617265643a3a706c6174666f726d4665650000000000000000000000000060208201527f00000000000000000000000000000000000000000000000000000000000000006149b7565b61391c565b91600354613a9a613a79613a3f6805345cdf77eb68f44c54966fffffffffffffffffffffffffffffffff7f00000000000000000000000000000000000000000000000000000000000000001690613808565b946fffffffffffffffffffffffffffffffff7f00000000000000000000000000000000000000000000000000000000000000001690613808565b93600a549467ffffffffffffffff613a938760c01c6137b3565b1691614ef4565b9281613aa4575050565b77ffffffffffffffffffffffffffffffffffffffffffffffff16808411613ac9575050565b613ae08261288d613ada84886137fb565b88613808565b9082620f42400392620f4240841161246957613b0c613b1292613b0688613b1897613808565b92613808565b9061381b565b90613828565b80613b205750565b6040939193517fc45a0155000000000000000000000000000000000000000000000000000000008152602081600481305afa908115610856575f91613bce575b5091613bc68273ffffffffffffffffffffffffffffffffffffffff613bc0613bcb9660405190613b916040836134ed565b601582527f5368617265643a3a706c6174666f726d466565546f000000000000000000000060208301526149b7565b16614253565b61381b565b91565b90506020813d602011613c19575b81613be9602093836134ed565b8101031261086157519173ffffffffffffffffffffffffffffffffffffffff831683036108615791613bc6613b60565b3d9150613bdc565b9067ffffffffffffffff8091169116039067ffffffffffffffff821161246957565b60095467ffffffffffffffff8160401c168160c01c908142105f14613cf457613c91613c8067ffffffffffffffff8086169560801c168094613c21565b9267ffffffffffffffff4216613c21565b9083811115613cd55791613cbb613cc092613cb58667ffffffffffffffff96613c21565b906137d6565b613741565b160167ffffffffffffffff811161246957905b565b91613cbb613ceb92613cb58695613cf197613c21565b90613c21565b90565b91505090565b909173ffffffffffffffffffffffffffffffffffffffff60055416918215613f41576040517fd4fac45d0000000000000000000000000000000000000000000000000000000081523060048201527f000000000000000000000000000000000000000000000000000000000000000073ffffffffffffffffffffffffffffffffffffffff8116602483015290937f00000000000000000000000000000000000000000000000000000000000000009190602090869060449082905f905af1948515610856575f95613f0d575b506005546040517fd4fac45d00000000000000000000000000000000000000000000000000000000815230600482015273ffffffffffffffffffffffffffffffffffffffff8481166024830152909291602091849160449183915f91165af19384156108565786925f95613ec6575b506cffffffffffffffffffffffffff613eb2613eac87839897613e9f7fffffffffffff00000000000000000000000000000000000000000000000000009879ffffffffffffffffffffffffff0000000000000000000000000098613eb9986006549d8e1691615027565b9c858b60681c1691615027565b98614e37565b1693614e37565b60681b1692161717600655565b94509150916020843d602011613f05575b81613ee4602093836134ed565b81010312610861579251929185916cffffffffffffffffffffffffff613e35565b3d9150613ed7565b9094506020813d602011613f39575b81613f29602093836134ed565b810103126108615751935f613dc6565b3d9150613f1c565b929150565b6040517f70a0823100000000000000000000000000000000000000000000000000000000815230600482015260208160248173ffffffffffffffffffffffffffffffffffffffff7f0000000000000000000000000000000000000000000000000000000000000000165afa8015610856575f90613fdb575b613cf191506cffffffffffffffffffffffffff600654169061381b565b506020813d602011614007575b81613ff5602093836134ed565b8101031261086157613cf19051613fbe565b3d9150613fe8565b6040517f70a0823100000000000000000000000000000000000000000000000000000000815230600482015260208160248173ffffffffffffffffffffffffffffffffffffffff7f0000000000000000000000000000000000000000000000000000000000000000165afa8015610856575f906140a7575b613cf191506cffffffffffffffffffffffffff60065460681c169061381b565b506020813d6020116140d3575b816140c1602093836134ed565b8101031261086157613cf19051614087565b3d91506140b4565b90613cf19167ffffffffffffffff6140f46104f2613c43565b16916fffffffffffffffffffffffffffffffff7f00000000000000000000000000000000000000000000000000000000000000001602906fffffffffffffffffffffffffffffffff7f00000000000000000000000000000000000000000000000000000000000000001602614ef4565b93929190915f945f918315801561424b575b61423e57614188846128928385613808565b9385851161420f5750505050621e8480916141a96141af92600154926137fb565b90613808565b04905b6cffffffffffffffffffffffffff831115806141f8575b156141d057565b7f4cd63c1b000000000000000000000000000000000000000000000000000000005f5260045ffd5b506cffffffffffffffffffffffffff8211156141c9565b6141a9929396975061423794509061289261422e92621e848097613808565b600154926137fb565b04916141b2565b505050505090505f905f90565b508015614176565b6805345cdf77eb68f44c5482810190811061283e576805345cdf77eb68f44c556387a211a2600c525f526020600c20818154019055602052600c5160601c5f7fddf252ad1be2c89b69c2b068fc378daa952ba7f163c4a11628f55a4df523b3ef602080a3565b9291949390946cffffffffffffffffffffffffff841161488e576cffffffffffffffffffffffffff861161488e576cffffffffffffffffffffffffff811161488e576cffffffffffffffffffffffffff831161488e5763ffffffff4216905f9563ffffffff84840316918887026143e5575b505050505050906cffffffffffffffffffffffffff7fff388a12130349259b5ae24af90448f511c2340be808f2c371230fc2da175c44938160409416928054847fffff0000000000000000000000000000000000000000000000000000000000007dffffffff00000000000000000000000000000000000000000000000000004260d01b1692161779ffffffffffffffffffffffffff000000000000000000000000008460681b16171790558351928352166020820152a1565b90929591949793965061ffff83165f52600760205260405f2096614407613c43565b966144446fffffffffffffffffffffffffffffffff7f00000000000000000000000000000000000000000000000000000000000000001685613808565b946144816fffffffffffffffffffffffffffffffff7f00000000000000000000000000000000000000000000000000000000000000001688613808565b5f9967ffffffffffffffff81169060011b6801fffffffffffffffe166144a881848b614ef4565b91808204600214901517156124695760646144c99104916112e88382613808565b978160011b908282046002148315171561246957838161450e614503836144fd8f996144f8866145409a613808565b615b3e565b98615b3e565b926144f88188613808565b614518818861381b565b83101561487c57816145346144f8946112e861453a948b61381b565b9d615b3e565b94613808565b9161454b838261381b565b8210156148715761455f926112e89161381b565b975b7812725dd1d243aba0e75fe645cc4873f9e65afe688c928e1f228710890215614864577fff388a12130349259b5ae24af90448f511c2340be808f2c371230fc2da175c449b60409b6cffffffffffffffffffffffffff9a670de0b6b3a76400008c9a02908082049106151501916145d783615849565b97840202156147b7579061461361473893925491838360181c60020b988a63ffffffff61460b655af3107a40008d02615342565b921693615130565b929050600a0b937dffffffffffffffffffffffffffffffffffffffffffffffffffffffffffff7f07ff00000000000000000000000000000000000000000000000000000000000060015f54930160f01b1691161790815f558d5197614677896134a4565b60020b8852602088019260020b83528d880194808260020b02600a0b8260301c600a0b01600a0b8652606089019702600a0b9060881c600a0b01600a0b86526080870194855260f01c5f5260076020528b5f20955160020b7fffffffffffffffffffffffffffffffffffffffffffffffffffffffffff0000008754169062ffffff161786555160020b85907fffffffffffffffffffffffffffffffffffffffffffffffffffff000000ffffff82549160181b65ffffff000000169116179055565b519165ffffffffffff70ffffffffffffffffffffff0000000000007fffffffff000000000000000000000000000000000000000000000000000000008654935160881b945160e01b169460301b16911617907bffffffffffffffffffffff000000000000000000000000000000000016171790555b939482965f61432b565b8095506147f3935061485f969492505490846147ed655af3107a400063ffffffff8560e01c809703169460181c60020b02615342565b91615130565b9190507fffffffffffffffffffffffffffffffffffffffffffffffffffffffffff0000008354169060020b62ffffff1617825560020b7fffffffffffffffffffffffffffffffffffffffffffffffffffff000000ffffff82549160181b65ffffff000000169116179055565b6147ad565b637c5f487d5f526004601cfd5b505050600197614561565b506144f8915061453a8160019d615b3e565b7f35278d12000000000000000000000000000000000000000000000000000000005f5260045ffd5b3d1561490e573d9067ffffffffffffffff82116134c05760405191614903601f82017fffffffffffffffffffffffffffffffffffffffffffffffffffffffffffffffe016602001846134ed565b82523d5f602084013e565b606090565b73ffffffffffffffffffffffffffffffffffffffff60055416801561366c57803b15610861575f80916004604051809481937f016312bd0000000000000000000000000000000000000000000000000000000083525af190816149a7575b50613cd3577fd4efb79ad6c27a0bcfb2ec9d03f1b77b190614af8b933c14a873bb8b00519d416149a26133d06148b6565b0390a1565b5f6149b1916134ed565b5f614971565b602090602473ffffffffffffffffffffffffffffffffffffffff93604051614a1b85828180820195805191829101875e81015f8382015203017fffffffffffffffffffffffffffffffffffffffffffffffffffffffffffffffe081018352826134ed565b51902060405194859384927f8eaa6ac00000000000000000000000000000000000000000000000000000000084526004840152165afa908115610856575f91614a62575090565b90506020813d602011614a89575b81614a7d602093836134ed565b81010312610861575190565b3d9150614a70565b91906014526034526fa9059cbb0000000000000000000000005f5260205f6044601082855af1908160015f51141615614acd575b50505f603452565b3b153d171015614ade575f80614ac5565b6390b8ec185f526004601cfd5b81810291670de0b6b3a764000081838504148315170215614b16575050670de0b6b3a7640000900490565b807fffffffffffffffffffffffffffffffffffffffffffffffffffffffffffffffff670de0b6b3a76400009284098481108501900392099080670de0b6b3a76400001115614b9157828211900360ee1b910360121c177faccb18165bd6fe31ae1cf318dc5b51eee0e1ba569b88cd74c1773b91fac106690290565b63ae47f7025f526004601cfd5b81810292918115828504821417830215614bb9575050900490565b807fffffffffffffffffffffffffffffffffffffffffffffffffffffffffffffffff8492840985811086019003920990825f0383169281811115614b915783900480600302600218808202600203028082026002030280820260020302808202600203028082026002030280910260020302936001848483030494805f0304019211900302170290565b93614c4f838387615230565b15935f94614c60575b505050505050565b73ffffffffffffffffffffffffffffffffffffffff7f00000000000000000000000000000000000000000000000000000000000000001673ffffffffffffffffffffffffffffffffffffffff87161490815f14614e1c576cffffffffffffffffffffffffff80600654165b16928215614e145750915b84614ce182856137fb565b1015614dec5760055473ffffffffffffffffffffffffffffffffffffffff16928215614de557614d1a614d1483836137fb565b876137fb565b925b15614dcd5750505f5b823b156108615760445f928360405195869485937f6e364041000000000000000000000000000000000000000000000000000000008552600485015260248401525af1801561085657614db7575b50614d7e9293615230565b15614d8f57505f8080808080614c58565b807f90b8ec180000000000000000000000000000000000000000000000000000000060049252fd5b614d7e93505f614dc6916134ed565b5f92614d73565b614de091614dda916137fb565b856137fb565b614d25565b5f92614d1c565b7f90b8ec18000000000000000000000000000000000000000000000000000000005f5260045ffd5b905091614cd6565b6cffffffffffffffffffffffffff8060065460681c16614ccb565b6cffffffffffffffffffffffffff8111614e5d576cffffffffffffffffffffffffff1690565b7f6dfcc650000000000000000000000000000000000000000000000000000000005f52606860045260245260445ffd5b916040519360605260405260601b602c526f23b872dd000000000000000000000000600c5260205f6064601c82855af1908160015f51141615614ed6575b50505f606052604052565b3b153d171015614ee7575f80614ecb565b637939f4245f526004601cfd5b919091614f01838261381b565b91821561501f57829184811015615019575b5f5b6101008110614f46577f638e1976000000000000000000000000000000000000000000000000000000005f5260045ffd5b614f5e8685614f59856128928380613808565b614b9e565b938460021c614fa182967f7ffffffffffffffffffffffffffffffffffffffffffffffffffffffffffffffe6064614f958b8a613808565b049160011c169061381b565b7fffffffffffffffffffffffffffffffffffffffffffffffffffffffffffffff9c860186811161246957614fd784606492613808565b04928260030292600384040361246957614ff7614ffd936150049561381b565b91614b9e565b94856152d8565b61501057600101614f15565b50505091505090565b93614f13565b505050505f90565b9190928181115f1461509057615062613cf194927f5314098314219d6e1ce8e41fc5e6ec1ce2f06a9d583079fb6619af9bf6efdf41926137fb565b6040805173ffffffffffffffffffffffffffffffffffffffff959095168552602085018290529093a161381b565b90808210156150f6576150c8613cf194927f72fba0ba07d937c660a3130fca36005c0e476cb97b6f00de413976e37eba9501926137fb565b6040805173ffffffffffffffffffffffffffffffffffffffff959095168552602085018290529093a16137fb565b50505090565b1561510357565b7f4e487b71000000000000000000000000000000000000000000000000000000005f52600160045260245ffd5b93909261513d838661580a565b600854926fffffffffffffffffffffffffffffffff84169161515f8484613808565b10159061516c868961580a565b9460801c809583615225575b5050811561521c575b501561518f57505050509091565b61519e92939450959495613808565b9081811090821802188184115f146151e857670de0b6b3a7640000019081670de0b6b3a764000011612469576151df916151d791614aeb565b9283106150fc565b613cf182615849565b670de0b6b3a76400000390670de0b6b3a76400008211612469576152179161520f91614aeb565b9283116150fc565b6151df565b9050155f615181565b11159150845f615178565b5f92918373ffffffffffffffffffffffffffffffffffffffff8194604051908260208301957fa9059cbb0000000000000000000000000000000000000000000000000000000087521660248301526044820152604481526152926064826134ed565b5193165af161529f6148b6565b816152a8575090565b80518015925082156152b957505090565b8192509060209181010312610861576020015180151581036108615790565b6001918082116152e85703111590565b9003111590565b156152f657565b7f462c92f5000000000000000000000000000000000000000000000000000000005f5260045ffd5b8015613761576ec097ce7bc90715b34b9f10000000000590565b8115613761570590565b7ffffffffffffffffffffffffffffffffffffffffffffffffdc702bd3a30fc0000811215806157f7575b615375906152ef565b5f81126157e357613cf1906806f05b59d3b2000000811261578c577ffffffffffffffffffffffffffffffffffffffffffffffff90fa4a62c4e000000016155556064770195e54c5dd42177f53a27172fa9ec630262827000000000925b0268056bc75e2d631000009068ad78ebc5ac62000000811215615753575b6856bc75e2d631000000811215615709575b682b5e3af16b188000008112156156c1575b6815af1d78b58c400000811215615679575b680ad78ebc5ac6200000811215615632575b68056bc75e2d631000008112156155eb575b6802b5e3af16b18800008112156155a4575b68015af1d78b58c4000081121561555d575b600268056bc75e2d631000008280020505600368056bc75e2d631000008383020505600468056bc75e2d631000008483020505600568056bc75e2d631000008583020505600668056bc75e2d631000008683020505600768056bc75e2d63100000878302050590600868056bc75e2d63100000888402050592600968056bc75e2d6310000089860205059468056bc75e2d63100000600a8a8802829005059761552668056bc75e2d631000008c8b02055b600b900590565b99600c68056bc75e2d631000008d8d0205059b0101010101010101010101010268056bc75e2d63100000900590565b026064900590565b6806f5f17757889379377ffffffffffffffffffffffffffffffffffffffffffffffffea50e2874a73c000061559e9201920268056bc75e2d63100000900590565b9061546e565b6808f00f760a4b2db55d7ffffffffffffffffffffffffffffffffffffffffffffffffd4a1c50e94e7800006155e59201920268056bc75e2d63100000900590565b9061545c565b680ebc5fb417461211107ffffffffffffffffffffffffffffffffffffffffffffffffa9438a1d29cf0000061562c9201920268056bc75e2d63100000900590565b9061544a565b68280e60114edb805d037ffffffffffffffffffffffffffffffffffffffffffffffff5287143a539e000006156739201920268056bc75e2d63100000900590565b90615438565b690127fa27722cc06cc5e27fffffffffffffffffffffffffffffffffffffffffffffffea50e2874a73c000006156bb9201920268056bc75e2d63100000900590565b90615426565b693f1fce3da636ea5cf8507fffffffffffffffffffffffffffffffffffffffffffffffd4a1c50e94e78000006157039201920268056bc75e2d63100000900590565b90615414565b6b02df0ab5a80a22c61ab5a7007fffffffffffffffffffffffffffffffffffffffffffffffa9438a1d29cf00000061574d9201920268056bc75e2d63100000900590565b90615402565b6e01855144814a7ff805980ff008400091507fffffffffffffffffffffffffffffffffffffffffffffff5287143a539e000000016153f0565b6803782dace9d900000081126157d6577ffffffffffffffffffffffffffffffffffffffffffffffffc87d25316270000000161555560646b1425982cf597cd205cef7380926153d2565b61555560646001926153d2565b6157ee905f03615342565b613cf19061531e565b5068070c1cc73b00c8000081131561536c565b8190818111156158415703905b670de0b6b3a7640000820291808304670de0b6b3a7640000149015171561246957613cf191613828565b900390615817565b61585290615a08565b5f8113156158df57652d79883d2000015b807ffffffffffffffffffffffffffffffffffffffffffffffffdc702bd3a30fc00008112156158b357507ffffffffffffffffffffffffffffffffffffffffffffffffffffffffffff9be70919050565b68070c1cc73b00c80000126158cf575b655af3107a4000900590565b5068070c1cc73b00c800006158c3565b7fffffffffffffffffffffffffffffffffffffffffffffffffffffd28677c2e00001615863565b90916159128380613808565b8260011b838104600214841517156124695761288d859161593293613828565b606481029080820460641490151715612469578160011b828104600214831517156124695761596091613828565b9160648402848104606414851517156124695761598092613b0c91613828565b91805f5b61010081106159b5577fa38e7b24000000000000000000000000000000000000000000000000000000005f5260045ffd5b816159c485613bc68380613808565b908060011b9080820460021490151715612469576159f491613b12866112e88a6159ed9561381b565b92836152d8565b615a0057600101615984565b509250505090565b5f811315615b165780670c7d713b49da00001280615b05575b15615afc57670de0b6b3a7640000026ec097ce7bc90715b34b9f10000000008101907fffffffffffffffffffffffffffffffffff3f68318436f8ea4cb460f000000000016ec097ce7bc90715b34b9f10000000000290615a8091615338565b670de0b6b3a764000060036ec097ce7bc90715b34b9f1000000000838002819005808502829005928305909401600592850282900592830501600792850282900592830501600992850282900592830501600b92850282900592830501600d92850282900592830501600f9290940205059190910160011b0590565b613cf190615b8b565b50670f43fc2c04ee00008112615a21565b7fda77a322000000000000000000000000000000000000000000000000000000005f5260045ffd5b90807fffffffffffffffffffffffffffffffffffffffffffffffffffffffffffffffff048211615b78575b670de0b6b3a764000091020490565b8015615b695763bac65e5b5f526004601cfd5b670de0b6b3a76400008112615fb257613cf1905f7e1600ef3172e58d2e933ec884fde10064c63b5372d805e203c0000000000000821215615f87575b73011798004d755d3c8bc8e03204cf44619e000000821215615f5a575b615ce7906064808492029302906e01855144814a7ff805980ff0084000821215615f20575b506b02df0ab5a80a22c61ab5a700811215615eed575b693f1fce3da636ea5cf850811215615ebc575b690127fa27722cc06cc5e2811215615e8b575b68280e60114edb805d03811215615e5b575b680ebc5fb41746121110811215615e3b575b6808f00f760a4b2db55d811215615e0b575b6806f5f1775788937937811215615ddb575b6806248f33704b286603811215615dac575b6805c548670b9510e7ac811215615d7d575b68056bc75e2d631000007ffffffffffffffffffffffffffffffffffffffffffffffffa9438a1d29cf00000818301920102615338565b615d7161551f68056bc75e2d6310000083800205615d5a81615d4381615d2c8168056bc75e2d631000008a8202059960038b0501990268056bc75e2d63100000900590565b976005890501970268056bc75e2d63100000900590565b956007870501950268056bc75e2d63100000900590565b936009850501930268056bc75e2d63100000900590565b0160011b016064900590565b615da468056bc75e2d631000006756bc75e2d631000092026805c548670b9510e7ac900590565b920191615cb1565b615dd368056bc75e2d6310000067ad78ebc5ac62000092026806248f33704b286603900590565b920191615c9f565b615e0368056bc75e2d6310000068015af1d78b58c4000092026806f5f1775788937937900590565b920191615c8d565b615e3368056bc75e2d631000006802b5e3af16b188000092026808f00f760a4b2db55d900590565b920191615c7b565b68056bc75e2d6310000092830192680ebc5fb41746121110910205615c69565b615e8368056bc75e2d63100000680ad78ebc5ac6200000920268280e60114edb805d03900590565b920191615c57565b615eb468056bc75e2d631000006815af1d78b58c4000009202690127fa27722cc06cc5e2900590565b920191615c45565b615ee568056bc75e2d63100000682b5e3af16b188000009202693f1fce3da636ea5cf850900590565b920191615c32565b615f1868056bc75e2d631000006856bc75e2d63100000092026b02df0ab5a80a22c61ab5a700900590565b920191615c1f565b68ad78ebc5ac62000000915069021e19e0c9bab2400000615f5191026e01855144814a7ff805980ff0084000900590565b9201915f615c09565b906803782dace9d9000000615f7e615ce7926b1425982cf597cd205cef7380900590565b92019050615be4565b50770195e54c5dd42177f53a27172fa9ec63026282700000000090056806f05b59d3b2000000615bc7565b615fbe615fc39161531e565b615b8b565b5f039056fea2646970667358221220d7ba3adcebd326ba3d5a8b3181cadc17d4425ac0c50db3bcf1e5106f7ca1752d64736f6c634300081c0033",
    "linkReferences": {}
  },
  "methodIdentifiers": {
    "DOMAIN_SEPARATOR()": "3644e515",
    "FEE_ACCURACY()": "db6488dc",
    "MAX_PLATFORM_FEE()": "3998a681",
    "MAX_SWAP_FEE()": "ab3d8544",
    "MINIMUM_LIQUIDITY()": "ba9a7a56",
    "_observations(uint256)": "bb625478",
    "adjustManagement(int256,int256)": "97e37764",
    "allowance(address,address)": "dd62ed3e",
    "ampData()": "598362f0",
    "approve(address,uint256)": "095ea7b3",
    "assetManager()": "94217ad1",
    "balanceOf(address)": "70a08231",
    "burn(address)": "89afcb44",
    "customPlatformFee()": "7c3cbc7c",
    "customSwapFee()": "c58771ef",
    "decimals()": "313ce567",
    "factory()": "c45a0155",
    "getCurrentA()": "28d98c95",
    "getCurrentAPrecise()": "9f2b37fb",
    "getReserves()": "0902f1ac",
    "lastInvariant()": "4c7b2a71",
    "lastInvariantAmp()": "caa92f1e",
    "maxChangePerTrade()": "4a1d6fa7",
    "maxChangeRate()": "85faf624",
    "mint(address)": "6a627842",
    "mintFee(uint256,uint256)": "0efd898a",
    "name()": "06fdde03",
    "nonces(address)": "7ecebe00",
    "observation(uint256)": "9d62a694",
    "permit(address,address,uint256,uint256,uint8,bytes32,bytes32)": "d505accf",
    "platformFee()": "26232a2e",
    "rampA(uint64,uint64)": "44915136",
    "recoverToken(address)": "9be65a60",
    "setClampParams(uint128,uint128)": "6156385d",
    "setCustomPlatformFee(uint256)": "afb4a43b",
    "setCustomSwapFee(uint256)": "9568e73b",
    "setManager(address)": "d0ebdbe7",
    "skim(address)": "bc25cf77",
    "skimExcessManaged(address)": "7aec721b",
    "stopRampA()": "c4db7fa0",
    "swap(int256,bool,address,bytes)": "e12bd9d8",
    "swapFee()": "54cf2aeb",
    "symbol()": "95d89b41",
    "sync()": "fff6cae9",
    "token0()": "0dfe1681",
    "token0Managed()": "e9bdf7b8",
    "token0PrecisionMultiplier()": "baa8c7cb",
    "token1()": "d21220a7",
    "token1Managed()": "ad7853e9",
    "token1PrecisionMultiplier()": "4e25dc47",
    "totalSupply()": "18160ddd",
    "transfer(address,uint256)": "a9059cbb",
    "transferFrom(address,address,uint256)": "23b872dd",
    "updatePlatformFee()": "dbc781bc",
    "updateSwapFee()": "0c472afd"
  },
  "id": 46
}