{
  "abi": [
    {
      "inputs": [
        {
          "internalType": "contract IERC20",
          "name": "aToken0",
          "type": "address"
        },
        {
          "internalType": "contract IERC20",
          "name": "aToken1",
          "type": "address"
        }
      ],
      "stateMutability": "nonpayable",
      "type": "constructor"
    },
    {
      "anonymous": false,
      "inputs": [
        {
          "indexed": true,
          "internalType": "address",
          "name": "owner",
          "type": "address"
        },
        {
          "indexed": true,
          "internalType": "address",
          "name": "spender",
          "type": "address"
        },
        {
          "indexed": false,
          "internalType": "uint256",
          "name": "amount",
          "type": "uint256"
        }
      ],
      "name": "Approval",
      "type": "event"
    },
    {
      "anonymous": false,
      "inputs": [
        {
          "indexed": false,
          "internalType": "contract IAssetManager",
          "name": "manager",
          "type": "address"
        }
      ],
      "name": "AssetManager",
      "type": "event"
    },
    {
      "anonymous": false,
      "inputs": [
        {
          "indexed": true,
          "internalType": "address",
          "name": "sender",
          "type": "address"
        },
        {
          "indexed": false,
          "internalType": "uint256",
          "name": "amount0",
          "type": "uint256"
        },
        {
          "indexed": false,
          "internalType": "uint256",
          "name": "amount1",
          "type": "uint256"
        }
      ],
      "name": "Burn",
      "type": "event"
    },
    {
      "anonymous": false,
      "inputs": [
        {
          "indexed": false,
          "internalType": "uint256",
          "name": "newCustomPlatformFee",
          "type": "uint256"
        }
      ],
      "name": "CustomPlatformFee",
      "type": "event"
    },
    {
      "anonymous": false,
      "inputs": [
        {
          "indexed": false,
          "internalType": "uint256",
          "name": "newCustomSwapFee",
          "type": "uint256"
        }
      ],
      "name": "CustomSwapFee",
      "type": "event"
    },
    {
      "anonymous": false,
      "inputs": [
        {
          "indexed": false,
          "internalType": "contract IERC20",
          "name": "token",
          "type": "address"
        },
        {
          "indexed": false,
          "internalType": "uint256",
          "name": "amount",
          "type": "uint256"
        }
      ],
      "name": "Loss",
      "type": "event"
    },
    {
      "anonymous": false,
      "inputs": [
        {
          "indexed": false,
          "internalType": "uint256",
          "name": "oldMaxChangePerSecond",
          "type": "uint256"
        },
        {
          "indexed": false,
          "internalType": "uint256",
          "name": "newMaxChangePerSecond",
          "type": "uint256"
        }
      ],
      "name": "MaxChangeRateUpdated",
      "type": "event"
    },
    {
      "anonymous": false,
      "inputs": [
        {
          "indexed": true,
          "internalType": "address",
          "name": "sender",
          "type": "address"
        },
        {
          "indexed": false,
          "internalType": "uint256",
          "name": "amount0",
          "type": "uint256"
        },
        {
          "indexed": false,
          "internalType": "uint256",
          "name": "amount1",
          "type": "uint256"
        }
      ],
      "name": "Mint",
      "type": "event"
    },
    {
      "anonymous": false,
      "inputs": [
        {
          "indexed": false,
          "internalType": "address",
          "name": "oldCaller",
          "type": "address"
        },
        {
          "indexed": false,
          "internalType": "address",
          "name": "newCaller",
          "type": "address"
        }
      ],
      "name": "OracleCallerUpdated",
      "type": "event"
    },
    {
      "anonymous": false,
      "inputs": [
        {
          "indexed": false,
          "internalType": "uint256",
          "name": "newPlatformFee",
          "type": "uint256"
        }
      ],
      "name": "PlatformFee",
      "type": "event"
    },
    {
      "anonymous": false,
      "inputs": [
        {
          "indexed": false,
          "internalType": "contract IERC20",
          "name": "token",
          "type": "address"
        },
        {
          "indexed": false,
          "internalType": "uint256",
          "name": "amount",
          "type": "uint256"
        }
      ],
      "name": "Profit",
      "type": "event"
    },
    {
      "anonymous": false,
      "inputs": [
        {
          "indexed": false,
          "internalType": "uint64",
          "name": "initialAPrecise",
          "type": "uint64"
        },
        {
          "indexed": false,
          "internalType": "uint64",
          "name": "futureAPrecise",
          "type": "uint64"
        },
        {
          "indexed": false,
          "internalType": "uint64",
          "name": "initialTime",
          "type": "uint64"
        },
        {
          "indexed": false,
          "internalType": "uint64",
          "name": "futureTime",
          "type": "uint64"
        }
      ],
      "name": "RampA",
      "type": "event"
    },
    {
      "anonymous": false,
      "inputs": [
        {
          "indexed": false,
          "internalType": "uint64",
          "name": "currentAPrecise",
          "type": "uint64"
        },
        {
          "indexed": false,
          "internalType": "uint64",
          "name": "time",
          "type": "uint64"
        }
      ],
      "name": "StopRampA",
      "type": "event"
    },
    {
      "anonymous": false,
      "inputs": [
        {
          "indexed": true,
          "internalType": "address",
          "name": "sender",
          "type": "address"
        },
        {
          "indexed": false,
          "internalType": "bool",
          "name": "zeroForOne",
          "type": "bool"
        },
        {
          "indexed": false,
          "internalType": "uint256",
          "name": "amountIn",
          "type": "uint256"
        },
        {
          "indexed": false,
          "internalType": "uint256",
          "name": "amountOut",
          "type": "uint256"
        },
        {
          "indexed": true,
          "internalType": "address",
          "name": "to",
          "type": "address"
        }
      ],
      "name": "Swap",
      "type": "event"
    },
    {
      "anonymous": false,
      "inputs": [
        {
          "indexed": false,
          "internalType": "uint256",
          "name": "newSwapFee",
          "type": "uint256"
        }
      ],
      "name": "SwapFee",
      "type": "event"
    },
    {
      "anonymous": false,
      "inputs": [
        {
          "indexed": false,
          "internalType": "uint104",
          "name": "reserve0",
          "type": "uint104"
        },
        {
          "indexed": false,
          "internalType": "uint104",
          "name": "reserve1",
          "type": "uint104"
        }
      ],
      "name": "Sync",
      "type": "event"
    },
    {
      "anonymous": false,
      "inputs": [
        {
          "indexed": true,
          "internalType": "address",
          "name": "from",
          "type": "address"
        },
        {
          "indexed": true,
          "internalType": "address",
          "name": "to",
          "type": "address"
        },
        {
          "indexed": false,
          "internalType": "uint256",
          "name": "amount",
          "type": "uint256"
        }
      ],
      "name": "Transfer",
      "type": "event"
    },
    {
      "inputs": [],
      "name": "DOMAIN_SEPARATOR",
      "outputs": [
        {
          "internalType": "bytes32",
          "name": "",
          "type": "bytes32"
        }
      ],
      "stateMutability": "view",
      "type": "function"
    },
    {
      "inputs": [],
      "name": "FEE_ACCURACY",
      "outputs": [
        {
          "internalType": "uint256",
          "name": "",
          "type": "uint256"
        }
      ],
      "stateMutability": "view",
      "type": "function"
    },
    {
      "inputs": [],
      "name": "MAX_PLATFORM_FEE",
      "outputs": [
        {
          "internalType": "uint256",
          "name": "",
          "type": "uint256"
        }
      ],
      "stateMutability": "view",
      "type": "function"
    },
    {
      "inputs": [],
      "name": "MAX_SWAP_FEE",
      "outputs": [
        {
          "internalType": "uint256",
          "name": "",
          "type": "uint256"
        }
      ],
      "stateMutability": "view",
      "type": "function"
    },
    {
      "inputs": [],
      "name": "MINIMUM_LIQUIDITY",
      "outputs": [
        {
          "internalType": "uint256",
          "name": "",
          "type": "uint256"
        }
      ],
      "stateMutability": "view",
      "type": "function"
    },
    {
      "inputs": [
        {
          "internalType": "int256",
          "name": "aToken0Change",
          "type": "int256"
        },
        {
          "internalType": "int256",
          "name": "aToken1Change",
          "type": "int256"
        }
      ],
      "name": "adjustManagement",
      "outputs": [],
      "stateMutability": "nonpayable",
      "type": "function"
    },
    {
      "inputs": [
        {
          "internalType": "address",
          "name": "",
          "type": "address"
        },
        {
          "internalType": "address",
          "name": "",
          "type": "address"
        }
      ],
      "name": "allowance",
      "outputs": [
        {
          "internalType": "uint256",
          "name": "",
          "type": "uint256"
        }
      ],
      "stateMutability": "view",
      "type": "function"
    },
    {
      "inputs": [],
      "name": "ampData",
      "outputs": [
        {
          "internalType": "uint64",
          "name": "initialA",
          "type": "uint64"
        },
        {
          "internalType": "uint64",
          "name": "futureA",
          "type": "uint64"
        },
        {
          "internalType": "uint64",
          "name": "initialATime",
          "type": "uint64"
        },
        {
          "internalType": "uint64",
          "name": "futureATime",
          "type": "uint64"
        }
      ],
      "stateMutability": "view",
      "type": "function"
    },
    {
      "inputs": [
        {
          "internalType": "address",
          "name": "spender",
          "type": "address"
        },
        {
          "internalType": "uint256",
          "name": "amount",
          "type": "uint256"
        }
      ],
      "name": "approve",
      "outputs": [
        {
          "internalType": "bool",
          "name": "",
          "type": "bool"
        }
      ],
      "stateMutability": "nonpayable",
      "type": "function"
    },
    {
      "inputs": [],
      "name": "assetManager",
      "outputs": [
        {
          "internalType": "contract IAssetManager",
          "name": "",
          "type": "address"
        }
      ],
      "stateMutability": "view",
      "type": "function"
    },
    {
      "inputs": [
        {
          "internalType": "address",
          "name": "",
          "type": "address"
        }
      ],
      "name": "balanceOf",
      "outputs": [
        {
          "internalType": "uint256",
          "name": "",
          "type": "uint256"
        }
      ],
      "stateMutability": "view",
      "type": "function"
    },
    {
      "inputs": [
        {
          "internalType": "address",
          "name": "",
          "type": "address"
        }
      ],
      "name": "burn",
      "outputs": [
        {
          "internalType": "uint256",
          "name": "",
          "type": "uint256"
        },
        {
          "internalType": "uint256",
          "name": "",
          "type": "uint256"
        }
      ],
      "stateMutability": "nonpayable",
      "type": "function"
    },
    {
      "inputs": [],
      "name": "customPlatformFee",
      "outputs": [
        {
          "internalType": "uint256",
          "name": "",
          "type": "uint256"
        }
      ],
      "stateMutability": "view",
      "type": "function"
    },
    {
      "inputs": [],
      "name": "customSwapFee",
      "outputs": [
        {
          "internalType": "uint256",
          "name": "",
          "type": "uint256"
        }
      ],
      "stateMutability": "view",
      "type": "function"
    },
    {
      "inputs": [],
      "name": "decimals",
      "outputs": [
        {
          "internalType": "uint8",
          "name": "",
          "type": "uint8"
        }
      ],
      "stateMutability": "view",
      "type": "function"
    },
    {
      "inputs": [],
      "name": "factory",
      "outputs": [
        {
          "internalType": "contract IGenericFactory",
          "name": "",
          "type": "address"
        }
      ],
      "stateMutability": "view",
      "type": "function"
    },
    {
      "inputs": [],
      "name": "getCurrentA",
      "outputs": [
        {
          "internalType": "uint64",
          "name": "",
          "type": "uint64"
        }
      ],
      "stateMutability": "view",
      "type": "function"
    },
    {
      "inputs": [],
      "name": "getCurrentAPrecise",
      "outputs": [
        {
          "internalType": "uint64",
          "name": "",
          "type": "uint64"
        }
      ],
      "stateMutability": "view",
      "type": "function"
    },
    {
      "inputs": [],
      "name": "getReserves",
      "outputs": [
        {
          "internalType": "uint104",
          "name": "rReserve0",
          "type": "uint104"
        },
        {
          "internalType": "uint104",
          "name": "rReserve1",
          "type": "uint104"
        },
        {
          "internalType": "uint32",
          "name": "rBlockTimestampLast",
          "type": "uint32"
        },
        {
          "internalType": "uint16",
          "name": "rIndex",
          "type": "uint16"
        }
      ],
      "stateMutability": "view",
      "type": "function"
    },
    {
      "inputs": [],
      "name": "lastInvariant",
      "outputs": [
        {
          "internalType": "uint192",
          "name": "",
          "type": "uint192"
        }
      ],
      "stateMutability": "view",
      "type": "function"
    },
    {
      "inputs": [],
      "name": "lastInvariantAmp",
      "outputs": [
        {
          "internalType": "uint64",
          "name": "",
          "type": "uint64"
        }
      ],
      "stateMutability": "view",
      "type": "function"
    },
    {
      "inputs": [],
      "name": "maxChangeRate",
      "outputs": [
        {
          "internalType": "uint256",
          "name": "",
          "type": "uint256"
        }
      ],
      "stateMutability": "view",
      "type": "function"
    },
    {
      "inputs": [
        {
          "internalType": "address",
          "name": "",
          "type": "address"
        }
      ],
      "name": "mint",
      "outputs": [
        {
          "internalType": "uint256",
          "name": "",
          "type": "uint256"
        }
      ],
      "stateMutability": "nonpayable",
      "type": "function"
    },
    {
      "inputs": [
        {
          "internalType": "uint256",
          "name": "",
          "type": "uint256"
        },
        {
          "internalType": "uint256",
          "name": "",
          "type": "uint256"
        }
      ],
      "name": "mintFee",
      "outputs": [
        {
          "internalType": "uint256",
          "name": "",
          "type": "uint256"
        },
        {
          "internalType": "uint256",
          "name": "",
          "type": "uint256"
        }
      ],
      "stateMutability": "nonpayable",
      "type": "function"
    },
    {
      "inputs": [],
      "name": "name",
      "outputs": [
        {
          "internalType": "string",
          "name": "",
          "type": "string"
        }
      ],
      "stateMutability": "view",
      "type": "function"
    },
    {
      "inputs": [
        {
          "internalType": "address",
          "name": "",
          "type": "address"
        }
      ],
      "name": "nonces",
      "outputs": [
        {
          "internalType": "uint256",
          "name": "",
          "type": "uint256"
        }
      ],
      "stateMutability": "view",
      "type": "function"
    },
    {
      "inputs": [
        {
          "internalType": "uint256",
          "name": "aIndex",
          "type": "uint256"
        }
      ],
      "name": "observation",
      "outputs": [
        {
          "components": [
            {
              "internalType": "int112",
              "name": "logAccRawPrice",
              "type": "int112"
            },
            {
              "internalType": "int56",
              "name": "logAccClampedPrice",
              "type": "int56"
            },
            {
              "internalType": "int56",
              "name": "logAccLiquidity",
              "type": "int56"
            },
            {
              "internalType": "uint32",
              "name": "timestamp",
              "type": "uint32"
            }
          ],
          "internalType": "struct Observation",
          "name": "rObservation",
          "type": "tuple"
        }
      ],
      "stateMutability": "view",
      "type": "function"
    },
    {
      "inputs": [],
      "name": "oracleCaller",
      "outputs": [
        {
          "internalType": "address",
          "name": "",
          "type": "address"
        }
      ],
      "stateMutability": "view",
      "type": "function"
    },
    {
      "inputs": [
        {
          "internalType": "address",
          "name": "owner",
          "type": "address"
        },
        {
          "internalType": "address",
          "name": "spender",
          "type": "address"
        },
        {
          "internalType": "uint256",
          "name": "value",
          "type": "uint256"
        },
        {
          "internalType": "uint256",
          "name": "deadline",
          "type": "uint256"
        },
        {
          "internalType": "uint8",
          "name": "v",
          "type": "uint8"
        },
        {
          "internalType": "bytes32",
          "name": "r",
          "type": "bytes32"
        },
        {
          "internalType": "bytes32",
          "name": "s",
          "type": "bytes32"
        }
      ],
      "name": "permit",
      "outputs": [],
      "stateMutability": "nonpayable",
      "type": "function"
    },
    {
      "inputs": [],
      "name": "platformFee",
      "outputs": [
        {
          "internalType": "uint256",
          "name": "",
          "type": "uint256"
        }
      ],
      "stateMutability": "view",
      "type": "function"
    },
    {
      "inputs": [],
      "name": "prevClampedPrice",
      "outputs": [
        {
          "internalType": "uint256",
          "name": "",
          "type": "uint256"
        }
      ],
      "stateMutability": "view",
      "type": "function"
    },
    {
      "inputs": [
        {
          "internalType": "uint64",
          "name": "aFutureARaw",
          "type": "uint64"
        },
        {
          "internalType": "uint64",
          "name": "aFutureATime",
          "type": "uint64"
        }
      ],
      "name": "rampA",
      "outputs": [],
      "stateMutability": "nonpayable",
      "type": "function"
    },
    {
      "inputs": [
        {
          "internalType": "contract IERC20",
          "name": "aToken",
          "type": "address"
        }
      ],
      "name": "recoverToken",
      "outputs": [],
      "stateMutability": "nonpayable",
      "type": "function"
    },
    {
      "inputs": [
        {
          "internalType": "uint256",
          "name": "aCustomPlatformFee",
          "type": "uint256"
        }
      ],
      "name": "setCustomPlatformFee",
      "outputs": [],
      "stateMutability": "nonpayable",
      "type": "function"
    },
    {
      "inputs": [
        {
          "internalType": "uint256",
          "name": "aCustomSwapFee",
          "type": "uint256"
        }
      ],
      "name": "setCustomSwapFee",
      "outputs": [],
      "stateMutability": "nonpayable",
      "type": "function"
    },
    {
      "inputs": [
        {
          "internalType": "contract IAssetManager",
          "name": "manager",
          "type": "address"
        }
      ],
      "name": "setManager",
      "outputs": [],
      "stateMutability": "nonpayable",
      "type": "function"
    },
    {
      "inputs": [
        {
          "internalType": "uint256",
          "name": "aMaxChangeRate",
          "type": "uint256"
        }
      ],
      "name": "setMaxChangeRate",
      "outputs": [],
      "stateMutability": "nonpayable",
      "type": "function"
    },
    {
      "inputs": [
        {
          "internalType": "address",
          "name": "aTo",
          "type": "address"
        }
      ],
      "name": "skim",
      "outputs": [],
      "stateMutability": "nonpayable",
      "type": "function"
    },
    {
      "inputs": [
        {
          "internalType": "contract IERC20",
          "name": "aToken",
          "type": "address"
        }
      ],
      "name": "skimExcessManaged",
      "outputs": [
        {
          "internalType": "uint256",
          "name": "rAmtSkimmed",
          "type": "uint256"
        }
      ],
      "stateMutability": "nonpayable",
      "type": "function"
    },
    {
      "inputs": [],
      "name": "stopRampA",
      "outputs": [],
      "stateMutability": "nonpayable",
      "type": "function"
    },
    {
      "inputs": [
        {
          "internalType": "int256",
          "name": "aAmount",
          "type": "int256"
        },
        {
          "internalType": "bool",
          "name": "aExactIn",
          "type": "bool"
        },
        {
          "internalType": "address",
          "name": "aTo",
          "type": "address"
        },
        {
          "internalType": "bytes",
          "name": "aData",
          "type": "bytes"
        }
      ],
      "name": "swap",
      "outputs": [
        {
          "internalType": "uint256",
          "name": "rAmountOut",
          "type": "uint256"
        }
      ],
      "stateMutability": "nonpayable",
      "type": "function"
    },
    {
      "inputs": [],
      "name": "swapFee",
      "outputs": [
        {
          "internalType": "uint256",
          "name": "",
          "type": "uint256"
        }
      ],
      "stateMutability": "view",
      "type": "function"
    },
    {
      "inputs": [],
      "name": "symbol",
      "outputs": [
        {
          "internalType": "string",
          "name": "",
          "type": "string"
        }
      ],
      "stateMutability": "view",
      "type": "function"
    },
    {
      "inputs": [],
      "name": "sync",
      "outputs": [],
      "stateMutability": "nonpayable",
      "type": "function"
    },
    {
      "inputs": [],
      "name": "token0",
      "outputs": [
        {
          "internalType": "contract IERC20",
          "name": "",
          "type": "address"
        }
      ],
      "stateMutability": "view",
      "type": "function"
    },
    {
      "inputs": [],
      "name": "token0Managed",
      "outputs": [
        {
          "internalType": "uint104",
          "name": "",
          "type": "uint104"
        }
      ],
      "stateMutability": "view",
      "type": "function"
    },
    {
      "inputs": [],
      "name": "token0PrecisionMultiplier",
      "outputs": [
        {
          "internalType": "uint128",
          "name": "",
          "type": "uint128"
        }
      ],
      "stateMutability": "view",
      "type": "function"
    },
    {
      "inputs": [],
      "name": "token1",
      "outputs": [
        {
          "internalType": "contract IERC20",
          "name": "",
          "type": "address"
        }
      ],
      "stateMutability": "view",
      "type": "function"
    },
    {
      "inputs": [],
      "name": "token1Managed",
      "outputs": [
        {
          "internalType": "uint104",
          "name": "",
          "type": "uint104"
        }
      ],
      "stateMutability": "view",
      "type": "function"
    },
    {
      "inputs": [],
      "name": "token1PrecisionMultiplier",
      "outputs": [
        {
          "internalType": "uint128",
          "name": "",
          "type": "uint128"
        }
      ],
      "stateMutability": "view",
      "type": "function"
    },
    {
      "inputs": [],
      "name": "totalSupply",
      "outputs": [
        {
          "internalType": "uint256",
          "name": "",
          "type": "uint256"
        }
      ],
      "stateMutability": "view",
      "type": "function"
    },
    {
      "inputs": [
        {
          "internalType": "address",
          "name": "to",
          "type": "address"
        },
        {
          "internalType": "uint256",
          "name": "amount",
          "type": "uint256"
        }
      ],
      "name": "transfer",
      "outputs": [
        {
          "internalType": "bool",
          "name": "",
          "type": "bool"
        }
      ],
      "stateMutability": "nonpayable",
      "type": "function"
    },
    {
      "inputs": [
        {
          "internalType": "address",
          "name": "from",
          "type": "address"
        },
        {
          "internalType": "address",
          "name": "to",
          "type": "address"
        },
        {
          "internalType": "uint256",
          "name": "amount",
          "type": "uint256"
        }
      ],
      "name": "transferFrom",
      "outputs": [
        {
          "internalType": "bool",
          "name": "",
          "type": "bool"
        }
      ],
      "stateMutability": "nonpayable",
      "type": "function"
    },
    {
      "inputs": [],
      "name": "updateOracleCaller",
      "outputs": [],
      "stateMutability": "nonpayable",
      "type": "function"
    },
    {
      "inputs": [],
      "name": "updatePlatformFee",
      "outputs": [],
      "stateMutability": "nonpayable",
      "type": "function"
    },
    {
      "inputs": [],
      "name": "updateSwapFee",
      "outputs": [],
      "stateMutability": "nonpayable",
      "type": "function"
    }
  ],
  "bytecode": {
    "object": "0x61024060405260006101c08190526101e08190526102005261ffff610220526001600160f01b03196006556000196008819055600a553480156200004257600080fd5b5060405162006b9238038062006b92833981016040819052620000659162000af7565b81816040518060400160405280600b81526020016a53503a3a7377617046656560a81b8152506200009d85856200056e60201b60201c565b620000aa576001620000ad565b60005b604051806040016040528060128152602001712932b9b2b93b37b4b9102628102a37b5b2b760711b8152506040518060400160405280600681526020016505245532d4c560d41b815250601282600090816200010a919062000bdb565b50600162000119838262000bdb565b5060ff81166080524660a0526200012f62000598565b60c05250503360e052506001600160a01b0384811661010052831661012052806200015c576000620001db565b836001600160a01b031663313ce5676040518163ffffffff1660e01b8152600401602060405180830381865afa1580156200019b573d6000803e3d6000fd5b505050506040513d601f19601f82011682018060405250810190620001c1919062000ca7565b620001ce90601262000ce9565b620001db90600a62000e43565b6001600160801b03166101405280620001f657600062000275565b826001600160a01b031663313ce5676040518163ffffffff1660e01b8152600401602060405180830381865afa15801562000235573d6000803e3d6000fd5b505050506040513d601f19601f820116820180604052508101906200025b919062000ca7565b6200026890601262000ce9565b6200027590600a62000e43565b6001600160801b0316610160528151602083012061018052801562000318576200029e62000634565b620002a86200075f565b620002b262000864565b62000318620003126200030f6040518060400160405280601581526020017f5368617265643a3a6d61784368616e676552617465000000000000000000000081525060e0516001600160a01b03166200094460201b90919060201c565b90565b620009e1565b5050505060006200033083836200056e60201b60201c565b905080620003a55760e0516001600160a01b03166331fe865d6040518163ffffffff1660e01b8152600401602060405180830381865afa15801562000379573d6000803e3d6000fd5b505050506040513d601f19601f820116820180604052508101906200039f919062000e5d565b620003a8565b60005b6001600160a01b03166101a05280620005655760006101a0516001600160a01b03163b116200041e5760405162461bcd60e51b815260206004820152601a60248201527f53503a204d494e545f4255524e5f4e4f545f4445504c4f59454400000000000060448201526064015b60405180910390fd5b6064620004796200030f6040518060400160405280601c81526020017f53503a3a616d706c696669636174696f6e436f656666696369656e740000000081525060e0516001600160a01b03166200094460201b90919060201c565b62000485919062000e7d565b6201001080546001600160801b0319166001600160401b039283169081176801000000000000000091909102176001600160801b0316600160801b42939093169283026001600160c01b031617600160c01b92909202919091179055620004ef6064600162000eab565b62010010546001600160401b03161080159062000527575062000516606461271062000eab565b62010010546001600160401b031611155b620005655760405162461bcd60e51b815260206004820152600d60248201526c53503a20494e56414c49445f4160981b604482015260640162000415565b50505062000f8e565b60006001600160a01b0383161580156200058f57506001600160a01b038216155b90505b92915050565b60007f8b73c3c69bb8fe3d512ecc4cf759cc79239f7b179b0ffacaa9a75d522b39400f6000604051620005cc919062000ec5565b6040805191829003822060208301939093528101919091527fc89efdaa54c0f20c7adf612882df0950f5a951637e0307cdcb4c672f298b8bc660608201524660808201523060a082015260c00160405160208183030381529060405280519060200120905090565b600060001960085403620006c05760e0516101805160405163023aa9ab60e61b81526004810191909152620006ba916001600160a01b031690638eaa6ac090602401602060405180830381865afa15801562000694573d6000803e3d6000fd5b505050506040513d601f19601f820116820180604052508101906200030f919062000f43565b620006c4565b6008545b90506007548103620006d35750565b614e20811115620007275760405162461bcd60e51b815260206004820152601460248201527f52503a20494e56414c49445f535741505f464545000000000000000000000000604482015260640162000415565b6040518181527f829472a12eb635e89660a3fd5efc2b638147cce371274f7185a2cc915bd0dafc9060200160405180910390a1600755565b6000600019600a5403620007c45760408051808201909152601381527f5368617265643a3a706c6174666f726d46656500000000000000000000000000602082015260e051620007be916200030f916001600160a01b03169062000944565b620007c8565b600a545b90506009548103620007d75750565b620f42408111156200082c5760405162461bcd60e51b815260206004820152601860248201527f52503a20494e56414c49445f504c4154464f524d5f4645450000000000000000604482015260640162000415565b6040518181527f6f9983488bd1500c372d1f10befe9e7790d764b18c848cfa10872f4e248ded929060200160405180910390a1600955565b6000620008bf6200030f6040518060400160405280601481526020017f5368617265643a3a6f7261636c6543616c6c657200000000000000000000000081525060e0516001600160a01b03166200094460201b90919060201c565b6201000f549091506001600160a01b0380831691161462000941576201000f54604080516001600160a01b03928316815291831660208301527f262681b3b01b61ff6d02569759105771205cdd274fb3c45535b50632e0a3523f910160405180910390a16201000f80546001600160a01b0319166001600160a01b0383161790555b50565b6000826001600160a01b0316638eaa6ac08360405160200162000968919062000f5d565b604051602081830303815290604052805190602001206040518263ffffffff1660e01b81526004016200099d91815260200190565b602060405180830381865afa158015620009bb573d6000803e3d6000fd5b505050506040513d601f19601f820116820180604052508101906200058f919062000f43565b60e0516001600160a01b0316336001600160a01b03161462000a365760405162461bcd60e51b815260206004820152600d60248201526c29281d102327a92124a22222a760991b604482015260640162000415565b80600010801562000a4e5750662386f26fc100008111155b62000a9c5760405162461bcd60e51b815260206004820152601d60248201527f52503a20494e56414c49445f4348414e47455f5045525f5345434f4e44000000604482015260640162000415565b6201000d5460408051918252602082018390527f807b9f5907da3f00bf587e77bc07247e1c7ff5ae46c93a584b3a075be0b1bac2910160405180910390a16201000d55565b6001600160a01b03811681146200094157600080fd5b6000806040838503121562000b0b57600080fd5b825162000b188162000ae1565b602084015190925062000b2b8162000ae1565b809150509250929050565b634e487b7160e01b600052604160045260246000fd5b600181811c9082168062000b6157607f821691505b60208210810362000b8257634e487b7160e01b600052602260045260246000fd5b50919050565b601f82111562000bd657600081815260208120601f850160051c8101602086101562000bb15750805b601f850160051c820191505b8181101562000bd25782815560010162000bbd565b5050505b505050565b81516001600160401b0381111562000bf75762000bf762000b36565b62000c0f8162000c08845462000b4c565b8462000b88565b602080601f83116001811462000c47576000841562000c2e5750858301515b600019600386901b1c1916600185901b17855562000bd2565b600085815260208120601f198616915b8281101562000c785788860151825594840194600190910190840162000c57565b508582101562000c975787850151600019600388901b60f8161c191681555b5050505050600190811b01905550565b60006020828403121562000cba57600080fd5b815160ff8116811462000ccc57600080fd5b9392505050565b634e487b7160e01b600052601160045260246000fd5b60ff828116828216039081111562000592576200059262000cd3565b600181815b8085111562000d4c576001600160801b0382900482111562000d305762000d3062000cd3565b8085161562000d3e57918102915b93841c939080029062000d0a565b509250929050565b60008262000d655750600162000592565b8162000d745750600062000592565b816001811462000d8d576002811462000d985762000dd3565b600191505062000592565b60ff84111562000dac5762000dac62000cd3565b6001841b91506001600160801b0382111562000dcc5762000dcc62000cd3565b5062000592565b5060208310610133831016604e8410600b841016171562000e12575081810a6001600160801b0381111562000e0c5762000e0c62000cd3565b62000592565b62000e1e838362000d05565b6001600160801b0381900482111562000e3b5762000e3b62000cd3565b029392505050565b60006200058f60ff84166001600160801b03841662000d54565b60006020828403121562000e7057600080fd5b815162000ccc8162000ae1565b6001600160401b0381811683821602808216919082811462000ea35762000ea362000cd3565b505092915050565b808202811582820484141762000592576200059262000cd3565b600080835462000ed58162000b4c565b6001828116801562000ef0576001811462000f065762000f37565b60ff198416875282151583028701945062000f37565b8760005260208060002060005b8581101562000f2e5781548a82015290840190820162000f13565b50505082870194505b50929695505050505050565b60006020828403121562000f5657600080fd5b5051919050565b6000825160005b8181101562000f80576020818601810151858301520162000f64565b506000920191825250919050565b60805160a05160c05160e05161010051610120516101405161016051610180516101a051615a6962001129600039600061308e01526000610b9b01526000818161061e01528181613920015281816139aa01526142750152600081816108ec015281816138ed0152818161397701526142390152600081816109a2015281816115ab01528181611c4201528181611cf601528181611d750152818161229301528181612b6101528181612ce701528181612dab01528181612fba015281816138b30152613c4801526000818161048801528181611556015281816117d201528181611aa601528181611b7701528181611d1e0152818161225101528181612b9601528181612c4201528181612d4801528181612e7d01528181613577015281816136440152613c2301526000818161092801528181610bc501528181610ebb0152818161102f015281816113fa01528181611753015281816118ce01528181611e6a0152818161214d015281816122e50152818161247c01526129a901526000610ff501526000610fc50152600061054e0152615a696000f3fe608060405234801561001057600080fd5b50600436106103785760003560e01c806394217ad1116101d3578063bc25cf7711610104578063d505accf116100a2578063dd62ed3e1161007c578063dd62ed3e146109e1578063e12bd9d814610a0c578063e9bdf7b814610a1f578063fff6cae914610a3857600080fd5b8063d505accf146109c6578063db6488dc14610592578063dbc781bc146109d957600080fd5b8063c58771ef116100de578063c58771ef14610952578063caa92f1e1461095b578063d0ebdbe71461098d578063d21220a7146109a057600080fd5b8063bc25cf7714610910578063c45a015514610923578063c4db7fa01461094a57600080fd5b8063a9059cbb11610171578063afb4a43b1161014b578063afb4a43b146108ac578063b62221e0146108bf578063ba9a7a56146108e1578063baa8c7cb146108ea57600080fd5b8063a9059cbb14610848578063ab3d85441461085b578063ad7853e91461086457600080fd5b806397e37764116101ad57806397e37764146107c05780639be65a60146107d35780639d62a694146107e65780639f2b37fb1461084057600080fd5b806394217ad1146107855780639568e73b146107a557806395d89b41146107b857600080fd5b806344915136116102ad5780636a6278421161024b5780637c3cbc7c116102255780637c3cbc7c1461073e5780637ecebe001461074757806385faf6241461076757806389afcb441461077257600080fd5b80636a627842146106f857806370a082311461070b5780637aec721b1461072b57600080fd5b80634dfa1ff9116102875780634dfa1ff9146106095780634e25dc471461061c57806354cf2aeb1461065f578063598362f01461066857600080fd5b8063449151361461059c578063495bc0fb146105af5780634c7b2a71146105ba57600080fd5b806323b872dd1161031a578063313ce567116102f4578063313ce5671461054957806331c49074146105825780633644e5151461058a5780633998a6811461059257600080fd5b806323b872dd1461050c57806326232a2e1461051f57806328d98c951461052857600080fd5b80630c472afd116103565780630c472afd1461047c5780630dfe1681146104865780630efd898a146104cd57806318160ddd146104f557600080fd5b806306fdde031461037d5780630902f1ac1461039b578063095ea7b314610459575b600080fd5b610385610a40565b6040516103929190615301565b60405180910390f35b60408051608080820183526006546cffffffffffffffffffffffffff8082168085526d0100000000000000000000000000830490911660208086018290527a010000000000000000000000000000000000000000000000000000840463ffffffff8116878901527e0100000000000000000000000000000000000000000000000000000000000090940461ffff166060968701819052875193845290830191909152637fffffff909216948101949094529183019190915201610392565b61046c610467366004615374565b610ace565b6040519015158152602001610392565b610484610b48565b005b7f00000000000000000000000000000000000000000000000000000000000000005b60405173ffffffffffffffffffffffffffffffffffffffff9091168152602001610392565b6104e06104db3660046153a0565b610d08565b60408051928352602083019190915201610392565b6104fe60025481565b604051908152602001610392565b61046c61051a3660046153c2565b610d1a565b6104fe60095481565b610530610e60565b60405167ffffffffffffffff9091168152602001610392565b6105707f000000000000000000000000000000000000000000000000000000000000000081565b60405160ff9091168152602001610392565b610484610e7b565b6104fe610fc1565b6104fe620f424081565b6104846105aa36600461541b565b611017565b6104fe6201000e5481565b62010011546105e09077ffffffffffffffffffffffffffffffffffffffffffffffff1681565b60405177ffffffffffffffffffffffffffffffffffffffffffffffff9091168152602001610392565b61048461061736600461544e565b6113e2565b7f00000000000000000000000000000000000000000000000000000000000000005b6040516fffffffffffffffffffffffffffffffff9091168152602001610392565b6104fe60075481565b62010010546106c49067ffffffffffffffff808216916801000000000000000081048216917001000000000000000000000000000000008204811691780100000000000000000000000000000000000000000000000090041684565b6040805167ffffffffffffffff95861681529385166020850152918416918301919091529091166060820152608001610392565b6104fe610706366004615467565b611543565b6104fe610719366004615467565b60036020526000908152604090205481565b6104fe610739366004615467565b611552565b6104fe600a5481565b6104fe610755366004615467565b60056020526000908152604090205481565b6104fe6201000d5481565b6104e0610780366004615467565b6118a6565b600b546104a89073ffffffffffffffffffffffffffffffffffffffff1681565b6104846107b336600461544e565b6118b6565b610385611995565b6104846107ce3660046153a0565b6119a2565b6104846107e1366004615467565b611d1c565b6107f96107f436600461544e565b611f64565b604051610392919060006080820190508251600d0b8252602083015160060b6020830152604083015160060b604083015263ffffffff606084015116606083015292915050565b6105306120a6565b61046c610856366004615374565b6120b0565b6104fe614e2081565b600c5461088e906d010000000000000000000000000090046cffffffffffffffffffffffffff1681565b6040516cffffffffffffffffffffffffff9091168152602001610392565b6104846108ba36600461544e565b612135565b6201000f546104a89073ffffffffffffffffffffffffffffffffffffffff1681565b6104fe6103e881565b7f000000000000000000000000000000000000000000000000000000000000000061063e565b61048461091e366004615467565b612214565b6104a87f000000000000000000000000000000000000000000000000000000000000000081565b6104846122cd565b6104fe60085481565b6201001154610530907801000000000000000000000000000000000000000000000000900467ffffffffffffffff1681565b61048461099b366004615467565b612464565b7f00000000000000000000000000000000000000000000000000000000000000006104a8565b6104846109d4366004615484565b612621565b610484612940565b6104fe6109ef3660046154fb565b600460209081526000928352604080842090915290825290205481565b6104fe610a1a366004615542565b612aa8565b600c5461088e906cffffffffffffffffffffffffff1681565b610484613026565b60008054610a4d906155e1565b80601f0160208091040260200160405190810160405280929190818152602001828054610a79906155e1565b8015610ac65780601f10610a9b57610100808354040283529160200191610ac6565b820191906000526020600020905b815481529060010190602001808311610aa957829003601f168201915b505050505081565b33600081815260046020908152604080832073ffffffffffffffffffffffffffffffffffffffff8716808552925280832085905551919290917f8c5be1e5ebec7d5bd14f71427d1e84f3dd0314c0f7b2291e5b200ac8c7c3b92590610b369086815260200190565b60405180910390a35060015b92915050565b60007fffffffffffffffffffffffffffffffffffffffffffffffffffffffffffffffff60085403610c4d576040517f8eaa6ac00000000000000000000000000000000000000000000000000000000081527f00000000000000000000000000000000000000000000000000000000000000006004820152610c48907f000000000000000000000000000000000000000000000000000000000000000073ffffffffffffffffffffffffffffffffffffffff1690638eaa6ac090602401602060405180830381865afa158015610c21573d6000803e3d6000fd5b505050506040513d601f19601f82011682018060405250810190610c45919061562e565b90565b610c51565b6008545b90506007548103610c5f5750565b614e20811115610cd0576040517f08c379a000000000000000000000000000000000000000000000000000000000815260206004820152601460248201527f52503a20494e56414c49445f535741505f46454500000000000000000000000060448201526064015b60405180910390fd5b6040518181527f829472a12eb635e89660a3fd5efc2b638147cce371274f7185a2cc915bd0dafc9060200160405180910390a1600755565b600080610d1361308c565b9250929050565b73ffffffffffffffffffffffffffffffffffffffff831660009081526004602090815260408083203384529091528120547fffffffffffffffffffffffffffffffffffffffffffffffffffffffffffffffff8114610dae57610d7c8382615676565b73ffffffffffffffffffffffffffffffffffffffff861660009081526004602090815260408083203384529091529020555b73ffffffffffffffffffffffffffffffffffffffff851660009081526003602052604081208054859290610de3908490615676565b909155505073ffffffffffffffffffffffffffffffffffffffff808516600081815260036020526040908190208054870190555190918716907fddf252ad1be2c89b69c2b068fc378daa952ba7f163c4a11628f55a4df523b3ef90610e4b9087815260200190565b60405180910390a360019150505b9392505050565b60006064610e6c6130d1565b610e7691906156b8565b905090565b6000610efe610c456040518060400160405280601481526020017f5368617265643a3a6f7261636c6543616c6c65720000000000000000000000008152507f000000000000000000000000000000000000000000000000000000000000000073ffffffffffffffffffffffffffffffffffffffff166131e490919063ffffffff16565b6201000f5490915073ffffffffffffffffffffffffffffffffffffffff808316911614610fbe576201000f546040805173ffffffffffffffffffffffffffffffffffffffff928316815291831660208301527f262681b3b01b61ff6d02569759105771205cdd274fb3c45535b50632e0a3523f910160405180910390a16201000f80547fffffffffffffffffffffffff00000000000000000000000000000000000000001673ffffffffffffffffffffffffffffffffffffffff83161790555b50565b60007f00000000000000000000000000000000000000000000000000000000000000004614610ff257610e76613288565b507f000000000000000000000000000000000000000000000000000000000000000090565b3373ffffffffffffffffffffffffffffffffffffffff7f000000000000000000000000000000000000000000000000000000000000000016146110b6576040517f08c379a000000000000000000000000000000000000000000000000000000000815260206004820152600d60248201527f52503a20464f5242494444454e000000000000000000000000000000000000006044820152606401610cc7565b60018267ffffffffffffffff16101580156110dd57506127108267ffffffffffffffff1611155b611143576040517f08c379a000000000000000000000000000000000000000000000000000000000815260206004820152600d60248201527f53503a20494e56414c49445f41000000000000000000000000000000000000006044820152606401610cc7565b60006111506064846156df565b905060006111684267ffffffffffffffff8516615676565b9050620151808110156111d7576040517f08c379a000000000000000000000000000000000000000000000000000000000815260206004820152601460248201527f53503a20494e56414c49445f4455524154494f4e0000000000000000000000006044820152606401610cc7565b60006111e16130d1565b90508067ffffffffffffffff168367ffffffffffffffff161161123c5760026112148367ffffffffffffffff861661570b565b61121e919061570b565b61122b82620151806156df565b67ffffffffffffffff161115611276565b60026112528367ffffffffffffffff841661570b565b61125c919061570b565b61126984620151806156df565b67ffffffffffffffff1611155b6112dc576040517f08c379a000000000000000000000000000000000000000000000000000000000815260206004820152601560248201527f53503a20414d505f524154455f544f4f5f4849474800000000000000000000006044820152606401610cc7565b62010010805467ffffffffffffffff8381167fffffffffffffffffffffffffffffffff00000000000000000000000000000000909216821768010000000000000000878316908102919091176fffffffffffffffffffffffffffffffff1670010000000000000000000000000000000042841690810277ffffffffffffffffffffffffffffffffffffffffffffffff16919091177801000000000000000000000000000000000000000000000000938a169384021790945560408051938452602084019190915282810193909352606082015290517f91e3c84fe7f917d978f2dacc9d91d4e48b43b66e15e0526bda0a0866bbb7949d9181900360800190a15050505050565b3373ffffffffffffffffffffffffffffffffffffffff7f00000000000000000000000000000000000000000000000000000000000000001614611481576040517f08c379a000000000000000000000000000000000000000000000000000000000815260206004820152600d60248201527f52503a20464f5242494444454e000000000000000000000000000000000000006044820152606401610cc7565b8060001080156114985750662386f26fc100008111155b6114fe576040517f08c379a000000000000000000000000000000000000000000000000000000000815260206004820152601d60248201527f52503a20494e56414c49445f4348414e47455f5045525f5345434f4e440000006044820152606401610cc7565b6201000d5460408051918252602082018390527f807b9f5907da3f00bf587e77bc07247e1c7ff5ae46c93a584b3a075be0b1bac2910160405180910390a16201000d55565b600061154d61308c565b919050565b60007f000000000000000000000000000000000000000000000000000000000000000073ffffffffffffffffffffffffffffffffffffffff168273ffffffffffffffffffffffffffffffffffffffff1614806115f957507f000000000000000000000000000000000000000000000000000000000000000073ffffffffffffffffffffffffffffffffffffffff168273ffffffffffffffffffffffffffffffffffffffff16145b61165f576040517f08c379a000000000000000000000000000000000000000000000000000000000815260206004820152601660248201527f52503a20494e56414c49445f534b494d5f544f4b454e000000000000000000006044820152606401610cc7565b600b546040517fd4fac45d00000000000000000000000000000000000000000000000000000000815230600482015273ffffffffffffffffffffffffffffffffffffffff8481166024830152600092169063d4fac45d906044016020604051808303816000875af11580156116d8573d6000803e3d6000fd5b505050506040513d601f19601f820116820180604052508101906116fc919061562e565b90506cffffffffffffffffffffffffff8111156118a0576000611796610c456040518060400160405280601181526020017f5368617265643a3a7265636f76657265720000000000000000000000000000008152507f000000000000000000000000000000000000000000000000000000000000000073ffffffffffffffffffffffffffffffffffffffff166131e490919063ffffffff16565b90506117af6cffffffffffffffffffffffffff83615676565b600b5490935073ffffffffffffffffffffffffffffffffffffffff16631566d96d7f00000000000000000000000000000000000000000000000000000000000000006040517fffffffff0000000000000000000000000000000000000000000000000000000060e084901b16815273ffffffffffffffffffffffffffffffffffffffff888116921691909114600482015260248101869052604401600060405180830381600087803b15801561186457600080fd5b505af1158015611878573d6000803e3d6000fd5b5061189e9250505073ffffffffffffffffffffffffffffffffffffffff85168285613322565b505b50919050565b6000806118b161308c565b915091565b3373ffffffffffffffffffffffffffffffffffffffff7f00000000000000000000000000000000000000000000000000000000000000001614611955576040517f08c379a000000000000000000000000000000000000000000000000000000000815260206004820152600d60248201527f52503a20464f5242494444454e000000000000000000000000000000000000006044820152606401610cc7565b6040518181527f0a206ccb05bebde488b6db465d828f44eb7813982d59f228be19c2711d34f2a59060200160405180910390a16008819055610fbe610b48565b60018054610a4d906155e1565b600b5473ffffffffffffffffffffffffffffffffffffffff163314611a23576040517f08c379a000000000000000000000000000000000000000000000000000000000815260206004820152601460248201527f52503a20415554485f4e4f545f4d414e414745520000000000000000000000006044820152606401610cc7565b6000821315611aeb576000611a378361336b565b600c80549192508291600090611a5d9084906cffffffffffffffffffffffffff16615722565b92506101000a8154816cffffffffffffffffffffffffff02191690836cffffffffffffffffffffffffff160217905550611ae533826cffffffffffffffffffffffffff16611ac87f000000000000000000000000000000000000000000000000000000000000000090565b73ffffffffffffffffffffffffffffffffffffffff169190613322565b50611bb9565b6000821215611bb9576000611b07611b028461574f565b61336b565b600c80549192508291600090611b2d9084906cffffffffffffffffffffffffff16615787565b92506101000a8154816cffffffffffffffffffffffffff02191690836cffffffffffffffffffffffffff160217905550611bb73330836cffffffffffffffffffffffffff16611b997f000000000000000000000000000000000000000000000000000000000000000090565b73ffffffffffffffffffffffffffffffffffffffff1692919061340e565b505b6000811315611c69576000611bcd8261336b565b905080600c600d8282829054906101000a90046cffffffffffffffffffffffffff16611bf99190615722565b92506101000a8154816cffffffffffffffffffffffffff02191690836cffffffffffffffffffffffffff160217905550611c6433826cffffffffffffffffffffffffff16611ac87f000000000000000000000000000000000000000000000000000000000000000090565b505050565b6000811215611d18576000611c80611b028361574f565b905080600c600d8282829054906101000a90046cffffffffffffffffffffffffff16611cac9190615787565b92506101000a8154816cffffffffffffffffffffffffff02191690836cffffffffffffffffffffffffff160217905550611c643330836cffffffffffffffffffffffffff16611b997f000000000000000000000000000000000000000000000000000000000000000090565b5050565b7f000000000000000000000000000000000000000000000000000000000000000073ffffffffffffffffffffffffffffffffffffffff168173ffffffffffffffffffffffffffffffffffffffff1614158015611dc457507f000000000000000000000000000000000000000000000000000000000000000073ffffffffffffffffffffffffffffffffffffffff168173ffffffffffffffffffffffffffffffffffffffff1614155b611e2a576040517f08c379a000000000000000000000000000000000000000000000000000000000815260206004820152601c60248201527f52503a20494e56414c49445f544f4b454e5f544f5f5245434f564552000000006044820152606401610cc7565b6000611ead610c456040518060400160405280601181526020017f5368617265643a3a7265636f76657265720000000000000000000000000000008152507f000000000000000000000000000000000000000000000000000000000000000073ffffffffffffffffffffffffffffffffffffffff166131e490919063ffffffff16565b6040517f70a0823100000000000000000000000000000000000000000000000000000000815230600482015290915060009073ffffffffffffffffffffffffffffffffffffffff8416906370a0823190602401602060405180830381865afa158015611f1d573d6000803e3d6000fd5b505050506040513d601f19601f82011682018060405250810190611f41919061562e565b9050611c6473ffffffffffffffffffffffffffffffffffffffff84168383613322565b6040805160808101825260008082526020820181905291810182905260608101919091526201000f5473ffffffffffffffffffffffffffffffffffffffff16331461200b576040517f08c379a000000000000000000000000000000000000000000000000000000000815260206004820152601560248201527f52503a204e4f545f4f5241434c455f43414c4c455200000000000000000000006044820152606401610cc7565b600d82620100008110612020576120206157ad565b604080516080810182529290910154600d81900b83526e0100000000000000000000000000008104600690810b602085015275010000000000000000000000000000000000000000008204900b9183019190915263ffffffff7c010000000000000000000000000000000000000000000000000000000090910416606082015292915050565b6000610e766130d1565b336000908152600360205260408120805483919083906120d1908490615676565b909155505073ffffffffffffffffffffffffffffffffffffffff8316600081815260036020526040908190208054850190555133907fddf252ad1be2c89b69c2b068fc378daa952ba7f163c4a11628f55a4df523b3ef90610b369086815260200190565b3373ffffffffffffffffffffffffffffffffffffffff7f000000000000000000000000000000000000000000000000000000000000000016146121d4576040517f08c379a000000000000000000000000000000000000000000000000000000000815260206004820152600d60248201527f52503a20464f5242494444454e000000000000000000000000000000000000006044820152606401610cc7565b6040518181527f27fb2396a71e9486a99b50638f2bae65e1db08352d1d0688a4b3ad9b5d33df139060200160405180910390a1600a819055610fbe612940565b60008060008061222261345c565b5093506cffffffffffffffffffffffffff1693506cffffffffffffffffffffffffff169350935061228e6122737f000000000000000000000000000000000000000000000000000000000000000090565b868561227d613560565b6122879190615676565b8686613631565b6122bc7f0000000000000000000000000000000000000000000000000000000000000000868461227d61388b565b6122c684826138d7565b5050505050565b3373ffffffffffffffffffffffffffffffffffffffff7f0000000000000000000000000000000000000000000000000000000000000000161461236c576040517f08c379a000000000000000000000000000000000000000000000000000000000815260206004820152600d60248201527f52503a20464f5242494444454e000000000000000000000000000000000000006044820152606401610cc7565b60006123766130d1565b6201001080547fffffffffffffffffffffffffffffffff000000000000000000000000000000001667ffffffffffffffff838116918217680100000000000000008302176fffffffffffffffffffffffffffffffff167001000000000000000000000000000000004292831690810277ffffffffffffffffffffffffffffffffffffffffffffffff169190911778010000000000000000000000000000000000000000000000008202179093556040805192835260208301939093529293507fc2b4a70c4505e53bc276a247d810393c8346d85131cf6a42ee13edf74884037f910160405180910390a15050565b3373ffffffffffffffffffffffffffffffffffffffff7f00000000000000000000000000000000000000000000000000000000000000001614612503576040517f08c379a000000000000000000000000000000000000000000000000000000000815260206004820152600d60248201527f52503a20464f5242494444454e000000000000000000000000000000000000006044820152606401610cc7565b600c546cffffffffffffffffffffffffff161580156125425750600c546d010000000000000000000000000090046cffffffffffffffffffffffffff16155b6125a8576040517f08c379a000000000000000000000000000000000000000000000000000000000815260206004820152601360248201527f52503a20414d5f5354494c4c5f414354495645000000000000000000000000006044820152606401610cc7565b600b80547fffffffffffffffffffffffff00000000000000000000000000000000000000001673ffffffffffffffffffffffffffffffffffffffff83169081179091556040519081527f971e020e6300a23a2ec05293a6804d9679d3b305220ec194d1cc7009a4c88a109060200160405180910390a150565b4284101561268b576040517f08c379a000000000000000000000000000000000000000000000000000000000815260206004820152601760248201527f5045524d49545f444541444c494e455f455850495245440000000000000000006044820152606401610cc7565b60006001612697610fc1565b73ffffffffffffffffffffffffffffffffffffffff8a811660008181526005602090815260409182902080546001810190915582517f6e71edae12b1b97f4d1f60370fef10105fa2faae0126114a169c64845d6126c98184015280840194909452938d166060840152608083018c905260a083019390935260c08083018b90528151808403909101815260e0830190915280519201919091207f190100000000000000000000000000000000000000000000000000000000000061010083015261010282019290925261012281019190915261014201604080517fffffffffffffffffffffffffffffffffffffffffffffffffffffffffffffffe08184030181528282528051602091820120600084529083018083525260ff871690820152606081018590526080810184905260a0016020604051602081039080840390855afa1580156127e9573d6000803e3d6000fd5b50506040517fffffffffffffffffffffffffffffffffffffffffffffffffffffffffffffffe0015191505073ffffffffffffffffffffffffffffffffffffffff81161580159061286457508773ffffffffffffffffffffffffffffffffffffffff168173ffffffffffffffffffffffffffffffffffffffff16145b6128ca576040517f08c379a000000000000000000000000000000000000000000000000000000000815260206004820152600e60248201527f494e56414c49445f5349474e45520000000000000000000000000000000000006044820152606401610cc7565b73ffffffffffffffffffffffffffffffffffffffff90811660009081526004602090815260408083208a8516808552908352928190208990555188815291928a16917f8c5be1e5ebec7d5bd14f71427d1e84f3dd0314c0f7b2291e5b200ac8c7c3b925910160405180910390a350505050505050565b60007fffffffffffffffffffffffffffffffffffffffffffffffffffffffffffffffff600a54036129f1576129ec610c456040518060400160405280601381526020017f5368617265643a3a706c6174666f726d466565000000000000000000000000008152507f000000000000000000000000000000000000000000000000000000000000000073ffffffffffffffffffffffffffffffffffffffff166131e490919063ffffffff16565b6129f5565b600a545b90506009548103612a035750565b620f4240811115612a70576040517f08c379a000000000000000000000000000000000000000000000000000000000815260206004820152601860248201527f52503a20494e56414c49445f504c4154464f524d5f46454500000000000000006044820152606401610cc7565b6040518181527f6f9983488bd1500c372d1f10befe9e7790d764b18c848cfa10872f4e248ded929060200160405180910390a1600955565b6000806000806000612ab861345c565b5093506cffffffffffffffffffffffffff1693506cffffffffffffffffffffffffff169350935089600003612b49576040517f08c379a000000000000000000000000000000000000000000000000000000000815260206004820152600f60248201527f53503a20414d4f554e545f5a45524f00000000000000000000000000000000006044820152606401610cc7565b6000808a15612bca5760008c1315612b9457508a90507f0000000000000000000000000000000000000000000000000000000000000000612b8d82868660016138e3565b9650612d16565b7f000000000000000000000000000000000000000000000000000000000000000090508b6000039150612b8d82868660006138e3565b60008c1315612c75578b9650848710612c3f576040517f08c379a000000000000000000000000000000000000000000000000000000000815260206004820152601260248201527f53503a204e4f545f454e4f5547485f4c495100000000000000000000000000006044820152606401610cc7565b507f0000000000000000000000000000000000000000000000000000000000000000612c6e878686600161396d565b9150612d16565b8b6000039650838710612ce4576040517f08c379a000000000000000000000000000000000000000000000000000000000815260206004820152601260248201527f53503a204e4f545f454e4f5547485f4c495100000000000000000000000000006044820152606401610cc7565b507f0000000000000000000000000000000000000000000000000000000000000000612d13878686600061396d565b91505b612d23818b898888613631565b8715612e615773ffffffffffffffffffffffffffffffffffffffff8a16634fc7c217337f000000000000000000000000000000000000000000000000000000000000000073ffffffffffffffffffffffffffffffffffffffff168473ffffffffffffffffffffffffffffffffffffffff1614612da757612da28561574f565b612da9565b895b7f000000000000000000000000000000000000000000000000000000000000000073ffffffffffffffffffffffffffffffffffffffff168573ffffffffffffffffffffffffffffffffffffffff1614612e0a57612e058661574f565b612e0c565b8a5b8d8d6040518663ffffffff1660e01b8152600401612e2e9594939291906157dc565b600060405180830381600087803b158015612e4857600080fd5b505af1158015612e5c573d6000803e3d6000fd5b505050505b6000612e6b613560565b90506000612e7761388b565b905060007f000000000000000000000000000000000000000000000000000000000000000073ffffffffffffffffffffffffffffffffffffffff168473ffffffffffffffffffffffffffffffffffffffff1614612edd57612ed88884615676565b612ee7565b612ee78783615676565b905084811015612f53576040517f08c379a000000000000000000000000000000000000000000000000000000000815260206004820152601a60248201527f53503a20494e53554646494349454e545f414d4f554e545f494e0000000000006044820152606401610cc7565b612f7f8984848b6cffffffffffffffffffffffffff168b6cffffffffffffffffffffffffff168b6139ec565b73ffffffffffffffffffffffffffffffffffffffff8d16337f66251e495e6e69e208ab08e2bc259dbe2ef482a8c4a93b8984b03a1eb27e1b9e7f00000000000000000000000000000000000000000000000000000000000000006040805173ffffffffffffffffffffffffffffffffffffffff8a811693169290921482526020820186905281018e905260600160405180910390a350505050505050505095945050505050565b60008060008061303461345c565b5093506cffffffffffffffffffffffffff1693506cffffffffffffffffffffffffff16935093506130658383613bf3565b909350915061308684613076613560565b61307e61388b565b8686866139ec565b50505050565b7f00000000000000000000000000000000000000000000000000000000000000003660008037600080366000845af43d6000803e80156130cb573d6000f35b503d6000fd5b620100105460009067ffffffffffffffff6801000000000000000082048116917801000000000000000000000000000000000000000000000000900416428111156118a057620100105467ffffffffffffffff8082169170010000000000000000000000000000000090041660006131498285615854565b905060006131578342615854565b90508367ffffffffffffffff168667ffffffffffffffff1611156131aa5760006131818588615854565b90508261318e82846156df565b61319891906156b8565b6131a29086615875565b9750506131db565b60006131b68786615854565b9050826131c382846156df565b6131cd91906156b8565b6131d79086615854565b9750505b50505050505090565b60008273ffffffffffffffffffffffffffffffffffffffff16638eaa6ac0836040516020016132139190615896565b604051602081830303815290604052805190602001206040518263ffffffff1660e01b815260040161324791815260200190565b602060405180830381865afa158015613264573d6000803e3d6000fd5b505050506040513d601f19601f82011682018060405250810190610e59919061562e565b60007f8b73c3c69bb8fe3d512ecc4cf759cc79239f7b179b0ffacaa9a75d522b39400f60006040516132ba91906158b2565b6040805191829003822060208301939093528101919091527fc89efdaa54c0f20c7adf612882df0950f5a951637e0307cdcb4c672f298b8bc660608201524660808201523060a082015260c00160405160208183030381529060405280519060200120905090565b81601a5280603a5269a9059cbb00000000000060005260206000604460166000875af13d156001600051141716613361576390b8ec186000526004601cfd5b6000603a52505050565b60006cffffffffffffffffffffffffff82111561340a576040517f08c379a000000000000000000000000000000000000000000000000000000000815260206004820152602760248201527f53616665436173743a2076616c756520646f65736e27742066697420696e203160448201527f30342062697473000000000000000000000000000000000000000000000000006064820152608401610cc7565b5090565b6040516323b872dd600052836020528260405281606052602060006064601c6000895af13d15600160005114171661344e57637939f4246000526004601cfd5b600060605260405250505050565b600680546000916cffffffffffffffffffffffffff808316926d0100000000000000000000000000810490911691637fffffff7a0100000000000000000000000000000000000000000000000000008304908116927e01000000000000000000000000000000000000000000000000000000000000900461ffff169190601f1c600190811614801561354a576040517f08c379a000000000000000000000000000000000000000000000000000000000815260206004820152600a60248201527f5245454e5452414e4359000000000000000000000000000000000000000000006044820152606401610cc7565b61355682856001613e91565b5094509091929394565b600c546000906cffffffffffffffffffffffffff167f00000000000000000000000000000000000000000000000000000000000000005b6040517f70a0823100000000000000000000000000000000000000000000000000000000815230600482015273ffffffffffffffffffffffffffffffffffffffff91909116906370a0823190602401602060405180830381865afa158015613603573d6000803e3d6000fd5b505050506040513d601f19601f82011682018060405250810190613627919061562e565b610e769190615988565b61363c858585613efb565b6122c65760007f000000000000000000000000000000000000000000000000000000000000000073ffffffffffffffffffffffffffffffffffffffff168673ffffffffffffffffffffffffffffffffffffffff161490506000816136c257600c546d010000000000000000000000000090046cffffffffffffffffffffffffff166136d5565b600c546cffffffffffffffffffffffffff165b6cffffffffffffffffffffffffff1690506000826136f357836136f5565b845b9050856137028383615676565b101561381f57600b5473ffffffffffffffffffffffffffffffffffffffff16631566d96d846137318585615676565b61373b908a615676565b6040517fffffffff0000000000000000000000000000000000000000000000000000000060e085901b16815291151560048301526024820152604401600060405180830381600087803b15801561379157600080fd5b505af11580156137a5573d6000803e3d6000fd5b505050506137b4888888613efb565b61381a576040517f08c379a000000000000000000000000000000000000000000000000000000000815260206004820152601360248201527f52503a205452414e534645525f4641494c4544000000000000000000000000006044820152606401610cc7565b613881565b6040517f08c379a000000000000000000000000000000000000000000000000000000000815260206004820152601360248201527f52503a205452414e534645525f4641494c4544000000000000000000000000006044820152606401610cc7565b5050505050505050565b600c546000906d010000000000000000000000000090046cffffffffffffffffffffffffff167f0000000000000000000000000000000000000000000000000000000000000000613597565b611d1882826000613e91565b60006139628585857f00000000000000000000000000000000000000000000000000000000000000006fffffffffffffffffffffffffffffffff167f00000000000000000000000000000000000000000000000000000000000000006fffffffffffffffffffffffffffffffff168760075461395d61406b565b61408f565b90505b949350505050565b60006139628585857f00000000000000000000000000000000000000000000000000000000000000006fffffffffffffffffffffffffffffffff167f00000000000000000000000000000000000000000000000000000000000000006fffffffffffffffffffffffffffffffff16876007546139e761406b565b61412b565b6cffffffffffffffffffffffffff8511801590613a1657506cffffffffffffffffffffffffff8411155b613a7c576040517f08c379a000000000000000000000000000000000000000000000000000000000815260206004820152600c60248201527f52503a204f564552464c4f5700000000000000000000000000000000000000006044820152606401610cc7565b6cffffffffffffffffffffffffff8311801590613aa657506cffffffffffffffffffffffffff8211155b613b0c576040517f08c379a000000000000000000000000000000000000000000000000000000000815260206004820152600c60248201527f52503a204f564552464c4f5700000000000000000000000000000000000000006044820152606401610cc7565b637fffffff421681810363ffffffff811615801590613b2a57508415155b8015613b3557508315155b15613b4657613b46858583866141c7565b87546cffffffffffffffffffffffffff8781166d0100000000000000000000000000027fffffffffffff000000000000000000000000000000000000000000000000000090921690891617178855613ba088836000613e91565b604080516cffffffffffffffffffffffffff808a168252881660208201527fff388a12130349259b5ae24af90448f511c2340be808f2c371230fc2da175c44910160405180910390a15050505050505050565b600b54600090819073ffffffffffffffffffffffffffffffffffffffff16613c1f575082905081610d13565b60007f0000000000000000000000000000000000000000000000000000000000000000905060007f0000000000000000000000000000000000000000000000000000000000000000600b546040517fd4fac45d00000000000000000000000000000000000000000000000000000000815230600482015273ffffffffffffffffffffffffffffffffffffffff85811660248301529293506000929091169063d4fac45d906044016020604051808303816000875af1158015613ce5573d6000803e3d6000fd5b505050506040513d601f19601f82011682018060405250810190613d09919061562e565b600b546040517fd4fac45d00000000000000000000000000000000000000000000000000000000815230600482015273ffffffffffffffffffffffffffffffffffffffff85811660248301529293506000929091169063d4fac45d906044016020604051808303816000875af1158015613d87573d6000803e3d6000fd5b505050506040513d601f19601f82011682018060405250810190613dab919061562e565b600c54909150613dce9085908a906cffffffffffffffffffffffffff16856144c5565b600c54909650613e0290849089906d010000000000000000000000000090046cffffffffffffffffffffffffff16846144c5565b9450613e0d8261336b565b600c80547fffffffffffffffffffffffffffffffffffffff00000000000000000000000000166cffffffffffffffffffffffffff92909216919091179055613e548161336b565b600c600d6101000a8154816cffffffffffffffffffffffffff02191690836cffffffffffffffffffffffffff160217905550505050509250929050565b600081613e9f576000613ea5565b63800000005b84547fffff00000000ffffffffffffffffffffffffffffffffffffffffffffffffffff167a0100000000000000000000000000000000000000000000000000009190941763ffffffff1602929092179092555050565b60008060008573ffffffffffffffffffffffffffffffffffffffff167fa9059cbb2ab09eb219583f4a59a5d0623ade346d962bcd4e46b11da047c9049b8686604051602401613f6c92919073ffffffffffffffffffffffffffffffffffffffff929092168252602082015260400190565b604080517fffffffffffffffffffffffffffffffffffffffffffffffffffffffffffffffe08184030181529181526020820180517bffffffffffffffffffffffffffffffffffffffffffffffffffffffff167fffffffff00000000000000000000000000000000000000000000000000000000909416939093179092529051613ff59190615896565b6000604051808303816000865af19150503d8060008114614032576040519150601f19603f3d011682016040523d82523d6000602084013e614037565b606091505b5091509150818015614061575080511580614061575080806020019051810190614061919061599b565b9695505050505050565b60006140756130d1565b6140809060026156df565b67ffffffffffffffff16905090565b6000858802858802620f4240858c02048b03836140ad8484886145b8565b905087156140ea57818a02840160006140c782848a614749565b905060018186030396508a87816140e0576140e0615689565b049650505061411b565b818902830160006140fc82848a614749565b905060018187030396508b878161411557614115615689565b04965050505b5050505098975050505050505050565b60008786028786028261413f8383876145b8565b9050861561417c578b890283036000614159828489614749565b9050838103600101955089868161417257614172615689565b04955050506141ad565b8b88028203600061418e828489614749565b905084810360010195508a86816141a7576141a7615689565b04955050505b620f42408681018502049c9b505050505050505050505050565b600654600090600d907e01000000000000000000000000000000000000000000000000000000000000900461ffff16620100008110614208576142086157ad565b0190506000806142a06142196130d1565b67ffffffffffffffff1661425f6fffffffffffffffffffffffffffffffff7f0000000000000000000000000000000000000000000000000000000000000000168a61570b565b61429b6fffffffffffffffffffffffffffffffff7f0000000000000000000000000000000000000000000000000000000000000000168a61570b565b6148a2565b915091506000806142bc846201000e548963ffffffff166148ca565b9150915060006142cc8a8a6149aa565b9050826201000e8190555060008863ffffffff1685028760000160009054906101000a9004600d0b01905060008963ffffffff16840288600001600e9054906101000a900460060b01905060008a63ffffffff1684028960000160159054906101000a900460060b01905060016006600001601e8282829054906101000a900461ffff160192506101000a81548161ffff021916908361ffff160217905550604051806080016040528084600d0b81526020018360060b81526020018260060b81526020018b63ffffffff16815250600d6006600001601e9054906101000a900461ffff1661ffff166201000081106143c7576143c76157ad565b825191018054602084015160408501516060909501516dffffffffffffffffffffffffffff9094167fffffffffffffffffffffff000000000000000000000000000000000000000000909216919091176e01000000000000000000000000000066ffffffffffffff928316021774ffffffffffffffffffffffffffffffffffffffffff16750100000000000000000000000000000000000000000091909416027bffffffffffffffffffffffffffffffffffffffffffffffffffffffff16929092177c010000000000000000000000000000000000000000000000000000000063ffffffff9092169190910217905550505050505050505050505050565b60008282111561453f5760006144db8484615676565b6040805173ffffffffffffffffffffffffffffffffffffffff89168152602081018390529192507f5314098314219d6e1ce8e41fc5e6ec1ce2f06a9d583079fb6619af9bf6efdf41910160405180910390a16145378186615988565b915050613965565b828210156145af5760006145538385615676565b6040805173ffffffffffffffffffffffffffffffffffffffff89168152602081018390529192507f72fba0ba07d937c660a3130fca36005c0e476cb97b6f00de413976e37eba9501910160405180910390a16145378186615676565b50919392505050565b6000806145c58486615988565b9050806000036145d9576000915050610e59565b6000818587106145ea5785876145ed565b86865b909750955060005b6101008110156146e6576000600488848b614610828061570b565b61461a91906159b8565b614624919061570b565b61462e91906159b8565b61463891906159b8565b905082935080600361464a919061570b565b606484614657828b615676565b614661919061570b565b61466b91906159b8565b6146759190615988565b8361468183600261570b565b606461468d898c61570b565b61469791906159b8565b6146a19190615988565b6146ab919061570b565b6146b591906159b8565b92506146c18385614a5c565b156146d3578295505050505050610e59565b50806146de816159cc565b9150506145f5565b506040517f08c379a000000000000000000000000000000000000000000000000000000000815260206004820152601c60248201527f534d3a20434f4d505554455f4449445f4e4f545f434f4e5645524745000000006044820152606401610cc7565b60008061475785600261570b565b614761858061570b565b61476b91906159b8565b905061477883600261570b565b6064614784868461570b565b61478e919061570b565b61479891906159b8565b90506000836147a860648761570b565b6147b291906159b8565b6147bc9087615988565b9050600085935060005b61010081101561483f5784915086836147e084600261570b565b6147ea9190615988565b6147f49190615676565b846147ff878061570b565b6148099190615988565b61481391906159b8565b945061481f8583614a5c565b1561482d5750505050610e59565b80614837816159cc565b9150506147c6565b506040517f08c379a000000000000000000000000000000000000000000000000000000000815260206004820152601960248201527f534d3a20474554595f4449445f4e4f545f434f4e5645524745000000000000006044820152606401610cc7565b6000806148b0858585614a7e565b915060006148bd83614b68565b9296929550919350505050565b600080836000036148e857846148df86614b68565b915091506149a2565b826201000d546148f8919061570b565b6149028686614ba8565b1115614993578385111561494c57614945836201000d54614923919061570b565b61493590670de0b6b3a7640000615988565b8590670de0b6b3a7640000614bd4565b9150614983565b84841161495b5761495b615a04565b614980836201000d5461496e919061570b565b61493590670de0b6b3a7640000615676565b91505b61498c82614b68565b90506149a2565b84915061499f85614b68565b90505b935093915050565b600080614a466149ba848661570b565b70ffffffffffffffffffffffffffffffffff811160071b81811c68ffffffffffffffffff1060061b1781811c64ffffffffff1060051b1781811c62ffffff1060041b1781811c620100000160b5600192831c1b0260121c80830401811c80830401811c80830401811c80830401811c80830401811c80830401811c80830401901c908190048111900390565b90506000614a5382614b68565b95945050505050565b600081831115614a73575060018183031115610b42565b506001919003111590565b600080614a968484614a9188600261570b565b6145b8565b905060006064614aa787600261570b565b614ab191906159b8565b9050600082614ac0838261570b565b614aca9190615676565b90506000614aee8688614ade86600261570b565b614ae8919061570b565b90614ca1565b90506000614afc8388614ca1565b614b0a88614ae8818861570b565b614b149084615988565b614b1e9190615676565b90506000614b2c848a614ca1565b614b3a8a614ae8818961570b565b614b449085615988565b614b4e9190615676565b9050614b5a8282614ccf565b9a9950505050505050505050565b600080614b7483614d26565b90506000808213614b8d57652d79883d20008203614b97565b652d79883d200082015b655af3107a40009005949350505050565b600080614bb58484614de3565b905082614bca670de0b6b3a76400008361570b565b61396591906159b8565b60008383027fffffffffffffffffffffffffffffffffffffffffffffffffffffffffffffffff8486098181108201900380614c275783614c1c5763ae47f7026000526004601cfd5b508290049050610e59565b808411614c3c5763ae47f7026000526004601cfd5b838587096000858103861695869004956003870260029081188089028203028089028203028089028203028089028203028089028203028089029091030291819003819004600101858411909403939093029190930391909104170290509392505050565b600081600019048311820215614cbf5763bac65e5b6000526004601cfd5b50670de0b6b3a764000091020490565b60007812725dd1d243aba0e75fe645cc4873f9e65afe688c928e1f218311670de0b6b3a764000002158202614d0c57637c5f487d6000526004601cfd5b50670de0b6b3a76400009190910281810615159190040190565b6000808213614d91576040517f08c379a000000000000000000000000000000000000000000000000000000000815260206004820152601160248201527f454d3a204f55545f4f465f424f554e44530000000000000000000000000000006044820152606401610cc7565b670c7d713b49da000082138015614daf5750670f43fc2c04ee000082125b15614dda57670de0b6b3a7640000614dc683614dfa565b81614dd357614dd3615689565b0592915050565b610b4282614f32565b6000818311614df457828203610e59565b50900390565b670de0b6b3a7640000026000806ec097ce7bc90715b34b9f1000000000808401907fffffffffffffffffffffffffffffffffff3f68318436f8ea4cb460f00000000085010281614e4c57614e4c615689565b05905060006ec097ce7bc90715b34b9f100000000082800205905081806ec097ce7bc90715b34b9f100000000081840205915060038205016ec097ce7bc90715b34b9f100000000082840205915060058205016ec097ce7bc90715b34b9f100000000082840205915060078205016ec097ce7bc90715b34b9f100000000082840205915060098205016ec097ce7bc90715b34b9f1000000000828402059150600b8205016ec097ce7bc90715b34b9f1000000000828402059150600d8205016ec097ce7bc90715b34b9f1000000000828402059150600f82050160020295945050505050565b6000670de0b6b3a7640000821215614f7457614f6b826ec097ce7bc90715b34b9f100000000081614f6557614f65615689565b05614f32565b60000392915050565b60007e1600ef3172e58d2e933ec884fde10064c63b5372d805e203c00000000000008312614fc557770195e54c5dd42177f53a27172fa9ec630262827000000000830592506806f05b59d3b2000000015b73011798004d755d3c8bc8e03204cf44619e0000008312614ffd576b1425982cf597cd205cef7380830592506803782dace9d9000000015b606492830292026e01855144814a7ff805980ff00840008312615045576e01855144814a7ff805980ff008400068056bc75e2d63100000840205925068ad78ebc5ac62000000015b6b02df0ab5a80a22c61ab5a7008312615080576b02df0ab5a80a22c61ab5a70068056bc75e2d6310000084020592506856bc75e2d631000000015b693f1fce3da636ea5cf85083126150b757693f1fce3da636ea5cf85068056bc75e2d631000008402059250682b5e3af16b18800000015b690127fa27722cc06cc5e283126150ee57690127fa27722cc06cc5e268056bc75e2d6310000084020592506815af1d78b58c400000015b68280e60114edb805d0383126151235768280e60114edb805d0368056bc75e2d631000008402059250680ad78ebc5ac6200000015b680ebc5fb41746121110831261514e57680ebc5fb4174612111068056bc75e2d631000009384020592015b6808f00f760a4b2db55d8312615183576808f00f760a4b2db55d68056bc75e2d6310000084020592506802b5e3af16b1880000015b6806f5f177578893793783126151b8576806f5f177578893793768056bc75e2d63100000840205925068015af1d78b58c40000015b6806248f33704b28660383126151ec576806248f33704b28660368056bc75e2d63100000840205925067ad78ebc5ac620000015b6805c548670b9510e7ac8312615220576805c548670b9510e7ac68056bc75e2d6310000084020592506756bc75e2d6310000015b600068056bc75e2d63100000840168056bc75e2d63100000808603028161524957615249615689565b059050600068056bc75e2d63100000828002059050818068056bc75e2d63100000818402059150600382050168056bc75e2d63100000828402059150600582050168056bc75e2d63100000828402059150600782050168056bc75e2d63100000828402059150600982050168056bc75e2d63100000828402059150600b820501600202606485820105979650505050505050565b60005b838110156152f85781810151838201526020016152e0565b50506000910152565b60208152600082518060208401526153208160408501602087016152dd565b601f017fffffffffffffffffffffffffffffffffffffffffffffffffffffffffffffffe0169190910160400192915050565b73ffffffffffffffffffffffffffffffffffffffff81168114610fbe57600080fd5b6000806040838503121561538757600080fd5b823561539281615352565b946020939093013593505050565b600080604083850312156153b357600080fd5b50508035926020909101359150565b6000806000606084860312156153d757600080fd5b83356153e281615352565b925060208401356153f281615352565b929592945050506040919091013590565b803567ffffffffffffffff8116811461154d57600080fd5b6000806040838503121561542e57600080fd5b61543783615403565b915061544560208401615403565b90509250929050565b60006020828403121561546057600080fd5b5035919050565b60006020828403121561547957600080fd5b8135610e5981615352565b600080600080600080600060e0888a03121561549f57600080fd5b87356154aa81615352565b965060208801356154ba81615352565b95506040880135945060608801359350608088013560ff811681146154de57600080fd5b9699959850939692959460a0840135945060c09093013592915050565b6000806040838503121561550e57600080fd5b823561551981615352565b9150602083013561552981615352565b809150509250929050565b8015158114610fbe57600080fd5b60008060008060006080868803121561555a57600080fd5b85359450602086013561556c81615534565b9350604086013561557c81615352565b9250606086013567ffffffffffffffff8082111561559957600080fd5b818801915088601f8301126155ad57600080fd5b8135818111156155bc57600080fd5b8960208285010111156155ce57600080fd5b9699959850939650602001949392505050565b600181811c908216806155f557607f821691505b6020821081036118a0577f4e487b7100000000000000000000000000000000000000000000000000000000600052602260045260246000fd5b60006020828403121561564057600080fd5b5051919050565b7f4e487b7100000000000000000000000000000000000000000000000000000000600052601160045260246000fd5b81810381811115610b4257610b42615647565b7f4e487b7100000000000000000000000000000000000000000000000000000000600052601260045260246000fd5b600067ffffffffffffffff808416806156d3576156d3615689565b92169190910492915050565b67ffffffffffffffff81811683821602808216919082811461570357615703615647565b505092915050565b8082028115828204841417610b4257610b42615647565b6cffffffffffffffffffffffffff81811683821601908082111561574857615748615647565b5092915050565b60007f8000000000000000000000000000000000000000000000000000000000000000820361578057615780615647565b5060000390565b6cffffffffffffffffffffffffff82811682821603908082111561574857615748615647565b7f4e487b7100000000000000000000000000000000000000000000000000000000600052603260045260246000fd5b73ffffffffffffffffffffffffffffffffffffffff8616815284602082015283604082015260806060820152816080820152818360a0830137600081830160a090810191909152601f9092017fffffffffffffffffffffffffffffffffffffffffffffffffffffffffffffffe0160101949350505050565b67ffffffffffffffff82811682821603908082111561574857615748615647565b67ffffffffffffffff81811683821601908082111561574857615748615647565b600082516158a88184602087016152dd565b9190910192915050565b600080835481600182811c9150808316806158ce57607f831692505b60208084108203615906577f4e487b710000000000000000000000000000000000000000000000000000000086526022600452602486fd5b81801561591a576001811461594d5761597a565b7fffffffffffffffffffffffffffffffffffffffffffffffffffffffffffffff008616895284151585028901965061597a565b60008a81526020902060005b868110156159725781548b820152908501908301615959565b505084890196505b509498975050505050505050565b80820180821115610b4257610b42615647565b6000602082840312156159ad57600080fd5b8151610e5981615534565b6000826159c7576159c7615689565b500490565b60007fffffffffffffffffffffffffffffffffffffffffffffffffffffffffffffffff82036159fd576159fd615647565b5060010190565b7f4e487b7100000000000000000000000000000000000000000000000000000000600052600160045260246000fdfea264697066735822122047277259354ea7e108d2d0bc1b0cdb756d52d7e416b99aff46589812935d668964736f6c63430008130033",
    "linkReferences": {}
  },
  "methodIdentifiers": {
    "DOMAIN_SEPARATOR()": "3644e515",
    "FEE_ACCURACY()": "db6488dc",
    "MAX_PLATFORM_FEE()": "3998a681",
    "MAX_SWAP_FEE()": "ab3d8544",
    "MINIMUM_LIQUIDITY()": "ba9a7a56",
    "adjustManagement(int256,int256)": "97e37764",
    "allowance(address,address)": "dd62ed3e",
    "ampData()": "598362f0",
    "approve(address,uint256)": "095ea7b3",
    "assetManager()": "94217ad1",
    "balanceOf(address)": "70a08231",
    "burn(address)": "89afcb44",
    "customPlatformFee()": "7c3cbc7c",
    "customSwapFee()": "c58771ef",
    "decimals()": "313ce567",
    "factory()": "c45a0155",
    "getCurrentA()": "28d98c95",
    "getCurrentAPrecise()": "9f2b37fb",
    "getReserves()": "0902f1ac",
    "lastInvariant()": "4c7b2a71",
    "lastInvariantAmp()": "caa92f1e",
    "maxChangeRate()": "85faf624",
    "mint(address)": "6a627842",
    "mintFee(uint256,uint256)": "0efd898a",
    "name()": "06fdde03",
    "nonces(address)": "7ecebe00",
    "observation(uint256)": "9d62a694",
    "oracleCaller()": "b62221e0",
    "permit(address,address,uint256,uint256,uint8,bytes32,bytes32)": "d505accf",
    "platformFee()": "26232a2e",
    "prevClampedPrice()": "495bc0fb",
    "rampA(uint64,uint64)": "44915136",
    "recoverToken(address)": "9be65a60",
    "setCustomPlatformFee(uint256)": "afb4a43b",
    "setCustomSwapFee(uint256)": "9568e73b",
    "setManager(address)": "d0ebdbe7",
    "setMaxChangeRate(uint256)": "4dfa1ff9",
    "skim(address)": "bc25cf77",
    "skimExcessManaged(address)": "7aec721b",
    "stopRampA()": "c4db7fa0",
    "swap(int256,bool,address,bytes)": "e12bd9d8",
    "swapFee()": "54cf2aeb",
    "symbol()": "95d89b41",
    "sync()": "fff6cae9",
    "token0()": "0dfe1681",
    "token0Managed()": "e9bdf7b8",
    "token0PrecisionMultiplier()": "baa8c7cb",
    "token1()": "d21220a7",
    "token1Managed()": "ad7853e9",
    "token1PrecisionMultiplier()": "4e25dc47",
    "totalSupply()": "18160ddd",
    "transfer(address,uint256)": "a9059cbb",
    "transferFrom(address,address,uint256)": "23b872dd",
    "updateOracleCaller()": "31c49074",
    "updatePlatformFee()": "dbc781bc",
    "updateSwapFee()": "0c472afd"
  },
  "id": 42
}